:030000000210B635
:0C10B600787FE4F6D8FD75814C0210FD37
:0414EC0050483A002A
:1013DF0004080000000004110000000012150000B6
:1013EF0000000000000000000000000000000000EE
:0713FF00050C0000000000D6
:0D14D600007F087E017DF3DDFEDEFCDFFA05
:0114E30022E6
:100E2900E4FFFE7DA07C40AB0BAA0AA909A8081221
:100E39000A73E4FBFA79807844120B7C8F0B8E0AD3
:100E49008D098C087F4E7E627DBC7CC0AB0BAA0AE3
:100E5900A909A808120A737B7F7A6A79AD784112C9
:100E690009828F148E138D128C11E4FFFEFDFCABE9
:100E790014AA13A912A811120C1960025009E4F559
:100E890014F513F512F511E4FFFE7D607C41AB14F6
:100E9900AA13A912A811120C19600E400C75149A04
:100EA900751399751261751141E4FFFE7DC87C4285
:100EB900AB14AA13A912A811120A73120CD0AB070A
:100EC900AA067C037DE8120DE5EF2430F5157C03B5
:100ED9007DE8AF03AE02120DE57E007F64CFCDCF72
:100EE900CECCCE120DE5EF2430F51675172EE4FFA2
:100EF900FE7DC87C42AB14AA13A912A811120A7369
:100F0900120CD0AB07AA067C007D64120DE57E00A9
:100F19007F0ACFCDCFCECCCE120DE5EF2430F51818
:100F29007C007D0AAF03AE02120DE5ED2430F51900
:100F3900AB157D027F18121142AB167D027F21127B
:100F49001142AB177D027F2A121142AB187D027F35
:0D0F590033121142AB197D027F3C021142A0
:10149200759850758920758DFD758BFDE4F587D2A1
:0214A2008E2298
:0814E4008F993099FDC2992295
:10101600121492120F661213A6759D0775BCA0E4F2
:10102600FBFDFF1212947B01E4FD7F121212947BEA
:1010360002E4FD7F241212947B03E4FD7F36121234
:10104600947B04E4FD7F481212947B05E4FD7F5AED
:101056001212947B06E4FD7F6C1212947BFF7A14C5
:1010660079EC7D02E4FF12132B7F0112136CAC06A0
:10107600AD07E4120C978F0B8E0A8D098C08120EA1
:1010860029E4F527F52874152528F8E6FF1214E457
:101096000528E52870020527C39405E52794004036
:1010A600E57F0D1214E47F0A1214E41214D680B9F7
:10136C00E4F5BDF5BEE5BC54E044084FF5BC7FFA8E
:10137C00E5BC30E41E53BCEFAEBDEEFD7C007E0040
:10138C007802C333CE33CED8F9FFE5BE5403FDEF5C
:09139C004DFF22DFDB7E047F001F
:0113A5002225
:0F14C6007D157C03ED1D70011C144C70F7DFF1D8
:0114D50022F4
:10140700E4F54AF54B8E4A8F4BD3E54B9400E54AFA
:10141700940040117FFF7E0012147FE54B154B703F
:05142700E8154A80E415
:01142C00229D
:10147F00E4FDFCC3ED9FEC9E5008000DBD00010C78
:02148F0080F1EA
:011491002238
:10000300003E5149453E0000427F4000004261519D
:100013004946002141454B31001814127F10002737
:1000230045454539003C4A494930000171090503FA
:1000330000364949493600064949291E000036362B
:10004300000000005636000000081422410000148E
:10005300141414140000412214080002015109066B
:1000630000324959513E007C1211127C007F4949EC
:100073004936003E41414122007F4141221C007F1D
:1000830049494941007F09090901003E4149497A2B
:10009300007F0808087F0000417F410000204041A5
:1000A3003F01007F08142241007F40404040007F11
:1000B300020C027F007F0408107F003E4141413E55
:1000C300007F09090906003E4151215E007F09199D
:1000D30029460046494949310001017F0101003F9A
:1000E3004040403F001F2040201F003F4038403F1A
:1000F300006314081463000708700807006151497E
:10010300454300007F41410000552A552A55000010
:1001130041417F000004020102040040404040408E
:10012300000001020400002054545478007F484426
:10013300443800384444442000384444487F00385D
:100143005454541800087E0901020018A4A4A47C86
:10015300007F080404780000447D40000040808450
:100163007D00007F102844000000417F4000007C98
:1001730004180478007C08040478003844444438A4
:1001830000FC242424180018242418FC007C0804F0
:10019300040800485454542000043F444020003CC9
:1001A3004040207C001C2040201C003C4030403C50
:1001B300004428102844001CA0A0A07C00446454E0
:1001C3004C44141414141414000000000000000024
:1001D3000000000000000000000000F80000000024
:1001E300000000333000000000100C06100C060065
:1001F300000000000000000040C07840C0784000CC
:10020300043F04043F040400007088FC083000002D
:10021300001820FF211E0000F008F000E018000085
:1002230000211C031E211E0000F00888700000003E
:100233001E2123241927211010160E000000000090
:100243000000000000000000000000E018040200AD
:10025300000000071820400000020418E00000001E
:100263000040201807000000404080F0804040001C
:100273000202010F01020200000000F00000000072
:100283000101011F01010100000000000000000046
:1002930080B07000000000000000000000000000BB
:1002A3000001010101010101000000000000000044
:1002B30000303000000000000000000080601804DF
:1002C300006018060100000000E010080810E000BC
:1002D300000F102020100F00001010F80000000085
:1002E3000020203F202000000070080808887000CC
:1002F300003028242221300000300888884830004C
:100303000018202020110E000000C02010F800006B
:1003130000070424243F240000F808888808080004
:100323000019212020110E0000E010888818000019
:10033300000F112020110E0000380808C8380800EB
:100343000000003F0000000000708808088870006B
:10035300001C222121221C0000E010080810E000EC
:100363000000312222110F00000000C0C000000075
:10037300000000303000000000000080000000009A
:100383000000806000000000000080402010080092
:10039300000102040810200040404040404040005B
:1003A3000404040404040400000810204080000036
:1003B3000020100804020100007048080808F0003B
:1003C3000000003036010000C030C828E810E0000B
:1003D3000718272423140B000000C038E000000096
:1003E300203C23020227382008F888888870000000
:1003F300203F202020110E00C030080808083800D4
:10040300071820202010080008F808080810E0004A
:10041300203F202020100F0008F88888E8081000EB
:10042300203F20202320180008F88888E8081000BF
:10043300203F200003000000C030080808380000F7
:1004430007182020221E020008F808000008F808F8
:10045300203F210101213F20000808F8080800007F
:100463000020203F2020000000000808F8080800B2
:10047300C08080807F00000008F888C0281808002A
:10048300203F20012638200008F808000000000063
:10049300203F20202020300008F8F800F8F808005A
:1004A300203F003F003F200008F830C00008F80854
:1004B300203F200007183F00E01008080810E00064
:1004C3000F10202020100F0008F808080808F0007B
:1004D300203F210101010000E01008080810E0009E
:1004E3000F18242438504F0008F888888888700033
:1004F300203F2000030C30200070880808083800D3
:100503000038202121221C00180808F808081800C8
:100513000000203F2000000008F808000008F80849
:10052300001F202020201F000878880000C83808FA
:10053300000007380E010000F80800F80008F80072
:10054300033C0700073C030008186880806818080C
:1005530020302C03032C30200838C800C83808008A
:100563000000203F2000000010080808C8380800D9
:100573002038262120201800000000FE020202007D
:100583000000007F40404000000C30C0000000002D
:10059300000000010638C00000020202FE00000055
:1005A300004040407F0000000000040202020400FB
:1005B3000000000000000000000000000000000038
:1005C3008080808080808080000202040000000020
:1005D3000000000000000000000080808080000018
:1005E3000019242222223F2008F800808000000006
:1005F300003F112020110E000000008080800000C9
:10060300000E112020201100000000808088F800D7
:10061300000E112020103F20000080808080000009
:10062300001F222222221300008080F0888888186D
:100633000020203F20200000000080808080800078
:10064300006B94949493600008F80080808000000D
:10065300203F210000203F200080989800000000E8
:100663000020203F20200000000000809898000018
:1006730000C08080807F000008F800008080800038
:10068300203F24022D302000000808F8000000005D
:100693000020203F20200000808080808080800018
:1006A300203F20003F20003F8080008080800000AA
:1006B300203F210000203F20000080808080000038
:1006C300001F202020201F00808000808000000069
:1006D30080FFA12020110E00000000808080800098
:1006E300000E112020A0FF80808080008080800089
:1006F30020203F21200001000000808080808000B6
:100703000033242424241900008080E0808000002A
:100713000000001F20200000808000000080800077
:10072300001F202020103F208080800000808080D8
:1007330000010E3008060100808000800080808068
:100743000F300C030C300F0000808000808080008D
:100753000020312E0E3120008080800000808080B8
:1007630080818E7018060100008080808080800068
:100773000021302C2221300000000000807C020286
:1007830000000000003F404000000000FF000000A8
:1007930000000000FF0000000002027C8000000057
:1007A3000040403F00000000000601010202040473
:1007B3000000000000000000F212FE12FE12F20020
:1007C3009058B4133058900000000000000000005F
:1007D3000000000000000000FF4A49484949FF00AB
:1007E300884629112947800000000000000000000E
:1007F300000000000000000084E45CC400F8084826
:10080300484808FF08098A000000000000000000B3
:100813000000000000000000003F10BF403F001E2A
:10082300925E20173846F10000000000000000002F
:1008330000000000000000000000FC242424FC252C
:100843002624FC24242404000000000000000000EF
:10085300000000000000000040308F80844C5525CC
:100863002525554C8080800000000000000000001A
:1008730000000000000000001010D0FF9050205036
:100883004C434C502040400000000000000000009A
:100893000000000000000000040300FF0041445872
:1008A300414E605847404000000000000000000037
:1008B30000000000000000001060028C00FE02F245
:1008C30002FE00F800FF000000000000000000002E
:1008D300000000000000000004047E018047300F88
:1008E30010270047807F0000000000000000000088
:1008F3000000000000000000000022322AA6A262CD
:100903002111098101000000000000000000000027
:100913000000000000000000004222130B42827E10
:1009230002020A122346000000000000000000003B
:1009330000000000000000002030AC63300088C8D5
:10094300A8998E88A8C88800000000000000000055
:1009530000000000000000002267221212804030D5
:100963000F00003F40407100000000000000000045
:0809730000000000000000007C
:10144D00EF4E60157D087C07ED1DAA0470011C4A46
:09145D0070F6EF1F70EA1E80E733
:011466002263
:1012E900F583E5822CF582E43583F583E493FF7D6C
:0112F90001F3
:1012FA00ED6004D2828002C282C283E4FEEEC3940D
:10130A0008748094805015C2A2EF30E704D280801E
:10131A0002C280D2A2EF25E0FF0E80E1D283D28200
:01132A0022A0
:10142D00AC07ED24B0FFE4FD1212FAEC54F0C454F5
:10143D000F4410FF1212FAEC540F4401FF0212FA7E
:1014A400E4FD7F8D1212FA7F141212FA7FAF02123A
:0114B400FA3D
:1014B500E4FD7F8D1212FA7F101212FA7FAE02122E
:0114C500FA2C
:1013A600E4FCECC3940874809480502CEC24B0FFC9
:1013B600E4FD1212FAE4FF1212FA7F101212FAE496
:1013C600FBEBC3948074809480500A7D01E4FF1285
:0813D60012FA0B80EC0C80CA36
:0113DE0022EC
:06114200AA07A905AF0396
:10114800E4FCEF24E0FBEAD3947F748094804004AD
:10115800E4FA0909AF02AD0112142DE4FCECC394C2
:101168000874809480501D75F010EBA42CF582E46F
:1011780035F0F583E58224CBF582E583340112123C
:10118800F30C80D9AF02E904FD12142DE4FCECC382
:10119800940874809480501D75F010EBA42CF5828F
:1011A800E435F0F583E58224D3F582E58334011232
:0511B80012F30C80D9C8
:0111BD00220F
:041467008F4CA905F8
:10146B007F017E00AD0119ED6009AD4C7C00120DC2
:03147B007E80F17F
:01147E00224B
:0811BE008F3B8D3C8A3D8B3E06
:1011C600E4F543F541E541C3953F505FC3E53F95DF
:1011D6004114FD7F0A121467AC3DAD3ECFCDCFCE94
:1011E600CCCE120D907C007D0A120D908D42E54307
:1011F6007020E53F14FFE541C39F5016E542700F8E
:10120600E540C3138541F0A4253BFF7B2080137581
:101216004301E540C3138541F0A4253BFFE5422485
:0B12260030FBAD3C1211420541809AE4
:01123100229A
:0A132B008F448D458B468A478948A0
:10133500E4F549AB46AA47A9488549827583001259
:101345000D51FB6021AD45AF44121142740825448F
:10135500F544D39478748094804007E4F5440545BA
:061365000545054980CD9D
:01136B00225F
:04129400AA07A905F7
:10129800E4F54412142DE4FCECC39410748094809B
:1012A800501575F040EBA424BBF582E5F034071225
:1012B80012E905440C80E1AF02E904FD12142DE4A3
:1012C800FCECC3941074809480501575F040EBA426
:1012D80024DBF582E5F034071212E905440C80E1BD
:0112E80022E3
:041232008F318B333A
:10123600E4F538F539E5345407700BE53413131328
:10124600541FF53A800AE534131313541F04F53A74
:101256008D3AE53AC395345034AD3AAF3112142D78
:10126600AC31ECC395335021AB35AA36A9370539D5
:10127600E539AE387002053814F5828E83120D51A9
:0D128600FF7D011212FA0C80D9053A80C5D7
:011293002238
:100F6600D2817F647E0012144DC2817F647E00129E
:100F7600144DD281E4FD7FAE1212FAE4FF1212FA8A
:100F86007F101212FA7F401212FA7F811212FA7F34
:100F9600CF1212FA7FA11212FA7FC81212FA7FA696
:100FA6001212FA7FA81212FA7F3F1212FA7FD31298
:100FB60012FAE4FF1212FA7FD51212FA7F80121289
:100FC600FA7FD91212FA7FF11212FA7FDA1212FAA6
:100FD6007F121212FA7FDB1212FA7F401212FA7F88
:100FE600201212FA7F021212FA7F8D1212FA7F1461
:100FF6001212FA7FA41212FA7FA61212FA7FAF1209
:1010060012FA7FAF1212FA1213A6E4FDFF02142D94
:10097B00020D3CE86480F8E933E83360110460F061
:10098B00ED33EC337009E8FCE9FDEAFEEBFF2204E2
:10099B0060DED3EB9FEA9EE99DE8C2E78CF0C2F7DD
:1009AB0095F0400CE8CCF8E9CDF9EACEFAEBCFFBA9
:1009BB00120D0785D0F05804700320D5B3E80470EE
:1009CB00075002B2D5020D4692D5EC0460F7E4CC89
:1009DB00C0E0C398F8603B94186008400DD0E0FB72
:1009EB00020D1EE4FBFAC9FC8028E830E406E4C9DA
:1009FB00FBE4CAFCE830E305E4C9CACBFCE85407C6
:100A0B006010F8C3E913F9EA13FAEB13FBEC13FCD0
:100A1B00D8F130F52FC3E49CFCEF9BFFEE9AFEED73
:100A2B0099FDD0E0FBEF4E4D4C701222DB03020D13
:100A3B0043EC2CFCEF33FFEE33FEED33FDED30E7F3
:100A4B00EB020D1EEF2BFFEE3AFEED39FDD0E0FB76
:100A5B0050130BBB0003020D46ED13FDEE13FEEF1F
:080A6B0013FFEC13FC020D1E49
:100A7300EC4D6011E8497017ED33EC3304600DE47D
:100A8300FCFFFEFD22E933E8330470F8020D3C124B
:100A93000D0758046009E4CC24815006285009024C
:100AA3000D46284003020D43C0E0EB4A7044B98071
:100AB30006D0E0FB020D32EF4E701CBD8008EBFF49
:100AC300EAFEE9FD80EBE98DF0A4FEE5F0020B5CA4
:100AD300E9CDF9EAFEEBFFEF89F0A4FCE5F0CE895E
:100AE300F0A42EFFE435F0CD89F0A42DFEE435F01B
:100AF3008067EF4E7005BD80D780C3EF8BF0A4AC49
:100B0300F0EE8BF0A42CFCE435F0F8EF8AF0A42C83
:100B1300E5F038FCE433CB8DF0A42CFCE5F03BF896
:100B2300EE8AF0A42CFCE5F038F8E433CF89F0A486
:100B33002CFCE5F038CF3400CE89F0A42FFFE5F08C
:100B43003EFEE433C98DF0A42EFEE5F039CD8AF0E4
:100B5300A42FFFE5F03EFEE43DFD33D0E0FB50075C
:100B63000BBB000F020D46EC2CFCEF33FFEE33FE04
:060B7300ED33FD020D1E32
:100B7900020D46EC5D046005E859047003020D3C62
:100B8900120D07580460F6EC4860F2EC7004FDFEA3
:100B9900FF22C860DB2481C85009C398600250064F
:100BA900020D439850CAF582E9294B4A7005AB8278
:100BB900020D3275F0007C1A7880C3EF9BEE9AED36
:100BC90099400DC3EF9BFFEE9AFEED99FDE842F0C7
:100BD900DC23ACF0D0E0FFD0E0FED0E0FDAB82201A
:100BE900E7101BEB60BAEC2CFCEF33FFEE33FEEDA4
:100BF90033FD020D1EE803F830E705C0F075F0007B
:100C0900EF2FFFEE33FEED33FD40B830E7C280AA87
:100C190074F8CC6480CCC86480C8F58204604FC382
:100C2900EB9FF5F0EA9E42F0E99D42F0E89C45F021
:100C3900603C501DE5825FFFE582D313CB5BCBF4AB
:100C49002B5582FB50280ABA002409B900200880D4
:100C59001DE5825BFBE582D313CF5FCFF4C3132F6E
:100C69005582FF50090EBE00050DBD00010CC3EBF6
:100C79009FF5F0EA9E42F0E99D42F0E89C45F0605C
:090C890007CC4820E701B3EC227E
:100C920075F020800E75F010800575F0087D007EDD
:100CA200007F003392D530D503120E1BEC33401077
:100CB200EF33FFEE33FEED33FDEC33FCD5F0ED22E6
:0E0CC200E5F0247EA2D513CC92E7CDCEFF2222
:100CD000EDD2E7CD33EC3392D524814006E4FFFE1C
:100CE000FDFC22FCE4CFCECDCC24E0501174FF807B
:100CF000EDC3CC13CCCD13CDCE13CECF13CF047018
:070D0000F030D5DE020E1BEE
:100D0700E9D2E7C933E833F892D5EDD2E7CD33EC32
:070D170033FC5002B2D522AB
:100D1E00EC30E7100FBF000C0EBE00080DBD000436
:100D2E000BEB6014A2D5EB13FCED92E7FD2274FFE2
:100D3E00FCFDFEFF22E480F8A2D574FF13FC7D803B
:030D4E00E480EF4F
:1010C200021016E493A3F8E493A34003F68001F21E
:1010D20008DFF48029E493A3F85407240CC8C3332F
:1010E200C4540F4420C8834004F456800146F6DFFE
:1010F200E4800B01020408102040809013DFE47E9C
:10110200019360BCA3FF543F30E509541FFEE493F2
:10111200A360010ECF54C025E060A840B8E493A3B9
:10112200FAE493A3F8E493A3C8C582C8CAC583CAE4
:10113200F0A3C8C582C8CAC583CADFE9DEE780BE9C
:0114060000E5
:100D5100BB010CE58229F582E5833AF583E0225057
:100D610006E92582F8E622BBFE06E92582F8E222A1
:0D0D7100E58229F582E5833AF583E49322BB
:100D7E00EF8DF0A4A8F0CF8CF0A428CE8DF0A42E89
:020D8E00FE2243
:100D9000BC000BBE0029EF8DF084FFADF022E4CC47
:100DA000F875F008EF2FFFEE33FEEC33FCEE9DEC10
:100DB000984005FCEE9DFE0FD5F0E9E4CEFD22ED56
:100DC000F8F5F0EE8420D21CFEADF075F008EF2FA0
:100DD000FFED33FD4007985006D5F0F222C398FD91
:050DE0000FD5F0EA222E
:100DE500C2D5EC30E709B2D5E4C39DFDE49CFCEE29
:100DF50030E715B2D5E4C39FFFE49EFE120D90C304
:100E0500E49DFDE49CFC8003120D9030D507C3E4FE
:060E15009FFFE49EFE2297
:0E0E1B00C3E49FFFE49EFEE49DFDE49CFC22E8
:00000001FF
