:020000040000FA
:060000000212560207AFD8
:03002B0002107D43
:03003300020DFDBE
:03004300020F1990
:030053000206E0C2
:03006B00020DE3A0
:100083000207440101FF01010503010F10FEFFC434
:100093001AC41AC41AC41A7A197419C41ADB2700A9
:1000A3000000009F28000000000C0000000C00016D
:1000B300FFFF0B0105A88800010101009A0500005C
:1000C300000F06E80364006400B8010202000800A0
:1000D30000050207051E02051E020A0A03B80B02E9
:1000E300803E0102F1FF011496511800020206300E
:1000F300313233343536373839414243444546008B
:10010300286E756C6C20706F696E74657229003F80
:100113003F3F000000807F0000803FF9021550B789
:1001230043BA510000204100E7DB2E0000A040103D
:10013300000000080000000A0000001212A260463E
:10014300121275603DE9687008F618F618F618F68D
:1001530022748067F7120172090909748067F72214
:10016300121275601D1212A27005191919801A1244
:100173001104701F1210DAC37003E66733191919DB
:1001830040071818182208080874FFF618F618F61E
:1001930018F6221210DA60171212E1702192F0128F
:1001A30012EB7019501720F014080808090909E721
:1001B300F61819E7F61819E7F61819E7F6221212D6
:1001C300EB60E6E869701F0808E62480F608E43669
:1001D300F618547FB47F0CE654806007F6E418F6F3
:1001E30018F622181822E9C6CC08C6CD08C6CE08D0
:1001F300C6CFC0E0E8C0E0EAC0E0EBC0E009E9F840
:1002030009E7FA09E7FBE6F918E6F8C3EC98ED9974
:10021300EE9AEBC2E7F5F0EFC2E795F0500E600CF3
:10022300EBCFFBEACEFAE9CDF9E8CCF8EAA2E7D2C4
:10023300E7FAEB33FB13F5F0EEA2E7D2E7FEEF3379
:10024300FFC5F013A2E730E601B313C5F0C3C0E066
:10025300C0F07F00C39BFB605B9418600C401AD016
:10026300E023F9D0E0F80203418AF0E9486003D2C1
:10027300F0E4AFF0FAF9F8803BEB30E40D89F0EAF3
:100283006003D2F0E4AFF0F9CAF8EB30E30D88F085
:10029300EF6002D2F0AFF0E4CAC9F8EB5407601480
:1002A300FBC3EA13FAE913F9E813F8EF135002D288
:1002B300E0FFDBEDD0E0C0E030E739C3E49FFFF5BA
:1002C300F0EC98FC42F0ED99FD42F0EE9AFE42F01C
:1002D300D0E0F9D0E0F8E5F0607AE923F9EE20E721
:1002E30042D8028067C3EF33FFEC33FCED33FDEEFE
:1002F30033FE80EAEC28FCED39FDEE3AFED0E02334
:10030300F9D0E0F84002801BC3EE13FEED13FDECC1
:1003130013FCEF135002D2E0FF08B800067F7F748E
:10032300FF802EEF3350178CF020F00260100CBCCE
:10033300000C0DBD00080EBE000408E860DFE933C1
:10034300E813FFEE2313FE4F4D4C8008E95480FF62
:10035300E4FEFDFCEE33EF33F47004FCFD7E80D04D
:10036300E0FBD0E0FAD0E0F8D0E0CFC618CEC61854
:10037300CDC618CCC6F922121275700418181822AB
:100383001212A2700D74FFF61819F61819F618193F
:10039300F622E7548066F61212EB700F1212E17028
:1003A300F014F608F608F608F680D11212E1700C84
:1003B300F608F608768008E6447F80EC1210DD70BC
:1003C3000C12110760BFE65480F6E480BB121107DC
:1003D300700519191980A5E869700C763F187680A5
:1003E30018F618F6E8F922E6CDC0E018ECC0E0E60E
:1003F30033CD33CDD313F6E719FCE7191933CC33D7
:10040300C3947F400ECD9D502408E65480F6E41833
:10041300F6800FF4043D14501408E6447FF6187672
:1004230080E418F618F6D0E0FCD0E0FD22CCD3131C
:10043300CCFD18E4C6CBC0E018E4C6CAC0E0080887
:10044300ED08C633E613F618E433C675F003C3CAE2
:1004530097CA09CB97CB199C40047D08802EBD0019
:100463000302052316B6FF050606081618C3CA338A
:10047300CACB33CB33CA27CA09CB37CB193CC37D8D
:1004830008803E187D0820E75CC633C6CA33CACB52
:1004930033CB33DDF1D5F0EB30E77BCA97CA09CB19
:1004A300974ACB199C406F4B7025E620E02180666C
:1004B300187D08C3CA97CA09CB97CB199CD3C633F7
:1004C300C6CA33CACB33CB3350C9DDE7D5F0E1D34A
:1004D300E4C636C608C636C608C636C608C636C615
:1004E3001818188031C3CA97CA09CB97CB199CB384
:1004F3004097C633C6CA33CACB33CB33DD34D5F0CA
:100503002EC6A2E0C640C8CA27CA09CB37194A700B
:10051300BECB3CB480B90808E63308E633601F1845
:100523001818D0E0FAD0E0FBD0E0FCD0E0FD2218B0
:100533007D08CA27CA09CB37CB193CD3808013F671
:1005430018E4B67F11F618B6FF0EF618C60470D27B
:100553000808768080CAF618F618F680C5001212CD
:1005630075604F1212A26012E7548066F6121104EE
:1005730070111212E1703B090909F4F618F618F626
:1005830018F6221210DA70151212EB08080860EA46
:10059300E6447FF618768018E4F618F6221212EB7A
:1005A30060161212E17012E4F608F608F608E65433
:1005B30080F609090918181822EAC0E0EBC0E0EC3C
:1005C300C0E0EDC0E0E687F0A4FBACF008E687F0FE
:1005D300A42CFCE435F0FA1809E687F0A42C4B6050
:1005E300027401CA35F0FCE433FB09E687F0D2F765
:1005F300A42CCB35F0FC1908E687F0A42BCC35F0FE
:10060300FBE433FD0819E687F0D2E7A42C4ACB3587
:10061300F0CD3400FC09E687F0D2E7A42DCC35F009
:10062300FDE433FA0918E687F0D2F7A42CCD35F0B0
:10063300CA3400FC08E687F0D2E7D2F7A42ACC3507
:10064300F07A7E20E70B0ACB33CBCD33CDCC33CC42
:1006530033CB3350147004ED30E00ED2F1E4CD3DD2
:10066300CDCC3CCC3B5005DA05C2F1EB547FC6330D
:1006730008E63392F0FBE73309E733C39A502D2B97
:1006830070190C0D4C4D70151806E608C333700D28
:1006930020F10AA2F013F6E418800B4024E4F630AC
:1006A300F002768018F618F618F68024D33B14501F
:1006B3001074FFA2F013F6187680E418F618F6808B
:1006C3000FA2F013F618E63303F618ECF618EDF65E
:1006D300D0E0FDD0E0FCD0E0FBD0E0FA22C0E07433
:1006E300F2120ACFA2AFE433FED2AFE5A7FFE5A132
:1006F300F5085F5410600612221A75A1EFE5085F32
:100703005408600812222075A1F7802BEFA2E0C0E5
:10071300D0E508A2E092F01211A4158182F05017DF
:10072300906198E0F8900AE9E0C398A2D265D033CB
:100733005002E8F075A1FEEEA2E092AF7F01020B3A
:100743002EC0E074F2120ACFA2AFE433FED2AF9010
:1007530061A4E0F8759B00E5915854086008759111
:10076300F7122268802AE59158541060087591EFBA
:1007730012226E801BE8A2E0C0D0E591A2E092F0C5
:100783001211A4158182F05007E0C2E0F01223B2E7
:100793009061A3E0F8E5E9585404600E12238875CC
:1007A300E9FB906193E0A2E640F2808BC0E074F233
:1007B300120ACFA2AFE433FED2AF9061A5E0F8E511
:1007C300BF585404600675BFFB1223CA02073AC31D
:1007D300E498F8E499F91208138026C3E49AFAE43A
:1007E3009BFBE920E7E9120813E498F8E499F9225E
:1007F300C3E498F8E499F9120813E498F8E499F932
:10080300C3E49AFAE49BFB22EB20E7CFE920E7E07D
:10081300B90010BB0008E88AF084F8AAF022E4FBD0
:10082300C8FA22EB70227B10C833C8C933C93350CE
:1008330007C39AC3DBF280069A50012ADBEAC83366
:10084300F4C8C933F4C9FA2275F008E4C833C8C937
:1008530033C933C99AC99B5004C92AC93BD5F0ECA3
:10086300FBC833F4C8E4C9FA221208AC20F01430F0
:10087300E72B74FFFCFBFA747F8022E4FCFBFA7421
:1008830080801AB48008BC00F2BB00EF800F50EBED
:10089300F9E4C39AFAE49BFBE49CFCE499C6CC1804
:1008A300C6CB18C6CA18C6F922E4C9C608CAC60800
:1008B300CBC6D3330308CCC63392F0C3947F402E08
:1008C30094184019C9B90704CACBCC225025C309CF
:1008D300CA33CACB33CBCC33CC33D9F422F4600D37
:1008E300C9CCC313CB13CBCA13CAD9F6CC22E4FCAD
:1008F300FBFA2214FCFBFA22080808EAC0E0EBC06A
:10090300E086F0E7A4FA180986F0E7A42AFA1809A2
:1009130086F0E7A42AFA180986F0E7A42AFA1986CA
:10092300F0E7A4FBE5F02AFA190886F0E7A42BFB0D
:10093300E5F03AFA190886F0E7A42BFBE5F03AFA5A
:1009430018180986F0E7A4C5F02BFBE43AFA190856
:10095300E7C5F0C6A426F6E5F03BFBE43AFA1886B1
:10096300F0E7A4F6E5F00826F6E43B08F6E43A08D7
:10097300F6D0E0FBD0E0FA22080808E630E71112CF
:100983001157120993080808C64480C6181818227C
:10099300181818E9799EC608CAC608CBC608CCC67B
:1009A300C370207996CACBCC7019798ECBCC7013D7
:1009B3007986CC700EF9802ACA33CACB33CBCC33B9
:1009C300CC331930E7F2CCCBCA3350147004EA307D
:1009D300E00DE4CA3ACACB3BCBCC3CCC500209C3B2
:1009E300E913C6CC182313C6CB18C6CA18C6F922F6
:1009F300E4CFC0E0E4CEC0E0E4CDC0E0E4CCC0E0AE
:100A030075F020C3E633F608E633F608E633F60856
:100A1300E633F6181818EC33FCED33FDEE33FEEF36
:100A230033FFC3EC9709ED9709EE9709EF9719196F
:100A330019400FFFEC97FC09ED97FD09EE97FE199E
:100A43001906D5F0BEECF709EDF709EEF709EFF754
:100A5300191919D0E0FCD0E0FDD0E0FED0E0FF2270
:100A63002518C582C0E0E51934FFC583C0E0E51849
:100A7300C3958224F810AF088583198582188008EE
:100A8300858319858218D2AFCEF0A3E520F0A37831
:100A930008E608F0A3DEFAEFF0A3E58124FAF8E60E
:100AA30008F0A3E608F0A3E608F0A30808E608F0B8
:100AB300A3E608F0A315811581D0E0FED0E0F81578
:100AC3008115811581E8C0E0EEC0E022C0D0251871
:100AD300C582C0E0E51934FFC583C0E0E518C395BE
:100AE3008224F310AF0885831985821880088583D3
:100AF30019858218D2AFC8F0A3E9F0A3EAF0A3EBFB
:100B0300F0A37908E709F0A3D8FAECF0A3EDF0A37A
:100B1300EEF0A3EFF0A3D0E0F0A3D0E0F0A3D0E099
:100B2300F0A3E520F0A3E5F0F0A32285198385184F
:100B330082E0C0E0A3E0F9A3E0FAA3E0FBA3780816
:100B4300E0F608A3DFFAE0FCA3E0FDA3E0FEA3E0E8
:100B5300FFA3E0C0E0A3E0C0E0A3E0F5D0A3E0F58D
:100B630020A3E0A3F5F010AF0885831985821880D0
:100B730008858319858218D2AFD082D083D0E0F85C
:100B8300D0E0321212D6B90003020BC8E49003017D
:100B930078B0790E8002F0A3D8FCD9FA9010B0AAED
:100BA30082AB8390008678B979018015E493A3AC76
:100BB30082AD838A828B83F0A3AA82AB838C828DDE
:100BC30083D8E9D9E775829A7583EE7403120FDC33
:100BD3007582E27583267400120FDC0E0075F01027
:100BE3008E1A8F1B85821F85831E85188285198324
:100BF300E0CEA3E0CF851F82851E83EBC9EAC8ED53
:100C0300CBECCAC3E833C8E933C9EA33CAEB33CB05
:100C1300C3EA9EF51DEB9FF51CB35004AB1CAA1D44
:100C2300EC33CCED33CDD5F0DAAE1AAF1B22121272
:100C330075601C1212A260171212EB70071212E1F8
:100C43007001D322C0D01212E17006D0D0B322C3F8
:100C53002233D0D0501430E0F6C3E7960809E79664
:100C63000809E7960809E796B32220E0D5E6970836
:100C730009E6970809E6970809E697B32212127561
:100C8300601B1212A260161212EB70071212E160BF
:100C93000CB322C0D01212E17005D0D022C322338C
:100CA300D0D0501330E0EBC3E7960809E796080964
:100CB300E7960809E7962220E0E4E6970809E69715
:100CC3000809E6970809E69722D083D082ECC0E0B2
:100CD300EDC0E0E493A3FCE493A3FDED4C600D129F
:100CE3000DA4EC24FFFCED34FFFD80EFE493A3FCA3
:100CF300E493A3FDED4C600D120E9EEC24FFFCED7E
:100D030034FFFD80EFD0E0FDD0E0FCE493A3C0E02E
:100D1300E493C0E022851983851882E0A3FEE0A353
:100D2300F5207808E0A3F608DFFAE0A3FFE0A3C00C
:100D3300E0E0A3C0E0E0A3C0E0E0A3C0E0E0A3C024
:100D4300E010AF088582188583198008858218858D
:100D53008319D2AFD083D082020FE2D083D082E94D
:100D6300C0E0E493A3C386F0C5F095F0F908E493DB
:100D7300A386F0C5F095F0700BE493A3C3994005E7
:100D8300E9048002A3E475F002A42582F582E5F06C
:100D93003583F583D0E0F9E493A3C0E0E493C0E0A6
:100DA30022C0E0C3E49396087401939618400FE4BD
:100DB3009366700808740193661870007019A3A3F2
:100DC300C3E49396087401939618A3A3400DD0E04F
:100DD300D0E0D0E0020D08A3A3A3A3A3A3D0E022F5
:100DE300C0E074F2120ACFE589A2E150031220F4A5
:100DF300758900C2C57F01020B2EC0E074F2120A8E
:100E0300CFE58BA2E050031220F4758B00C2E8807B
:100E1300E47404800474028000CCC0E0EDC0E0E51B
:100E230018C39CCCAD1950011D10AF068C188D1939
:100E330080068C188D19D2AF120F5ED0E0FDD0E082
:100E4300FC2274028000CCC0E0EDC0E0E518C39C36
:100E5300CCAD1950011D10AF068C188D1980068C6E
:100E6300188D19D2AF120F3CD0E0FDD0E0FC221256
:100E7300127560251212A260201212EB7003021287
:100E8300E1080808E76670101819E766700A181970
:100E9300E76670041819E76622F422C0E0C0F08800
:100EA300F0E4936670080874019366187000A8F064
:100EB300A3A3700BD0F0D0E0D0E0D0E0020D08A3E4
:100EC300A3D0F0D0E022D083D082CCC0E0E493A3BF
:100ED3006006120F7F1470FAE493A360061210AE3B
:100EE3001470FAD0E0FCE493A3C0E0E493C0E022E2
:100EF300C008C3E096F50808A3E096420808A3E0FB
:100F030096420808A3E0964208A2D265D033E508CA
:100F13007001D3D00822C0E074F2120ACFA2AFE46A
:100F230033FED2AFC2C0E5D1A2E45003122196EE44
:100F3300A2E092AF7F01020B2ECAC0E0E493A3C5E7
:100F430082CCC582C583CDC583F0A3C582CCC582BF
:100F5300C583CDC583DAE5D0E0CA22CAC0E0E0A3E9
:100F6300C582CCC582C583CDC583F0A3C582CCC55C
:100F730082C583CDC583DAE6D0E0CA22C0E0E4931C
:100F8300A3D39C5010E493A3C39C400AD0E0D0E0C9
:100F9300D0E0020EE6A3A3A3D0E022C008C3E096EC
:100FA300F50808A3E096420808A3E096420808A3C0
:100FB300E09645087001D3D008227009080808227A
:100FC3006016181818C6C333C608C633C608C63316
:100FD300C608C633C6D5E0EA22C09FF59FE473D0A6
:100FE3009F22D083D082C09FE493C0E0740193C05A
:100FF300E0740293F59F227404800A7403800674DC
:101003000280027401C0E0F404121015D0E0121241
:10101300B1222518F58210AF08F518400215198082
:1010230008F51840021519D2AF85198322BB0102B6
:10103300E722C082C08389828A83BB0003E08002E7
:10104300E493D083D08222C0D0251810AF08F518BE
:10105300500205198008F51850020519D2AFD0D0F7
:10106300226016080808C6C313C618C613C618C6D6
:1010730013C618C613C6D5E0EA22C0E0C0D0E8C044
:10108300E0E5A8D2AFC2C7A2E792AFD0E0F8D0D0D4
:10109300D0E032C3E0C696F608A3E0C696F608A3EE
:1010A300E0C696F608A3E0C696F622C0E0E493A352
:1010B3006C7009D0E0D0E0D0E0020EE6A3A3D0E04C
:1010C30022251810AF08F518400215198008F518E5
:1010D30040021519D2AF22191919E7094709700AF5
:1010E300E709C3337005E733F4220922C3E0960806
:1010F300A3E09608A3E09608A3E096A2D265D033B6
:1011030022181818E6084608700AE608C333700563
:10111300E633F4220822E066701008A3E066700A42
:1011230008A3E066700408A3E06622E7667010086F
:1011330009E766700A0809E76670040809E766228A
:10114300C3E096F008A3E096F008A3E096F008A3A6
:10115300E096F022181818E4C396F608E496F60809
:10116300E496F608E496F622E026F608A3E036F6BF
:1011730008A3E036F608A3E036F622E026F008A33B
:10118300E036F008A3E036F008A3E036F022E627C5
:10119300F60809E637F60809E637F60809E637F6EA
:1011A30022C0E0E8C0E0E58124FCF8E6A2E7D0E055
:1011B300F8D0E022E657F60809E657F60809E6579D
:1011C300F60809E657F622E056F608A3E056F608B5
:1011D300A3E056F608A3E056F622E647F60809E62A
:1011E30047F60809E647F60809E647F6227004229F
:1011F300600D18C6C333C608C633C6D5E0F418223B
:10120300E056F008A3E056F008A3E056F008A3E088
:1012130056F022C3E09608A3E09608A3E09608A33D
:10122300E09622C6F4C608C6F4C608C6F4C608C6C5
:10123300F4C622600D08C6A2E713C618C613C6D5A6
:10124300E0F322C3E7960809E7960809E796080939
:10125300E7962275D0007581407518017519030052
:10126300020B86E6F008A3E6F008A3E6F008A3E67F
:10127300F022E6084608C3134608336002E633F457
:1012830022600C08C6C313C618C613C6D5E0F422E1
:10129300E0F608A3E0F608A3E0F608A3E0F622E7E9
:1012A300094709C3134709336002E733F422CAC06D
:1012B300E0E6F0A308DAFAD0E0FA22EAF0A3EBF0D2
:1012C300A3ECF0A3EDF022E0FAA3E0FBA3E0FCA380
:1012D300E0FD22E5C754F84401F5C7790122E7C3CD
:1012E3003319471947194722E6C3331846184618D6
:1012F30046222518F582E43519F58322C2AF75D647
:101303009F02000022120FE5D22F00120FE59A3040
:1013130000120FE55A3100120FE59E3100120FE55E
:10132300C33100120FE5063200120FE553320012EB
:101333000FE5AB3300120FE5313400120FE54F34E4
:1013430000120FE5793400120FE5933400120FE514
:10135300A23400120FE5AD3400120FE56D35001213
:101363000FE5C63500120FE5883600120FE59036FB
:1013730000120FE5543700120FE5C03700120FE5D6
:10138300EB3800120FE5FC3800120FE5723900123A
:101393000FE5043A00120FE55C3A00120FE51C3B1F
:1013A30000120FE5433B00120FE5553B00120FE51A
:1013B300A83B00120FE5E53B00120FE5F23B0012DC
:1013C3000FE5753D00120FE5CA3E00120FE5FC3E26
:1013D30000120FE58F3F00120FE5C83F00120FE523
:1013E300144000120FE5304100120FE5794300125B
:1013F3000FE5844300120FE58F4300120FE5994375
:1014030000120FE5A44300120FE5BE4300120FE5DF
:10141300C84300120FE5D24300120FE5DD4300126B
:101423000FE5054400120FE5604400120FE5844404
:1014330000120FE5A84400120FE5064500120FE560
:101443004A4500120FE5664500120FE5DD4500121F
:101453000FE5154600120FE5614600120FE5BE4683
:1014630000120FE5784700120FE55C4900120FE503
:10147300B54900120FE5E54A00120FE50B4B0012C8
:101483000FE5944C00120FE5105000120FE5E251E6
:1014930000120FE5AB5300120FE5585400120FE58D
:1014A300C35500120FE5625600120FE5A75600124E
:1014B3000FE5115700120FE5205700120FE5A7594A
:1014C30000120FE5595B00120FE5C65B00120FE532
:1014D300A55C00120FE5BE5D00120FE53B5F001235
:1014E3000FE55A5F00120FE5AF5F00120FE5B4601E
:1014F30000120FE5DC6000120FE5346100120FE506
:10150300136200120FE5576200120FE5A262001288
:101513000FE50D6300120FE54E6400120FE5B26490
:1015230000120FE5006600120FE5606800120FE578
:10153300916800120FE5496A00120FE59E6A0012D6
:101543000FE5A26B00120FE53F6C00120FE5986CDC
:1015530000120FE54B6D00120FE5ED6D00120FE564
:101563008D6E00120FE5326F00120FE5A98901128B
:101573000FE5E88901120FE52F8C01120FE5798C35
:1015830001120FE5948D01120FE5048E01120FE590
:10159300398E01120FE5AD8F01120FE53092011262
:1015A3000FE5599301120FE5EF9301120FE5F79C35
:1015B30001120FE58C9D01120FE573A001120FE5D7
:1015C30066A101120FE5C7A101120FE5E3A2011203
:1015D3000FE5C8A401120FE5D9A601120FE543A731
:1015E30001120FE515A801120FE5CCA801120FE5B2
:1015F300D6A801120FE504A901120FE5C1A9011232
:101603000FE598AA01120FE55FAB01120FE511ACCC
:1016130001120FE53AAC01120FE55CAC01120FE5C4
:10162300B2AE01120FE58AAF01120FE5CEAF011280
:101633000FE536B001120FE5EEB001120FE520B150
:1016430001120FE564B101120FE59AB101120FE522
:10165300E6B101120FE53BB201120FE540B20112F0
:101663000FE593B201120FE5B8B201120FE5C7B34C
:1016730001120FE52BB401120FE59BB401120FE524
:1016830027B501120FE5F4B701120FE5D8B801121F
:101693000FE55BBA01120FE591BC01120FE53FBDE7
:1016A30001120FE5EFBD01120FE530C001120FE586
:1016B300D3C001120FE51AC101120FE5C6C2011210
:1016C3000FE5DAC201120FE5E4C201120FE50CC304
:1016D30001120FE518C301120FE537C301120FE51D
:1016E3001CC501120FE553C501120FE55DC50112BB
:1016F3000FE593C501120FE5E2C601120FE526C7F8
:1017030001120FE5CEC701120FE5B1C801120FE5B3
:101713005CC901120FE5A8CA01120FE5A6CB01129D
:101723000FE54CCC01120FE5DCCC01120FE5F3CC35
:1017330001120FE52ACD01120FE534CD01120FE599
:101743003FCD01120FE55DCD01120FE5A1CD0112D1
:101753000FE5FECD01120FE523CE01120FE53DCEBD
:1017630001120FE5C9CE01120FE5E6CF01120FE515
:1017730053D001120FE53AD101120FE561D10112E5
:101783000FE5D5D101120FE550D201120FE554D365
:1017930001120FE54AD401120FE5F9D401120FE546
:1017A3000CD601120FE5A8D601120FE535D70112A9
:1017B3000FE513D801120FE54BD801120FE5A3D89B
:1017C30001120FE56CD901120FE58DD901120FE556
:1017D30014DA01120FE538DA01120FE55ADA0112B1
:1017E3000FE5A3DA01120FE5B9DC01120FE5A0DD65
:1017F30001120FE551DE01120FE587E001120FE53B
:10180300D7E001120FE517E101120FE559E10112CB
:101813000FE5B5E101120FE5E3E101120FE507E280
:1018230001120FE55AE201120FE588E201120FE5FA
:10183300C1E201120FE516E301120FE57CE3011289
:101843000FE5D0E401120FE5F3E601120FE560E7BF
:1018530001120FE589E701120FE514E801120FE504
:101863007BE801120FE5C6E801120FE5EAE8011271
:101873000FE50EE901120FE569E901120FE584E9AD
:1018830001120FE53DEA01120FE5AC8C04120FE5DE
:10189300EB8C04120FE5788002120FE5BE80021272
:1018A3000FE59E8102120FE5A08202120FE5A383CA
:1018B30002120FE52F8502120FE58D8502120FE547
:1018C3004A8602120FE5688702120FE5D9870212D2
:1018D3000FE5158802120FE5638802120FE56D8884
:1018E30002120FE5B18802120FE50D8902120FE50E
:1018F300A88902120FE5258A02120FE5F48A021263
:101903000FE58D8B02120FE5AD8B02120FE5E38B12
:1019130002120FE5148C02120FE5D58C02120FE5AB
:10192300E58C02120FE5398D02120FE5548D021278
:101933000FE5668D02120FE56F8D02120FE5C98D5B
:1019430002120FE5258E02120FE5718E02120FE5CA
:101953008C8E02120FE5BD8E02120FE5DA8E021293
:101963000FE5E68E02120FE55A9002120FE573900F
:1019730002120FE5DA9002120FE5ED9002120FE565
:10198300FB9002120FE5AF9102120FE59392021240
:101993000FE5999302120FE5239402120FE52D949C
:1019A30002120FE59A9402120FE5B19402120FE5A9
:1019B300E39402120FE51C9502120FE546950212FD
:1019C3000FE5A79502120FE5C79502120FE5E595FE
:1019D30002120FE52B9602120FE5519702120FE543
:1019E3009E9702120FE5CD9702120FE5439802125C
:1019F3000FE56B9802120FE5A49802120FE5B29857
:101A030002120FE50A9902120FE5599902120FE526
:101A1300989902120FE5C89902120FE5F499021280
:101A23000FE5FF9902120FE51D9A02120FE5DF9AE7
:101A330002120FE5E99A02120FE5249B02120FE549
:101A43003A9B02120FE58F9B02120FE5A39B021232
:101A53000FE5B19C02120FE5C49C02120FE5D99C5D
:101A630002120FE57B9D02120FE5FE9D02120FE5A8
:101A7300BC9E02120FE5C79E02120FE5F39F0212EE
:101A83000FE50FA002120FE561A002120FE5A0A05F
:101A930002120FE5B5A002120FE517A102120FE51E
:101AA300A6A102120FE5F1A102120FE542A4021250
:101AB3000FE5C0A402120FE535A502120FE557A7E3
:101AC30002120FE56FA702120FE572A702120FE5CC
:101AD3007EA702120FE592A702120FE59AA7021240
:101AE3000FE5CDA702120FE57DA802120FE5F3A8BB
:101AF30002120FE566A902120FE51AAA02120FE5F8
:101B0300CFAA02120FE5EEAA02120FE58EAB021264
:101B13000FE59AAB02120FE5C5AB02120FE5C8AB96
:101B230002120FE532AC02120FE55AAD02120FE5B5
:101B330032AE02120FE5BDAE02120FE5D6AF0212AE
:101B43000FE593B002120FE5CCB002120FE5FDB022
:101B530002120FE5BBB102120FE5EBB102120FE562
:101B6300C6B202120FE55FB302120FE5EAB3021227
:101B73000FE59BB402120FE51EB502120FE550B537
:101B830002120FE591B502120FE565F502120FE59A
:101B9300CAF502120FE507F602120FE556F6021216
:101BA3000FE56CF802120FE54FFA02120FE5B9FDCB
:101BB30002120FE5F4FD02120FE516FE02120FE505
:101BC30079FE02120FE5ADFE02120FE5D0FE0212FE
:101BD3000FE5FDFE02120FE559FF02120FE5649EA9
:101BE30003120FE5E29E03120FE5189F03120FE5A0
:101BF300849F03120FE5F7A003120FE513A103124D
:101C03000FE558A103120FE5E6A103120FE53FA26A
:101C130003120FE5ED2A00120FE57EA403120FE570
:101C2300DBA403120FE547A503120FE5A8A50312D2
:101C33000FE5E9A503120FE596A603120FE5A8A782
:101C430003120FE5D3A703120FE51EA803120FE536
:101C530065A803120FE5F7A803120FE5B2A9031253
:101C63000FE58D8B04120FE5088C04120FE529AAEA
:101C730003120FE533AA03120FE57FAA03120FE540
:101C8300EDAA03120FE50EAB03120FE5BEAB031271
:101C93000FE51A2F00120FE55BAE03120FE5AEAE90
:101CA30003120FE5D7AE03120FE53EAF03120FE5A4
:101CB300CFAF03120FE511B003120FE55BB00312B0
:101CC3000FE5BAB003120FE5E6B003120FE577B1E3
:101CD30003120FE5B6B103120FE5F5B103120FE5D9
:101CE3002AB203120FE53CB203120FE54EB2031200
:101CF3000FE56DB203120FE576B203120FE52CB3B5
:101D030003120FE56CB303120FE5B98804120FE554
:101D130053FB03120FE589FB03120FE5D2FB0312FA
:101D23000FE522FD03120FE577EA01120FE5B6EB8B
:101D330001120FE5F2EB01120FE5B1ED01120FE510
:101D4300DAED01120FE56DF001120FE5B1F00112AA
:101D53000FE53AF201120FE5D2F201120FE53AF361
:101D630001120FE5DBF301120FE51DF401120FE57C
:101D73005DF401120FE5E8F501120FE558F70112C2
:101D83000FE57DF901120FE5ABF901120FE5D2F969
:101D930001120FE5DBF901120FE562FA01120FE5FB
:101DA30080FD01120FE5F58D04120FE50B8E041271
:101DB3000FE5618C04120FE5EFE703120FE502E86C
:101DC30003120FE59FE803120FE5DAE803120FE5AC
:101DD300F5E803120FE51AE903120FE55FE90312B1
:101DE3000FE590E903120FE5C1E903120FE547EB95
:101DF30003120FE5198304120FE54F8304120FE555
:101E03006B8304120FE5AD8304120FE5BD83041247
:101E13000FE5528404120FE55C8404120FE554EBC2
:101E230003120FE5C9EB03120FE558EC03120FE59C
:101E33000BED03120FE537ED03120FE593ED0312DC
:101E43000FE5008003120FE5558003120FE53E8175
:101E530003120FE5D78103120FE5218203120FE569
:101E6300838203120FE5978203120FE5798403122D
:101E73000FE5F48403120FE51E8503120FE5F786C1
:101E830003120FE5128703120FE5618703120FE5B3
:101E9300778703120FE5848703120FE5B8870312D0
:101EA3000FE5D18703120FE5718803120FE5CB8885
:101EB30003120FE5198903120FE52C8A03120FE5AC
:101EC3009D8C03120FE5CB8C03120FE5598D031282
:101ED3000FE5BA8D03120FE5BF8D03120FE5FB8DDE
:101EE30003120FE55D8E03120FE52D8F03120FE52D
:101EF300528F03120FE55C8F03120FE55F8F0312FE
:101F03000FE5CE8F03120FE5E98F03120FE5FC8F68
:101F130003120FE5289003120FE5639003120FE5F8
:101F2300669003120FE5A29003120FE5138C0412BF
:101F33000FE52B8C04120FE5D1BC03120FE520BD76
:101F430003120FE5C2BE03120FE580C003120FE5B3
:101F5300C8C003120FE5EAC103120FE51BC3031246
:101F63000FE53DC303120FE599C303120FE51BC42D
:101F730003120FE551E402120FE57CE402120FE5B0
:101F830069E502120FE5EEE502120FE557E60212CC
:101F93000FE5A3E602120FE522E702120FE5B4E70D
:101FA30002120FE540E802120FE582E802120FE584
:101FB300EEEC02120FE56EEE02120FE53EEF021297
:101FC3000FE565EF02120FE5C6F102120FE552F2BB
:101FD30002120FE56CF302120FE54BF402120FE548
:101FE300CDF402120FE5DB9003120FE59591031276
:101FF3000FE5079203120FE5A39203120FE5139364
:1020030003120FE5CC9503120FE5A39603120FE518
:10201300109703120FE58D9803120FE557990312DA
:102023000FE59E9A03120FE5B19B03120FE54A9C3D
:1020330003120FE5109D03120FE55FF103120FE585
:10204300B3F103120FE50BF203120FE556F203127D
:102053000FE5B8F203120FE551F303120FE5B9F3DD
:1020630003120FE5C5F303120FE585FD03120FE518
:10207300B6FD03120FE570FE03120FE5D6FE031241
:102083000FE525EF03120FE5B1F003120FE58C897D
:1020930004120FE59D8904120FE53D8A04120FE532
:1020A300008004120FE50E8004120FE5E9FF011210
:1020B3000FE5F78A04120FE5078B04120FE5228B55
:1020C30004120FE5838B04120FE5B78704120FE5A3
:1020D3003C8804120FE5A08804120FE5A5860412BC
:1020E3000FE5C78604120FE5318704120FE53C871D
:1020F30004120FE5808704120FE54FC403120FE5A6
:10210300DEC403120FE5ECC403120FE52DC5031261
:102113000FE547C503120FE5C4C503120FE5BEC69D
:1021230003120FE5E3C603120FE500C703120FE521
:102133001DC703120FE551C703120FE576C703123C
:102143000FE5BEC703120FE539C803120FE549C9EE
:1021530003120FE5E5E003120FE5F3E003120FE5C9
:102163006DE103120FE551E203120FE50AE40312D6
:102173000FE5D38D04120FE508CA03120FE574CAE5
:1021830003120FE533CB03120FE53DCC03120FE52A
:1021930096CD03120FE5F1CD03120FE546CE0312E0
:1021A3000FE54FCE03120FE561CE03120FE5CBCE41
:1021B30003120FE5DFCE03120FE5A6D303120FE5DB
:1021C300FBD303120FE5F7D503120FE529D603124C
:1021D3000FE54BD603120FE564D603120FE57DD648
:1021E30003120FE587D703120FE522D803120FE579
:1021F300B88104120FE5DC8104120FE5F5810412A6
:102203000FE5288204120FE5598204120FE5878235
:1022130004120FE5E98204120FE5F88204120FE5B8
:10222300028304120FE50F8304120FE500F4031277
:102233000FE526F403120FE563F403120FE572F4BE
:1022430003120FE591F403120FE5F9F403120FE5FE
:1022530002F503120FE561F503120FE585F503128D
:102263000FE544F603120FE551F603120FE562F68C
:1022730003120FE5398D04120FE5568D04120FE595
:1022830099D803120FE5F7D903120FE504DA031205
:102293000FE517DA03120FE536DA03120FE54CDA0E
:1022A30003120FE560DA03120FE5D5DA03120FE527
:1022B3003ADB03120FE5EADB03120FE5BFDC03127F
:1022C3000FE5CFDC03120FE5DEDC03120FE55E8AB8
:1022D30004120FE5828A04120FE5AA8A04120FE59D
:1022E300D28A04120FE590F603120FE5B7F6031234
:1022F3000FE5D8F603120FE53DF703120FE5F6F8E5
:1023030003120FE50FF903120FE51BF903120FE593
:102313002FF903120FE54DF903120FE557F90312D5
:102323000FE561F903120FE574F903120FE5C7F91D
:1023330003120FE500FA03120FE52FFA03120FE55C
:102343007DFA03120FE5CCFA03120FE5E7FA031245
:102353000FE5F1FA03120FE502FB03120FE548FB49
:1023630003120FE5A5FF02120FE595B303120FE564
:10237300BFB303120FE5DBB303120FE5EEB3031292
:102383000FE504B403120FE561B403120FE594B42F
:1023930003120FE5D0B803120FE5F6B903120FE5E8
:1023A30029BA03120FE575BA03120FE5A1BB031295
:1023B3000FE5C9BB03120FE5DEBB03120FE5EEBB4E
:1023C30003120FE532BC03120FE593BC03120FE5B2
:1023D300A3BC03120FE55F8404120FE57A84041291
:1023E3000FE5A38404120FE5BD8404120FE5E28414
:1023F30004120FE5018504120FE5198504120FE598
:10240300478504120FE5618504120FE5F58C04126C
:102413000FE56FE403120FE576E403120FE582E59F
:1024230003120FE5B2E503120FE5D8E503120FE53A
:10243300FBE503120FE51DE603120FE557E6031252
:102443000FE5BDE603120FE5F6E603120FE542E7DB
:1024530003120FE56FE703120FE58FE703120FE592
:1024630001FE01120FE519FE01120FE507FF01122C
:102473000FE5E6FF01120FE5928504120FE50486CE
:1024830004120FE5428604120FE5838604120FE55A
:1024930017DD03120FE536DD03120FE585DD0312A9
:1024A3000FE5A1DD03120FE5D2DD03120FE5E2DD37
:1024B30003120FE5EFDD03120FE5FCDD03120FE559
:1024C300E8DE03120FE526DF03120FE530DF031208
:1024D3000FE540E003120FE54BE003120FE55DE06B
:1024E30003120FE566E003120FE570E003120FE538
:1024F300E9CE03120FE52ED303120FE53CD30312EB
:102503000FE5CD7F00120FE55FFF03120FE589FF93
:1025130003120FE5758D04120FE5AB8D04120FE561
:10252300158E04120FE57E6F00120FE59C740012E6
:102533000FE52AE402120FE50CE402120FE5D8E2DC
:1025430002120FE535E202120FE5E8E002120FE591
:1025530093DE02120FE529DE02120FE5E1DD02121E
:102563000FE553DD02120FE546DD02120FE56A2E79
:1025730000120FE5192E00120FE540DA02120FE5E3
:10258300A2D702120FE5F22D00120FE5AE2D0012B5
:102593000FE56BD602120FE5BFD502120FE505D486
:1025A30002120FE5B5D102120FE53CD102120FE57D
:1025B300E3D002120FE573D002120FE54AD00212E4
:1025C3000FE52ACE02120FE5F6CD02120FE5C3CDB9
:1025D30002120FE5A7CD02120FE5C0CC02120FE5E0
:1025E30078CC02120FE5C3CA02120FE543CA0212E6
:1025F3000FE540CA02120FE541C902120FE50FC9E8
:1026030002120FE54CC802120FE577C602120FE55E
:10261300732D00120FE54D2D00120FE5342D00121E
:102623000FE5E02C00120FE53C2C00120FE508C665
:1026330002120FE5DAC502120FE5D7C502120FE544
:10264300C4C502120FE5B22B00120FE56FC50212CB
:102653000FE55EC502120FE550C402120FE51AC45E
:1026630002120FE5512B00120FE552AE03120FE5D4
:10267300C8C302120FE569C302120FE538C3021281
:102683000FE500C002120FE5C0BF02120FE5B4BF91
:1026930002120FE514BF02120FE554BE02120FE53A
:1026A300D6BB02120FE567B902120FE525B9021274
:1026B3000FE5F9B702120FE5AEB702120FE5EDB65B
:1026C30002120FE530B602120FE5C6B502120FE58E
:1026D30000B602120FE5FF2A00120FE56CA30300F8
:1026E300000080FBE47300013636010100010201A2
:1026F30000010301000104010606050200000701B1
:1027030000340801000F090401010D0100FF0E0848
:10271300000017020000190100FF1A0100011B014C
:1027230000FE1C0100081D0200001F010001200122
:102733000001210200002301000F240200002601F2
:10274300000127010008280200FF2A0100072B01CE
:1027530002402C0100002D0100012E0100012F0178
:1027630000FF30010B1C310800003A0100083B0157
:10277300000F2F01000003027102300160021102F9
:1027830070020102020202028002100261023A0098
:1027930041006302730272026202430200021302E7
:1027A30038000002000204021202000200020002CA
:1027B300000204020402370037003C024402000214
:1027C30039000002000265020002350281020002A4
:1027D30005028202830200020300710030016000DF
:1027E30011007000310220035004800010006100CA
:1027F30000001400630073007200620043000000D5
:102803001300060000000000040012000000000096
:102813000000000004000400370037003C024400BD
:10282300000000000000000065000000350081008A
:10283300000005000000830000000304710402048B
:10284300600411047004020402040104020410046D
:1028530061040004140463047304720462044304F3
:102863000004130406040004000404041204000416
:102873000004000400045104640000040004000484
:102883004404000400040004000465040004350447
:10289300810464000504000483040004010371033C
:1028A30001030103010301030103220302030103E3
:1028B30010030003000300030003000300030003ED
:1028C300420300032403060300030003040312036B
:1028D3002503230325032303040304030003000345
:1028E30000034403000300032303000365032100E3
:1028F3003503810300030503000300030003010103
:102903007101010101011101010131010101010104
:102913008001100161013B00140063017301720126
:10292300620143010001130106013D013500040169
:10293300120100010001000100010401040133013F
:1029430033013C01440132013600000100016501FD
:1029530000013500810100010501820183010001AD
:1029630036000100060000000F0000000000000018
:1029730000000000000003FFFF00000403FFFF004E
:1029830000FFFF0FF4010005C4040320000100034E
:102993000B000000000000000003010F0000FE1FF9
:1029A3001300C21F0100FE1F02008C1F0300921FB1
:1029B3000400981F05009E1F0600AA1FFFFF0000CA
:1029C30001B41506DE1508D8150BF61510301502DF
:1029D300BA1505CC1507C0150C96150DA815FF00E3
:1029E3000003EAF5E5D5D5C5B5A595958585757536
:1029F30065655555454535352525151505D4190402
:102A03001ADA19E019FE19F219EC190A1A101A1632
:102A13001A221AE619CE19C81900160F00000B1551
:102A23000B020002220F32000006C41AD61ADC1A67
:102A33009E19E21A9819A419D818D2180E19141944
:102A43000819C018241B421B481B2A1B361B301BAA
:102A5300303016181920231A1C1E300C0E020B04DA
:102A63000B0A0708000F00383C3E363B3B352B432F
:102A73002C303017181921301B1D1F300001191677
:102A83001816161523030000034948424D1817254D
:102A93000502181BE81AEE1AFA1AF41AF8191C1A86
:102AA3003C1B281A2E1A020402010101010902E447
:102AB30018EA18DE181A19000000000000F01802C6
:102AC3001900BE040A150004007F00E8030C002867
:102AD3000000000000090308100C0A0308090004A1
:102AE3000001FF1E1E0C05040F08C082C0838A82EA
:102AF3008B83E0D2E7F0121EF6023BA1C082C083B3
:102B03007900122FB9125F0AC082C0839003341276
:102B13004C90D083D082C3E09CA3E09D500C1265FF
:102B2300DEFAA3E0122B30600109023BA1FBEA7538
:102B3300F00BA4FAA8F075F00BEBA428FB90033676
:102B4300E02AF8A3E03B8882F583E0540F2274F770
:102B5300120A638908122FB912305FACF075F00BBB
:102B6300E9A42CF9900336E028FEA3E039FF7401B1
:102B7300650860067402650870208A828B831230B0
:102B83004B123F8174026508701B122F0A12309298
:102B930070138E828F83E4F0800BEA2403FCEB1224
:102BA300302D123039EEFAEFFB121C14023EDE74A4
:102BB300F4120A63126F0579008E828F83E06076C8
:102BC300890A890B8065E50A75F00BA4FAA8F075EC
:102BD300F00BE50B122B3D7046E50A75F00BA4F8DC
:102BE300AAF075F00BE50B1230718E828F83E085AE
:102BF3000882850983123153850882850983A312CC
:102C03003F81EE2403FCEF123036123D5F125984EC
:102C1300AA08AB09121C147901900334125399E5E5
:102C23000A2401F50AE50B3400F50B122F12E50A0D
:102C33009AE50B9B409002412B74F5120A63EAFE5E
:102C4300EBFF740B1212F5123D64750A01EC4D6033
:102C53002BEC126F21ED125F0A123F7979011226D4
:102C630064E5084509606F850882850983A3126FAF
:102C73000F7902AA08AB09122664805AE5084509B0
:102C8300602B125F0E1245D8123D6012307C700C1F
:102C9300EEFAEFFB122646E9F50A80CBEE2403FA9F
:102CA300122FB470317903EEFAEFFB80CA8E828F54
:102CB30083A3E064FE7003A3E0F4700BEE24030A25
:102CC3000A0A122FB4700CEEFAEFFB122646E9F54E
:102CD3000A8003750A00A90A7F03020D1874F7120C
:102CE3000A63900334123EEEEA4B602FEA75F00B51
:102CF300A4FAA8F075F00BEBA428FBEAFEEBFF1295
:102D03001D1C900336123EEE9003361251DE601204
:102D1300EEFCEFFD7900121C808007900336E4F08F
:102D2300A3F0023EDE900334124948C3EE98EF99B4
:102D330022C082C083EC4D600512248A80097C087E
:102D43007D007900121C80023BA174F6120A63799C
:102D530000EA4B601878008808126251EB1265DABA
:102D630060047901780808E8C3940840EA023F8ABE
:102D730074F7120A6374F31210C4ECFEEDFF8518A6
:102D830082851983E4F0041212F5EAF0A3EB1257DB
:102D93000A74031212F5AC82AD83EEFAEFFB12262E
:102DA3001CEEFAEFFB122616023ED974F7120A63E1
:102DB30074F31210C4ECFEEDFF851882851983E4C9
:102DC300F0EAFCEBFD74031212F512314C7401129C
:102DD30012F5123F758E828F83123F8174FE6870E5
:102DE3000374FF696004790180027900023ED9749B
:102DF300F7120A63EAFEEBFF122E507014122E5BD9
:102E03008E828F83E0F4F88A828B83E058F0121C61
:102E130014A908023EDE74F7120A63EAFEEBFF759B
:102E230008008E828F83E06022122E50701D122EB6
:102E33005B8A828B83E08F838E82F8E058700CE08C
:102E4300F88A828B83E048F0121C1480C41226D6C1
:102E5300E9F5087401650822126F1A123063122F04
:102E6300A5FAA3E039FB2274F4120A638A088B09DA
:102E73007C007D00122F0A123039122FCA126F0CF8
:102E83007900850882850983A3E064FE7003A3E0CB
:102E9300F460717E007F008062EEFAEF122B3060E7
:102EA30057EEFAEFFBEA75F00BA4FAA8F075F00BF6
:102EB300EBA428FB900336E02AF50AA3E03BF50BCD
:102EC300850882850983A3125658850A82850B8358
:102ED300A3E06A7003A3E06B701EE50A2403FAE51E
:102EE3000B122FB5700AE50A2403FCE50B123036EA
:102EF300122FBE7901125F201238A9122F12EE9AF7
:102F0300EF9B409502412BEA24030A0A0AEB229025
:102F13000334125AF7C32274F3120A638A088B0923
:102F23008A828B83A3126F0F122FB9126F0C750C49
:102F330000122F0A122FB570547E007F00804912B1
:102F43002F97FAA3E0398A82F583E0540F60361293
:102F53002F97F50AA3E039F50BE50A2403FCE50BEB
:102F63001230403400FB122484E964017017850A8F
:102F730082850B83A3125BB8A3123F81122FBE7508
:102F83000C01125F201238A9122D2840B2A90C7F20
:102F930005020D18EEF8EFF9E875F00BA4F8122FFF
:102FA300A522AAF075F00BE9A42AF9900336E028CC
:102FB30022EF12308C22126F20EB22122FCA125FE3
:102FC3001BEEF0A3EFF022E508126F21E50922744E
:102FD300F5120A63EAFEEBFF8E828F83A3126F0F53
:102FE3007C007D00EE24030A0A0AEF123039EEFA60
:102FF300EFFB1226D6E9F50A7401650A7029126FF0
:103003001A12305FAAF075F00BE91230718508824D
:10301300F58312304B12307C700DE5082403FCE578
:103023000912302D123039022CD93400FDEE24035D
:10303300FAEF221230403400FB12261C223400FD2A
:10304300E5082403FAE50922A31230502212305472
:1030530022E0F8A3E0F98E828F83A3221230632249
:103063003400F58312494CE875F00BA4F822122FB3
:10307300ABF508A3E039F50922E8F0A3E9F0E50888
:103083002403FAE50912308C2212309264012234AF
:1030930000FB122616E92274F3120A6374E6121077
:1030A300C4126F05750C01750800750900750A00D7
:1030B300750B00851882851983E4F0EE2403FCEF79
:1030C3003400FD74031212F512314CE964017023CC
:1030D300740B1212F5123F7974011212F512565C39
:1030E3007003A3E06960518518828519838582087E
:1030F300858309740D1212F5E4123153740E121202
:10310300F5123F81740D1212F5AA82AB8312256E5C
:10311300E96401700B740D1212F585820A85830B25
:10312300780A121002AC08AD09EEFAEFFB1226285A
:10313300740212104AE9F50CEEFAEFFB122574A99A
:103143000C741A12104A022F9212341F121C92226C
:10315300123EE912494822C082C083780079008078
:103163000312324A122F12E89AE99B5029E8FAE92E
:10317300FBEA75F00BA4FAACF075F00BEBA42CFB97
:10318300900336E02AFCA3E03B8C82F583E0540FE6
:1031930070CF790080027901023BA1C082C0839085
:1031A3002AC812499EEC75F012A4FCA8F075F0121F
:1031B300EDA428FD79FF7A587B0B121C80023BA1FA
:1031C30074F7120A63E9FEEAFF7A007B007800795C
:1031D300008028E8FCE9FDEC75F012A4FC85F008FA
:1031E30075F012EDA4250812365FC39E400AE0FC79
:1031F300EFC39C400312377E12324A12365340D338
:10320300023EDEC082C08378007900800312324A16
:1032130012323E501F123663F470F2E875F012A4B6
:10322300F8AAF075F012E9A42AF9745828FA740B75
:1032330039FB80047A007B00023BA1902AC8123735
:1032430014C3E89AE99B22E8240108E93400F9222F
:1032530074F0120A6374F31210C48A0A8B0B8C0C79
:103263008D0D8908EC450D6016AA0CAB0D12135099
:103273008A0E8B0FAE0EAF0FEE4F600302331112A7
:1032830013268A0E8B0FA80EA90FE8FEE9FFE84963
:10329300607C902AD612337360227403650860063B
:1032A3007404650870167A047903121320902AD6E1
:1032B30012338A40077A007B00023370902AD412BB
:1032C3003373601B74016508600674026508700F30
:1032D3007A027901121320902AD412338A50D685A8
:1032E30018828519837401F01212F5125984AC0CFB
:1032F300AD0D74031212F5123418740B1212F51279
:103303003D6C124361E412596C1218188004EE4F9D
:10331300604A780074FF2508C39404500278048E31
:10332300828F831259848E828F83A3A3A3A3E5087C
:10333300F0E88E828F83A3A3A3A3A312598C120850
:103343000B12372B8E828F83A3A3A3A3A3A3A3F074
:103353001237221212CA125F041212BE12337840BD
:10336300059010B4E4F01216F2EEFAEFFB024952A4
:10337300125AA649227A047900121320902AC812FD
:1033830065C0EA98EB99221233A375832A7582C824
:10339300E493C398F8A3E49399F9C3EA98EB9922C9
:1033A300E493F8740193F92274F2120A6374F3122A
:1033B30010C48A088B09ECFEEDFF750A00EEFAEFE4
:1033C300FB1213508A0C8B0DA80CA90DE849603E23
:1033D30088828983E065087004A3E06509602F880B
:1033E300828983A3A3A3A3E0C394055021125DB2F2
:1033F3008518828519837401F01212F5125DB6EEF9
:10340300FCEFFD74031212F5123418750A01A90AB0
:10341300740D02545012341F12130E22AA82AB836E
:1034230012261C851882851983AA82AB832274F61F
:10343300120A6312346D600FA3A3A3A3E014C39411
:10344300045004790180027900023F8A74F6120A5B
:103453006312346D600FA3A3A3A3E014C3940250BB
:1034630004790180027900023F8A12134A8A828B0F
:1034730083E58245832274F6120A6312346D600B6E
:10348300A3A3A3A3E07004790180027900023F8A19
:10349300C082C083EAFCEBFD7A007B00023B9EC046
:1034A30082C0837C007D00023B9E74F4120A637425
:1034B300F31210C4EAFEEBFF8C0A8D0BC3EC94F8F5
:1034C300ED94FF4007EE4F700302356675080075F3
:1034D3000900802E8518828519837401F01238D172
:1034E3001212F51238DF601374031212F5AC82ADB9
:1034F30083EEFAEFFB122484E97049E508240112F4
:1035030036FF902AC8E4125AAEE50898E5099950A7
:1035130052E50875F012A4F8AAF075F012E509A4B3
:103523002AF91265F360D4EE4F70A974FF650A702F
:103533000474FF650B60C41238C1650A7004A3E00C
:10354300650B70B7E50875F012A4F508A8F075F0DF
:1035530012E509A428F50974582508FA740B3509EE
:10356300FB80047A007B0002412674F4120A637420
:10357300F31210C47508001213508A0A8B0BAE0A9B
:10358300AF0BEE4F602A8518828519837401123EB2
:10359300E3F8A3E0F9740B1212F512400412258626
:1035A3007C127D0079FFEEFAEFFB121C8075080197
:1035B30012337850099010B47401F01216F2A9086E
:1035C30002412674F7120A63E9FE74FE6A700374FB
:1035D300FF6B780079007005805212324A1236531D
:1035E300504AE8FCE9FDEC75F012A4FCAFF075F06D
:1035F30012EDA42F12365FF460E0E8FCE9FDEC75F0
:10360300F012A4FC75F012EDA42FFD74582CF58272
:10361300740B3DF583E06A7003A3E06B70BC800913
:1036230012366314C39404401712324A12323E50C6
:1036330018EE70EC12366364016005E0640370E910
:103643001238B2FAA3E0FB80047AFE7BFF023EDE6F
:10365300902AC81249A2C3E89CE99D221237B322DB
:10366300E8FAE9FBEA75F012A4FAACF075F012EB94
:10367300A42CFB745C2AF582740B3BF583E02212C5
:103683001362023BA1C082C083790180F274F012FD
:103693000A638A0A8B0B7A0479011213208A0C8B32
:1036A3000DEA450D603EEAC333FAEB33FB121D1CF2
:1036B3008A088B09AE08AF09EE4F60237AFE7BFFC1
:1036C30012136874FE6A700374FF6B601B850882B3
:1036D300850983123EEEE50824021236FF80E17568
:1036E3000C0080047E007F00850A82850B83E50C35
:1036F300F0EEFAEFFB024957E5082407F508E50960
:103703003400F50922902AC81249A2C3EA9CEB9D12
:1037130022E493FA740193FB22121C7474032212A1
:103723005F15E4F090894C22E88E828F83A3A3A3D4
:10373300A3A3A3A3A312374D740112374DA3F0EE35
:103743002410125F18E4F0A3F02212436DA3A3A385
:1037530022C082C0837A007B0080041912377E1254
:103763003708501012379DC3940550F0E970EC12DE
:10377300378780047A007B00023BA1EA24010AEB2D
:103783003400FB22EA75F012A4FA75F012EBA428B8
:10379300FB74582AFA740B3BFB22EAFCEBFDEC7535
:1037A300F012A4FCA8F075F012EDA4281237B3228E
:1037B300FD745C2CF582740B3DF583E02274F712E3
:1037C3000A6374F31210C47E007F00023865E508B3
:1037D30075F017A4F8A9F0126854FAA3E0FBEEF809
:1037E300EFF9E875F012A4F8ACF075F012E9A42C27
:1037F3001238C06A7003A3E06B603FE50875F017E9
:10380300A4F8AAF0EA126853F8A3E0F974011212BB
:10381300F5E0687003A3E0696020E50875F017A47C
:10382300F8EAF974D428FC740C39FD74031212F508
:10383300AA82AB83122484E96014E50875F017A407
:10384300F8A9F074D228FA740C39FB12182405086D
:10385300902ADBE493F8E508C39850030237D112AA
:1038630038A9902AC8126B9A5039EEF8EFF912383A
:10387300B2F47003A3E0F460E685188285198374BB
:1038830001F0EEF8EFF9E875F012A4F875F012E91B
:10389300A42AF91238D11212F51238DF60C1750863
:1038A3000080AD023ED9EE24010EEF3400FF22E882
:1038B30075F012A4F8AAF075F012E9A42AF91238E7
:1038C300C522745828F582740B39F583E022745AA3
:1038D30028F582740B39124946740B22E8F0A3E9E8
:1038E30012400C121308E922C082C0839003417472
:1038F300C6F0A37415F0023BA174F7120A63EAFE43
:10390300EBFF900377E06408601BE0640460168EAD
:10391300828F83E0540364017048123D5F12445761
:10392300E06406703D8E828F83A3A3E064FE700380
:10393300A3E0F4602D8E828F83A3A3123F759003BF
:1039430068E0687003A3E069700BEE2415F582EF5D
:103953001265DA6008121680E9F5088008121686E7
:1039630080F67508C2EEFAEFFB121D22022E1474C4
:10397300F4120A638A088B098A828B83E0F8A3E036
:10398300FAE82AFAE43400FB121D1C8A0A8B0BAEF8
:103993000AAF0BEE4F6063850882850983E0FC7DE7
:1039A300007900121C808E828F83A3A3126F0F12E3
:1039B30016C28E828F83A3A3A3A3123EEE85088231
:1039C300850983E0F8EE28F8EF3400123F7D85087F
:1039D30082850983A3E0C0E0EE240D125F07D0E0E7
:1039E300F01216D4EE240E125F07E91255B9E0C0A7
:1039F300E0EE2411125F07D0E0F0EEFAEFFB024194
:103A03002B74F4120A6374EB1210C48A088B098CAA
:103A13000A8D0BE9FE900377E064046005E0640817
:103A2300700479C2802EA37808121266EE90037E8A
:103A3300123BDF12126674051212F5E9F0740412D8
:103A430012F57401F074071212F5E4F09003777421
:103A530002123B3C741502412874F6120A6374EB9C
:103A63001210C4EAFEEBFF1251DB6003023B007A43
:103A7300077B00121D1C900339123EEE1251DB60CE
:103A8300788E828F831212CA90033A12445A12120A
:103A9300BE126DD3C0E0123B0CD0E0F0EE2405FA69
:103AA300EF3400FB8A088B098A82F583E0C0E012B9
:103AB3003B07D0E0124122E0C0E0123B07A3D0E075
:103AC300123F621212CA8518828519831212BE88A8
:103AD300828983E0C0E074051212F5D0E0F0850816
:103AE30082850983E0C0E074041212F5D0E0F0741B
:103AF300071212F5123B3B8006791080027901749C
:103B030015023F87123B0CA322900339E0FAA3E08E
:103B1300F5838A82A3A3A3A322C082C0831251DBAD
:103B2300600D900339125AE5900339E4F0A3F012C3
:103B330015F01217C4023BA1E412400C1224BA225E
:103B4300C082C083900338E07003121FBC1213AA13
:103B5300804CC082C083900338E09010B37004E4BB
:103B6300F0802D7401F0900338E0F460237C41E091
:103B7300C394415002E0FCECF8E0C398F0EC75F01C
:103B8300E8A4CCA8F075F003A428FD7A801249AA12
:103B93007AB37B1079411224A28003121356D08387
:103BA300D082020FE274F4120A6374EB1210C48A17
:103BB300088B098C0A8D0B9003777401123BDF127B
:103BC300126674051212F5E9F074041212F5740307
:103BD300F074071212F5123B3B023A57123F6D780D
:103BE300082274F7120A637C011213BC023EDE74CE
:103BF300F2120A6374FC1210C4E9851882851983D2
:103C0300F0EAFEEBFF8C0A900375124C901215E458
:103C13008A088B09EA4509700579CA023D5A8A82E6
:103C23008B83A3A3A3A3A3A3A3E064FE7003A3E0D6
:103C3300F4700579C3023D5A900375125658121851
:103C43002A850882850983A3A3A3A3A3A3A3A3A36C
:103C5300A3E004900388123EBD74021212F57402AD
:103C6300F0141212F5AA82AB8312172E8A0C8B0D55
:103C7300AE0CAF0DEE4F7003023D51123D5F124586
:103C8300CC7406F0A3A882A983900362125B22126C
:103C93004925F0EE2413125F07740112596474402E
:103CA300F0A3E41255B2A3A3123D6C123F81EE249C
:103CB30011125F07E50AF0EEFAEFFB121386E9FE35
:103CC3006003023D539003777409F01236FBAA0890
:103CD300FB794B1224A2850882850983123EAF1219
:103CE3003F8190036AE0F8851882851983E0686054
:103CF3000CE090036A12400879E11224A29010F4B8
:103D0300123F759010F6E0687003A3E069601A90A3
:103D1300033B123F819010F61256581216EC901086
:103D2300F6124C907A011249AA7A007B049003C2DE
:103D3300E0F9121DDC9010F6123D6474027808124B
:103D430011F0AC08AD09FA7B041249AC80027E1075
:103D5300900583E4F0EEF97404025450EE125F16FA
:103D630022E0F508A3E0F50922123D702212305437
:103D7300A32274F5120A6374E21210C485188285B3
:103D83001983ECF0A3EDF0EAFEEBFF890874291226
:103D930012F5E0F509742C1212F5E0F50A90037799
:103DA300E064046005E06408700579C2023EA7740C
:103DB3002A1212F5E064FE7003A3E0F4700579C3E0
:103DC300023EA7900377740312400879501224A28D
:103DD300742A1212F5AA82AB83794B1224A2851896
:103DE30082851983123EB6123F81E50890036AF07B
:103DF300742A1212F5123EAF123F81E50990036255
:103E0300123EBD74CE55094480C0E074121212F5FF
:103E1300D0E0F07401250A900388F0740F1212F5B4
:103E23007402F0742A1212F5123F7574071212F518
:103E3300E8F0A3E9123EF474101212F5123F8174F4
:103E4300051212F5E508F0741B1212F5E4F0900365
:103E53007D740FF07A7D7B0379541224A290037C46
:103E6300740FF07A7C7B0379471224A290037CE0E1
:103E7300C3940F502374051212F5E0C0E0740212CC
:103E830012F5D0E0F074041212F57401F00412126A
:103E9300F5AA82AB831224C674051212F5AA82AB6B
:103EA300831224A8741E12104A022CDB1249489074
:103EB300036B2212494890037522F0EEFCEFFD7A62
:103EC300897B0312248A2274F7120A63EB90037F1F
:103ED300F01215D28005740D12104A7F01020D18DD
:103EE300123EE9A3E022123F62A322EAF0A3EBF021
:103EF30022123F68F8A3E0F92274F7120A6374F8F8
:103F03001210C4EAFEEBFF7900900377E0640870B7
:103F13004485188285198374FDF0A374FFF012168B
:103F2300BC74021212F5123EEE74051212F5E4127D
:103F33003EE9E0C0E074041212F5D0E0123F5DC028
:103F4300E074061212F5D0E0F074071212F5E412D1
:103F530040081217107408023EDB123F62E022F0A1
:103F63008E828F8322123F6DE022F085188285199D
:103F7300832212494822E0F8A3E0F9125F15E8F022
:103F8300A3E9F02212104A7F02020D18C082C083F7
:103F93009003497476F0A37414F09003EF746AF0FD
:103FA300A37417F090034D74ACF0A37414F0900352
:103FB3004F7476F0A37414F090035174B2F0A374A9
:103FC30014F0023BA174F4120A6374F91210C48A48
:103FD300088B098C0A8D0B85188285198378081242
:103FE300126674041212F5E9F074051212F5E4F086
:103FF30074061212F5E41240081213987407024172
:1040030028E8F0A3E912400C22123F6DAA82AB8389
:104013002274F4120A638A088B098A828B83125FE3
:1040230023EE4F70030241209003121251DE6015FC
:104033008A828B83A3A3E0F9EEFAEFFB90031312BA
:10404300445A1226E78E828F83A3A3A3A3A3A3A319
:10405300A3A3E0640270748E828F83A3A3A3A3A39C
:10406300A3E0540270030240F2850882850983A30A
:10407300A3E064E960798E828F83A3A3A3A3A3A3A0
:10408300A3A3A3A3E07014901109E0048E828F838D
:10409300A3A3A3A3A3A3A3A3A3A3F08E828F83A30A
:1040A300A3A3A3A3A3A3A3A3A3E014124122A3A3A3
:1040B300A37404F090110A12595EE8F0A3E9126A9E
:1040C300378B0BEA450B70031264158E828F83A323
:1040D300A3A3A3A3A3A3A3A3E0640260128E828F6E
:1040E30083A3A3A3A3A3A3A3A3A3E06406702E8E19
:1040F300828F83A3A3A3A3A3A3E0A2E0501F8508F9
:1041030082850983A3A3E0F9EEFAEFFB1225CE8E95
:10411300828F83A3A3A3A3A3A3E054FEF080091279
:10412300436922740D12104A7F04020D1874EC12B5
:104133000A6374DD1210C4EAFEEBFF8C088D097468
:10414300371212F5780C121293750A0074051212C5
:10415300F5AC82AD8312255074121212F5E070088B
:1041630074151212F5E0602074051212F5E0A2E650
:10417300501E8E828F83A3A3A3A3A3A3A3A3A312DF
:104183005658121746E96008790312247202434F06
:1041930074051212F5E0540C64047005750B01806C
:1041A30003750B00E0A2E55035750A01E50BA2E0AB
:1041B300402C1216C28A108B11A810A911123D5F50
:1041C300E0687003A3E069601574051212F5126FBD
:1041D300161256541225DAE96004790480AC74058A
:1041E3001212F5E0A2E6502274061212F5E054030F
:1041F300701874051212F5E0540C640C600CE05452
:104203000C640860057510018003751000740512B5
:1042130012F5E05403F8740268700C126F1612560C
:104223005412253E02434F740168703AE510A2E030
:10423300500312435774051212F5A882A98374031D
:104243001212F5E8F0A3E912493C85188285198317
:10425300124361E0C0E074021212F5D0E01240088C
:104263001226BE02434FE8600302434F90035FE010
:10427300640170108E828F83A3A3A3A3A3A3E07012
:10428300030241DD74221212F5740212493C741ABE
:104293001212F5123F81E510A2E0500874051212C4
:1042A300F5124357E50BA2E0506AEE240FF582EFB7
:1042B3001265DAC0E074171212F5D0E0F09003141F
:1042C3001251DE700302434F1216C28A128B13A8D7
:1042D30012A913741A1212F5E0687003A3E069704F
:1042E3006B780C120FFA780A121006780812100273
:1042F300A910740C1212F5AC82AD8374211212F55D
:10430300AA82AB839003141244571226E774071250
:10431300104A8038780C120FFA780A1210067808BF
:10432300121002900375120E18EE2412F582EF128A
:10433300630874231212F5AC82AD83740E1212F566
:10434300AA82AB831225C2740912104A7423121075
:104353004A026A02126F16125AF312254A22E8F031
:10436300A3E91243692212436D22F08E828F83A345
:10437300A3A3A3A3A32274F7120A63121EAE023EE1
:10438300DE74F7120A63121EC0023EDEC082C083CF
:10439300121EBA023BA174F7120A63121EC6023E32
:1043A300DE74F7120A6374091212F5E0F50878084F
:1043B300121006121ED27401023EDBC082C08312A9
:1043C3001EDE023BA1C082C083121EE4023BA17425
:1043D300F7120A63121EEA023EDE74F7120A63EA58
:1043E300FEEBFF890874016508701479001214EE5E
:1043F300902AE6E493FC7900EEFAEFFB12146402D0
:104403003EDE74F4120A6374F91210C4E9FE8A08DA
:104413008B098C0A8D0B74131212F51256589005E2
:10442300CF1251DE6027EE851882851983F074015F
:104433001212F57808121266EAF8EBF974051212F3
:10444300F51240049005CF1244571226E7023FFFAE
:10445300FB90034BE0F8A3E0F58388822274F71204
:104463000A639010B6E0F97E00800B1265C6540D06
:1044730064017001190E12465A5003E970ED023EB1
:10448300DE74F7120A639010B7E0F97E00800B1216
:1044930065C6548D64817001190E12465A5003E9A2
:1044A30070ED023EDE74F2120A63890BE975F006C1
:1044B300A4240CF508E5F01237038A0CE508250C53
:1044C300FAE5093400FB121D1C8A0C8B0DAE0CAFF0
:1044D3000DEE4F6027AC08AD097900121C80123D28
:1044E3005FE50BF0EE2508F8EF3509F98E828F832F
:1044F300A3A3A3A3A3A3A3A3A3123F81EEFAEFFB5A
:1045030002545374F6120A63EAFEEBFF121440904E
:1045130010B5E0F8E9C398400990034512565812C4
:104523001446EE2402F8EF125C68900347125B22F4
:10453300900347E004F0EEFAEFFB12144C85088277
:10454300850983E002611EC082C083790090034520
:104553008001091256588A828B83E582458370F263
:10456300023BA174F7120A63EAFEEBFFEE4F6056BB
:104573009003451251DE604E888289837A007B0066
:10458300EE65827003EF6583600FAA82AB831245E9
:10459300CCE5824583602F80E79003451245D868B8
:1045A3007002EF698E828F837008123F7590034506
:1045B3008003126A14123F81EEFAEFFB12268EEE8D
:1045C300FAEFFB121D22023EDE1245D02212494CA5
:1045D3008882898322124948EE22C082C0839003D5
:1045E300458004888289831251DE600B8882898327
:1045F300124C90EC4D70EC8A828B83E4F0A3F0E8CC
:10460300496006888289838003900345123EEE0247
:104613003BA174F7120A6390034580048A828B835B
:104623001246554B60257E0080010E12465A50EC0F
:10463300EE75F006A4FCADF0EA2CFCEB3DFDEC249A
:1046430010F582ED1246AA70E180047A007B000225
:104653003EDE125AF7EA221246B3EEC3982274F7EB
:10466300120A637D0080010D1246AFEDC3985034EA
:10467300ED75F006A4FEA8F0E8FFEA2EFEEB3FFF7F
:10468300EE2410F582EF1246AA70DCED75F006A455
:10469300FEE8FFEA2EFAEB3FFBEA2411F582EB1268
:1046A30065DA4CF0023EDE1265E669221246B32259
:1046B300126F20EB3400F583E0F82274F6120A63DC
:1046C3001215667A007B008025EAF8EBF9E875F0AD
:1046D30006A4F8ACF075F006E9A42C125ACC126DBE
:1046E300E1A3E4125BC2F0A3126DE7126F5E902A9E
:1046F300D012338240D37A007B00801C8A088B0956
:10470300740378081211F0125580A374FEF0A30409
:104713001259A2A3E4126F5E902ADA12475D40DCBD
:104723007A007B00801D8A088B09740378081211B4
:10473300F074FA126252740F126A9974FEF0A304B1
:10474300126F5E902AE012475D40DB902AE4E49307
:10475300900353F0124767023F8AE493F8C3EA9841
:10476300EB9400227CE87D037A107B009003C2E087
:10477300F9121DD62274F0120A6374F51210C48A5A
:10478300088B09890A8C0BE9A2E050147508FC75A3
:1047930009FFA2E15005D2E402483AD2E302483AC3
:1047A30012543F7003A3E06970057900024907AC16
:1047B3000A7902AA08AB09121542E960EDE50AF588
:1047C3000C780C12100679027CFE7DFFAA08AB0957
:1047D3001251BA12104AE96003024905E50AC2E51B
:1047E300F50A9003B5E07051E50AA2E6404B740365
:1047F3001212F5AC82AD83AA08AB09122610E97038
:1048030032124ADB8A0C8B0DA80CA90DE8FEE9FFD6
:10481300E8496025EE24020A0AEF123092601AEE8C
:104823002402FCEF3400FD74031212F5AA82AB8359
:1048330012248AE50AD2E5F50A900348E0F50C90C4
:104843000368E0F50EA3E0F50F780E1210027D0168
:104853007C00900348E0F9AA0EAB0F1214FA74021D
:1048630012104AE9F8900348E004F0E860030249B3
:1048730005E50AA2E55004740E80027406C0E074D4
:10488300011212F5D0E0125F348A0E8B0FAE0EAF19
:104893000FEE4F606912492512493C88828983745F
:1048A30001F07478550AA3126F26E50C126F26A344
:1048B300E508F0E509124914E4F0E50AA2E5500F12
:1048C30074031212F5AC82AD83E8240612490B8EF1
:1048D300828F83A3A374FDF0A374FFF0E50B60152F
:1048E300902AE7E493F8E50BC3985009EE241312DA
:1048F3005F07E50BF0EEFAEFFB12138680067910E3
:10490300800279C7740B8049FAE93400FB12248AC8
:104913002288828983A3A3A3A312492022125C9B2A
:10492300A322EE2417125F187401F01216BCEE24B2
:104933001A125F18EAF0A3EB22F0126F1A34001276
:10494300494622F58312494C22E0F8A3E0F9227488
:104953000D12104A7F08020D1874F6120A637A00CA
:104963007B1012642260089003D47401F0802990B4
:10497300066EE064019011077006E0FC7901800483
:10498300E0FC79037A007B00121464902ACE12496A
:104993009E7A007B101249AC023F8A1249A222E49C
:1049A30093FC740193FD227B009003C2E0F9121D76
:1049B300D02274EC120A638A088B098C0C8D0D8942
:1049C3000E74141212F512539974161212F5E0F5BF
:1049D30010A3E0F511121746E960077AFF7BFF0287
:1049E3004AD8901106E064026003024ACB7900AA18
:1049F30008AB09121548A90E12153C8A128B13AE87
:104A030012AF13EE4F7003024AB38E828F83A3A3B8
:104A1300A3A3A3E064018E828F83A3A370691256BC
:104A2300588E828F83A3A3A3A3A3A3E05418604348
:104A3300902AE5E4938E828F83A3A3A3A3F0EA6570
:104A43000C7003EB650D6014EA650A7003EB650BEC
:104A5300600AEA65107003EB6511701F781012107D
:104A630002AC0AAD0BAA0CAB0D1218427402121061
:104A73004A800890036712640CA3F074FE6A700303
:104A830074FF6B601D804EA3A3A3E0640360298EB3
:104A9300828F83A3A3A3A3A3E0640470057AFE0219
:104AA30049E08E828F83A3A3A3A3A3E064027008CB
:104AB3009003B4E064027010124ADB8B0BEA450BDF
:104AC3006006AA08AB09800DAA08AB099003491236
:104AD30044571226E7026A029003751251C0121856
:104AE300062274F7120A63EAFEEBFF121338E97029
:104AF3000AEEFAEFFB121344E96006EEFAEFFB80CD
:104B0300047AFE7BFF023EDE74F0120A638A0A8B8C
:104B13000B8C0E8D0F8909750800121746E9790071
:104B23006003024C82AA0AAB0B121548A90912159D
:104B33003C8A0C8B0DAE0CAF0DEE4F60198E828F3D
:104B430083A3A3A3A3A3E0640270559003B4E0641A
:104B5300027003024C80AA0AAB0B90034F12445716
:104B63001226E712134A8A0C8B0DA80CA90DE849EB
:104B73007003024C8088828983A3A3A3A3A3E0A22A
:104B8300E04003024C80750C01A2E150687901AC4E
:104B93000AAD0BAA0EAB0F121494E97064024C8099
:104BA3008E828F83A3A3A3A3A3E064037005750C74
:104BB3000280528E828F83A3A3A3A3A3E064016028
:104BC30003024C80900375124C908E828F83124F98
:104BD300E58A0C8B0DA80CA90DE84960D1902ADE5B
:104BE300E493FA88828983E0C39A50C2A3E0600306
:104BF300024C8080B988828983A3A3A3A3A3D2E1B3
:104C0300F0EE4F603A8E828F83A3A3A3A3A3A3E006
:104C13005418602B7508018E828F83A3A3120E187C
:104C2300750CFE750DFF780C1210027900AC0AADFD
:104C33000BAA0EAB0F12155A740412104A803E9041
:104C43000368E0650E7004A3E0650F7014902AE614
:104C5300E493FCA909AA0AAB0B121464750801803A
:104C63001CA90CAC0AAD0BAA0EAB0F121494E9707D
:104C73000C750801A909AA0AAB0B1214EEA90802C4
:104C83004957E50C2415F582E50D125F1B1259787F
:104C93002274EA120A6374F01210C48A0C8B0D8C0E
:104CA300088D0974261212F5E0F514A3E0F51575C5
:104CB30012069003F51251DE6023900375124C9097
:104CC300AA08AB091218308A108B11EA4511600D3E
:104CD3008A828B83A3E070057900024FCDE50C2413
:104CE3001DF50EE50D3400F50F850E821251CAF540
:104CF3001388828983A3A3A3E0FA88828983A3A369
:104D0300A3A3E0F9EA2400FEE439FFAA08AB0912E1
:104D130014F4850E82850F83125008E029F50BE504
:104D23000AA2E5500375120E7487550A701774189A
:104D3300550A6418600FE50C2417F582E50D12651A
:104D4300DA651260077901122472808C530A78C3E2
:104D5300EE94F8EF94FF501D7900EEFAEFFB124F3B
:104D6300D7601288828983A3A3A3A3A3A3E05418C3
:104D73006003024CDB78081210027D00124FFB1215
:104D8300104AE9F87403687003024CDBE86003021D
:104D93004E467418550A7003024EFBE50AD2E0F53D
:104DA3000AA2E45004D2E1F50AA90A125651124F9D
:104DB300D7605388828983A3A3A3A3A3A3E0541832
:104DC300604488828983A3A3A3A3A3E0640170360C
:104DD300E51045116030900375124C9088828983E9
:104DE300124FE58A0E8B0FA80EA90FE849601788AA
:104DF300828983A3E0600F851082851183A31261EA
:104E0300295003024CDBE50AF50E780E1210061248
:104E13004FEE12104AE9702B7C007D0085148285C9
:104E2300158374FFF0A3F0850C82850D83A3A3A3E0
:104E3300A3A3A3A3A3E06003124C85A90B125651AD
:104E4300121ED8851482851583E0F47003A3E0F461
:104E530060399003B4E064027003024CDB12538A9E
:104E6300E0FAA3E01244531226E7EA65087003EB65
:104E730065096003024CDBEEFAEF1244531226E796
:104E8300851482851583EAF0A3EBF07808121002EB
:104E93007D01124FFB12104AA90AEEFAEFFB12151D
:104EA300488A088B09A808A909900368E068700379
:104EB300A3E0696003024FBEEEFAEFFB12134A8AC6
:104EC300088B09A808A909E849606E88828983A329
:104ED300A3A3A3E06401600D88828983A3A3A3A392
:104EE300E064027054851882851983AC82AD83EE29
:104EF300FAEFFB1226108055900361E0600FE50A7C
:104F0300F50E780E121006124FEE12104AE50AF54E
:104F13000E780E12100679027CFE7DFFEEFAEFFB8F
:104F23001251BA12104AE96003024E468514828573
:104F3300158374FFF0A3024E8D1216BCEAFCEBFD41
:104F4300851882851983AA82AB8312248A850C82F1
:104F5300850D83A3A3A3A3A3A3A3A3E06401700F5D
:104F6300124C8574081212F5AA82AB8312248A129A
:104F73005194125DA04430F50878081210067401AC
:104F83001212F58582088583097808121002740BC2
:104F93001212F58582088583097808121002E51339
:104FA300F50878081210067900EEFCEFFD12565151
:104FB30012148E740612104A024CDB125194125FC3
:104FC3000A125008E50BF01216D4741012104A7F1F
:104FD3000E020D1812153C8A0E8B0FA80EA90FE8AE
:104FE3004922A3A3125AF7121830227901AC08AD53
:104FF30009125AEC1251BA22AC0BA913125AEC1231
:1050030014FA740222125DA8A3A3A3A32274F012BC
:105013000A6374F01210C48A0C8B0DECFAEDFB7565
:105023000F089003F51251DE60141261228A828BFD
:1050330083E58245836007A3E0700302518F125119
:105043009434001251CAF50B8882898312519DE072
:10505300FBEC2400FEE43BFF88828983A3A3125167
:105063009DA3A3E0FBECF508E43BF5098882898363
:10507300A3A3A3A3A3A3A3E0F50EE50AA2E450030D
:10508300750F10A2E550067408250FF50F748F55A0
:105093000A700FE50C2417F582E50D1265DA650F2A
:1050A3006008790112247202518F530A707800E567
:1050B3000AA2E450221251941265DA2408FCA3E0F8
:1050C3003400FD74081212F5AA82AB8312248A7885
:1050D30008E50AC2E4F50AE50AA2E550281251944C
:1050E3001265DA28F8A3E03400F9E82408FCE9346F
:1050F30000FD851882851983AA82AB8312248AE571
:105103000AC2E5F50AAC0EA90BEEFAEFFB12150085
:10511300E9F87403686075900368E06E7003A3E0B8
:105123006F605EE87054E50AF50F780F12100612EF
:1051330051AB12104AE97054780A12100674011226
:1051430012F585820C85830D780C121002740B12F4
:1051530012F585820C85830D780C121002E50BF590
:105163000A780A121006A90EAC08AD09EEFAEFFB95
:1051730012148E740612104A8012740468700D8023
:10518300B7780A1210061251AB12104A7410024972
:1051930054E50C241DF582E50D22A3A3A3E0FC88AE
:1051A300828983A3A3A3A3227901125391125F1BC4
:1051B3001251C01251BA221214B8740122E0FCA396
:1051C300E0FDAA08AB0922F5831245D0A3E0F50A56
:1051D30088828983A3A3E022900339125B5322744C
:1051E300E8120A6374F51210C4EAFEEBFF8C088D13
:1051F30009891474231212F5E0F50F74241212F5C1
:10520300E0F512A3E0F51374261212F5E0F516A3E8
:10521300E0F51774281212F5E0F50EA90F12150622
:105223008A108B1174011212F57408F0E50EA2E4D2
:1052330050037410F0E50EA2E55004E02408F08555
:105243001882851983AA82AB8312172E8A0C8B0DC1
:10525300EA450D7003025371EA2417F582EB1253EA
:10526300831216BCE50C241AF582E50D125F0A12AF
:105273003EEE74031212F5AC82AD83AA10AB111289
:105283002610E9601D12537B74031212F5A882A93C
:1052930083E50C2418F582E50D125F0AE8F0A3E913
:1052A3008024E50EA2E4501FE5106E7003E5116F34
:1052B300701512537BE50C2418F582E50D125F0A75
:1052C300E512F0A3E513F012538A125399850A826B
:1052D300F5837402F0A3E50E1253A1E50FF0EE85FA
:1052E3000A82850B83A3A3A3F0EF850A82850B8330
:1052F300A3A3A3A31253A1A3A3A3E508F0E50985E0
:105303000A82850B83A3A3A3A3A3A3F0AA10AB11C3
:105313001214F4E92514850A82850B83A3A3A3A39E
:10532300A3A3A3F0750800E50EA2E45011AC12ADDF
:1053330013E50A2408FAE50B12490D750808E50E72
:10534300A2E55014AC16AD17E50A2508F8E50B34B1
:1053530000F9E8240812490B850C82850D83A3A369
:10536300E510F0A3E511F0AA0CAB0D121386740B34
:1053730012104A7F10020D18E50C2416F582E50D74
:10538300125F1B7401F022125391125F1B22E50C72
:10539300126F21E50D22E0F50AA3E0F50B22F0855B
:1053A3000A82850B83A3A32274F2120A638A088BF1
:1053B30009ECFEEDFF890A790012543F7003A3E064
:1053C30069700479018073750B01900368E06508C7
:1053D3007004A3E06509601F750B00780B121006BB
:1053E300A90AEEFCEFFDAA08AB0912178274011299
:1053F300104AE9F50B80417900EEFAEFFB12153CF8
:10540300EA4B602B8A828B83A3A3A3A3A3A3E054B9
:1054130018601C7508FE7509FF78081210028A824D
:105423008B83A3A3120E18126D3612104A800979CA
:1054330001EEFAEFFB12141CA90B80141215488A13
:105443000C8B0DA80CA90D900368E0682212104A7A
:105453007F06020D1874F4120A6375084275090E6B
:105463007A10126A3E8B0BEA450B70031247679062
:105473000353E014F0700C902AE4E493900353F088
:105483001215547E007F00806C850882850983A3F2
:10549300A3A3A3E06059F46056E5082404F582E56C
:1054A300091264067049850882850983A3A3A3A30F
:1054B300A3E0640370197902850882850983124C7D
:1054C30090850882850983A3A312565812149485E4
:1054D3000882850983A3A3A3A3A3E06401601085C5
:1054E300088285098374FEF0A3041255B2E4F01216
:1054F30038A91236FB902AD2126B9A408C7E007F19
:105503000080391216628E088F097403780812110D
:10551300F074BA2508FC740F3509FD7AA07B1412C8
:105523001650EA4B70DD8E088F0974037808121148
:10553300F0125580126DE1E4F01238A9902ADAE4F2
:1055430093F8C3EE98EF9400501B8E088F097403F1
:1055530078081211F0125588E82407F582E91264DD
:105563000670D680A17E007F00800A1255936002E8
:1055730014F01238A9126B9740F102412B1255888F
:10558300888289832274BA2508F8740F3509F922B1
:10559300EEF8EFF9E875F006A4F8AAF075F006E95D
:1055A300A42AF9745A28F582740F39F583E022127C
:1055B30055B9A3A3A322F0850882850983A3A32257
:1055C30074F7120A6374E11210C4ECFEEDFF750860
:1055D30000EE4F60728A828B83E0241C12643712C0
:1055E30051DE60638A828B8312565885188285192F
:1055F30083AC82AD83EA241BF582EB126308EA24B1
:105603001CF582EB1256541216A4740B1212F512E7
:10561300565C7003A3E069702E74021212F5E06405
:10562300017024741D1212F5124457E064017017BF
:10563300741D1212F5124459A3A3E0F88E828F83CE
:10564300E0687003750801A908741F023EDB12535A
:10565300913400F583125AF722123050E068227415
:10566300F4120A63E97024790090034D124457122F
:1056730026E78A0A8B0BAE0AAF0B74FE6E700374B7
:10568300FF6F701A902AE1E4936013790190034D40
:105693001244571226E78A0A8B0BAE0AAF0B121677
:1056A300F20239FD74F6120A6374F31210C412265F
:1056B3006A8A088B09AE08AF09900368E06E70032D
:1056C300A3E06F60E91216C8EA6E7002EB6F60DE4A
:1056D300EEFAEFFB121746E970D4EE4F60D085184F
:1056E30082851983E4F0041212F5EEF0A3EF12574A
:1056F3000AE970BA74FE6E700374FF6F60B0EEFA5D
:10570300EFFB740D023F8712400C12256E22C082FC
:10571300C0831216F2023BA17F0A020D1874F21223
:105723000A63EAFEEBFF8C0A8D0B8908740E1212D2
:10573300F5E0F50974FC6E700374FF6F7005790072
:1057430002545379001215488A0C8B0DAE0CAF0D21
:10575300900368E06E7003A3E06F7006E509A2E6AC
:1057630050DCA909126C24706179007AFE7BFF1268
:105773006C247056741855097003025857780079D1
:1057830000800312324A902AD21232414003025857
:1057930057E8FAE9FBEA75F007A4FAACF075F007ED
:1057A300EBA42CFB74482AF582740E3BF583E0547A
:1057B3001870D0E875F007A4F8AAF075F007E9A40B
:1057C3002AF9744228F8740E39F988828983A3A3CD
:1057D300A3A3A3A3E0541860097418550970030226
:1057E300574188828983EEF0A3EFF074FE650A7057
:1057F3000474FF650B600312597E88828983A3A317
:10580300A3A3A3A3E509F0A2E0500D88828983A393
:10581300A3A3A3A3A3D2E2F07401650888828983BA
:10582300A3A3A3A3A3703874011259A2E054186070
:1058330028902AE5E49388828983A3A3A3A312591A
:105843006C1218308B0DEA450D6003025741780046
:10585300790080397902025743900367E080D7E0EB
:105863006401700302574188828983A3A3A3A3A37E
:10587300A3E054186007902AE5E49380049003663C
:10588300E0124914E508F002574112324A902ADB2C
:10589300E493FAC3E89AE9940040030257417A007B
:1058A3007B00804BEAFCEBFDEC75F007A4FCAEF04B
:1058B30075F007EDA42EFD74442CF582740E3DF5AE
:1058C30083125F23E8FCE9FDEC75F017A4FC85F077
:1058D3000975F017EDA42509FD74D22CF582740C1B
:1058E3003DF583E06E7003A3E06F609E12377E90F8
:1058F3002AD212370B40AD12499EEC6A7002ED6B4F
:105903007088E875F017A4F8AAF075F017E9A42ACF
:10591300F974D228FE740C39FF7C177D007900EEF0
:10592300FAEFFB121C808E828F83125984900375C9
:1059330012595EA3A3A3A3A3A3E8F0A3E912596496
:105943007401F0EE240E125F07740112598C1208D1
:105953000BEE240D125F07E8025889123D70A3A3D2
:1059630022F0EE240F125F1822F0125975AA0AAB27
:105973000B22900375E0FCA3E0FD2288828983A3B8
:10598300A3E50AF0A3E50BF022F012599122902A25
:10599300DEE4932401F8E43400F97A027B00221256
:1059A3004920A32274ED120A638A088B09890E1217
:1059B3005AD540057905025AA3121F20AA08AB093C
:1059C300125BA7902AD0125AA6650A7003E9650BE9
:1059D30070077AFE7BFF125BA7902AD0E4125AAEBF
:1059E300E50A98E50B994003025AA1125AB26012D4
:1059F300E50A75F006A4F875F006E50B125AFD12D8
:105A03001D22E50E6018E50A75F006A4F8AAF075E4
:105A1300F006E50B125B29701A7901025AA3E50A15
:105A230075F006A4F8AAF075F006E50B125B0AE41C
:105A3300F0A3F0E50A75F006A4F8AAF075F006E500
:105A43000B125ACAA3125DB688828983A3AA82ABBA
:105A530083125B188A828B83E0603F125AB2603AEA
:105A63008E108F117512007810120FFEE50EC333DE
:105A7300FCE433FDE50A75F006A4F50AA8F075F019
:105A830006E50BA428F50B745E250AF582740F3521
:105A93000B12565612371C12104A790080027907EE
:105AA300026C3A1233A3E822902AC81265C122E598
:105AB3000A75F006A4F8AAF075F006E50B125B056B
:105AC300F8A3E0F9E84922A42A125C5E888289835C
:105AD300A322ECFEEDFF902ADCE493F8E9C39822BD
:105AE300F583125AF7121D2222E50C126F21E50DE0
:105AF3003400F583E0FAA3E0FB22125B05FAA3E08E
:105B0300FB22125B0AE022A42AF9745E28F5827450
:105B13000F39F58322E50EF0901108125B2222E083
:105B230088828983F022125C82F50CE93400F50D3A
