:10078200202057656C636F6D652020504820202023
:1007920000446574656374696F6E20737973746560
:0207A2006D00E8
:0700030005120000000000DF
:10072A007FA7EFD394007480948040217EABEED3F0
:10073A0094007480948040127D10EDD394007480EC
:0D074A00948040031D80F31E80E41F80D5C5
:01075700227F
:1005F1001207A4AC10AD11E412032AE4FBFA79A0AE
:100601007840120106E4FBFA7980784312020F8FD9
:100611000F8E0E8D0D8C0C7F4E7E627DBC7CC0AB2F
:100621000FAA0EA90DA80C1201067B7F7A6A79AD7B
:1006310078411200158F0B8E0A8D098C08E4FFFE9C
:10064100FDFCAB0BAA0AA909A8081202AC60025072
:1006510009E4F50BF50AF509F508E4FFFE7D607C78
:1006610041AB0BAA0AA909A8081202AC400BE4F598
:0A0671000BF50A75096075084122B7
:10049600E4FFFE7DC87C42AB0BAA0AA909A8081294
:1004A6000106120363AB07AA067C037DE81203FD6F
:1004B600EF2430F5127C037DE8AF03AE021203FD94
:1004C6007E007F64CFCDCFCECCCE1203FDEF24309D
:1004D600F51375142EE4FFFE7DC87C42AB0BAA0A09
:1004E600A909A808120106120363AB07AA067C0035
:1004F6007D641203FD7E007F0ACFCDCFCECCCE1217
:1005060003FDEF2430F5157C007D0AAF03AE021221
:1005160003FDED2430F5167B507D01E4FF1207B98B
:100526007B487D017F011207B97B3D7D017F021269
:1005360007B9AB127D017F031207B9AB137D017FAB
:10054600041207B9AB147D017F051207B9AB157DFF
:0F055600017F061207B9AB167D017F070207B9B7
:10067B00758902758C14E4F58A75A882D28C7590F5
:10068B003F1206B87BFF7A077982E4FDFF1206F171
:10069B007BFF7A0779937D01E4FF1206F112072A9B
:0D06AB007F011207F41205F112049680F889
:03000B00020835B3
:03083500B2933249
:1007A400C292D292C2923091FDD290AFB075100035
:0507B4008F11C290222C
:040758007F057E009B
:10075C00E4F520F5218E208F21D3E5219400E520AE
:10076C00940040117FFF7E001207CEE52115217009
:05077C00E8152080E4F7
:010781002255
:1007CE00E4FDFCC3ED9FEC9E5008000DBD00010C36
:0207DE0080F1A8
:0107E00022F6
:1006B800E4F5A0D2827F05FE12075C7F381207F4AA
:1006C8001207587F381207F41207587F381207F4B8
:1006D8007F381207F47F081207F47F011207F47FAE
:0906E800061207F47F0C0207F46E
:05082100C281C280222B
:05082600D281C2802216
:05082B00C281D2802211
:1007F4008F2012081440FB8520A012082102083023
:100804008F1F12081440FB851FA012082B0208300A
:05083000C282D2822209
:1007E1008F1FED6003431F40431F80120758AF1F47
:0307F1000207F408
:1007B9008F1C8D1D8B1E120758AD1DAF1C1207E132
:0507C900AF1E02080450
:1006F1008F178D188B198A1A891BAB19AA1AA91B76
:100701001203E46023120758AF170517AB19AA1A91
:10071100A91B1203E4FBAD181207B97401251BF5DF
:090721001BE4351AF51A80D222FE
:0D08140075A0FF120826120830E5A033225F
:10000E000203CFE86480F8E933E83360110460F04E
:10001E00ED33EC337009E8FCE9FDEAFEEBFF220458
:10002E0060DED3EB9FEA9EE99DE8C2E78CF0C2F753
:10003E0095F0400CE8CCF8E9CDF9EACEFAEBCFFB1F
:10004E0012039A85D0F05804700320D5B3E80470DB
:10005E00075002B2D50203D992D5EC0460F7E4CC76
:10006E00C0E0C398F8603B94186008400DD0E0FBE8
:10007E000203B1E4FBFAC9FC8028E830E406E4C9C7
:10008E00FBE4CAFCE830E305E4C9CACBFCE854073C
:10009E006010F8C3E913F9EA13FAEB13FBEC13FC47
:1000AE00D8F130F52FC3E49CFCEF9BFFEE9AFEEDEA
:1000BE0099FDD0E0FBEF4E4D4C701222DB03020394
:1000CE00D6EC2CFCEF33FFEE33FEED33FDED30E7D7
:1000DE00EB0203B1EF2BFFEE3AFEED39FDD0E0FB64
:1000EE0050130BBB00030203D9ED13FDEE13FEEF0D
:0800FE0013FFEC13FC0203B137
:10010600EC4D6011E8497017ED33EC3304600DE4F3
:10011600FCFFFEFD22E933E8330470F80203CF1238
:10012600039A58046009E4CC248150062850090239
:1001360003D92840030203D6C0E0EB4A7044B980D5
:1001460006D0E0FB0203C5EF4E701CBD8008EBFF36
:10015600EAFEE9FD80EBE98DF0A4FEE5F00201EF91
:10016600E9CDF9EAFEEBFFEF89F0A4FCE5F0CE89D4
:10017600F0A42EFFE435F0CD89F0A42DFEE435F091
:100186008067EF4E7005BD80D780C3EF8BF0A4ACBF
:10019600F0EE8BF0A42CFCE435F0F8EF8AF0A42CFA
:1001A600E5F038FCE433CB8DF0A42CFCE5F03BF80D
:1001B600EE8AF0A42CFCE5F038F8E433CF89F0A4FD
:1001C6002CFCE5F038CF3400CE89F0A42FFFE5F003
:1001D6003EFEE433C98DF0A42EFEE5F039CD8AF05B
:1001E600A42FFFE5F03EFEE43DFD33D0E0FB5007D3
:1001F6000BBB000F0203D9EC2CFCEF33FFEE33FEF2
:06020600ED33FD0203B11F
:10020C000203D9EC5D046005E8590470030203CFC6
:10021C0012039A580460F6EC4860F2EC7004FDFE90
:10022C00FF22C860DB2481C85009C39860025006C5
:10023C000203D69850CAF582E9294B4A7005AB8265
:10024C000203C575F0007C1A7880C3EF9BEE9AED23
:10025C0099400DC3EF9BFFEE9AFEED99FDE842F03D
:10026C00DC23ACF0D0E0FFD0E0FED0E0FDAB822090
:10027C00E7101BEB60BAEC2CFCEF33FFEE33FEED1A
:10028C0033FD0203B1E803F830E705C0F075F00068
:10029C00EF2FFFEE33FEED33FD40B830E7C280AAFE
:1002AC0074F8CC6480CCC86480C8F58204604FC3F9
:1002BC00EB9FF5F0EA9E42F0E99D42F0E89C45F098
:1002CC00603C501DE5825FFFE582D313CB5BCBF422
:1002DC002B5582FB50280ABA002409B9002008804B
:1002EC001DE5825BFBE582D313CF5FCFF4C3132FE5
:1002FC005582FF50090EBE00050DBD00010CC3EB6D
:10030C009FF5F0EA9E42F0E99D42F0E89C45F060D2
:09031C0007CC4820E701B3EC22F4
:1003250075F020800E75F010800575F0087D007E53
:10033500007F003392D530D503120433EC334010DF
:10034500EF33FFEE33FEED33FDEC33FCD5F0ED225C
:0E035500E5F0247EA2D513CC92E7CDCEFF2298
:10036300EDD2E7CD33EC3392D524814006E4FFFE92
:10037300FDFC22FCE4CFCECDCC24E0501174FF80F1
:10038300EDC3CC13CCCD13CDCE13CECF13CF04708E
:07039300F030D5DE02043357
:10039A00E9D2E7C933E833F892D5EDD2E7CD33ECA9
:0703AA0033FC5002B2D52222
:1003B100EC30E7100FBF000C0EBE00080DBD0004AD
:1003C1000BEB6014A2D5EB13FCED92E7FD2274FF59
:1003D100FCFDFEFF22E480F8A2D574FF13FC7D80B2
:0303E100E480EFC6
:0300000002056591
:0C056500787FE4F6D8FD7581210205AC1A
:1003E400BB010689828A83E0225002E722BBFE0217
:0903F400E32289828A83E493224A
:1003FD00C2D5EC30E709B2D5E4C39DFDE49CFCEE1B
:10040D0030E715B2D5E4C39FFFE49EFE120441C34D
:10041D00E49DFDE49CFC800312044130D507C3E448
:06042D009FFFE49EFE2289
:0E043300C3E49FFFE49EFEE49DFDE49CFC22DA
:1005710002067BE493A3F8E493A34003F68001F21F
:1005810008DFF48029E493A3F85407240CC8C3338B
:10059100C4540F4420C8834004F456800146F6DF5A
:1005A100E4800B0102040810204080900003E47EE7
:1005B100019360BCA3FF543F30E509541FFEE4934F
:1005C100A360010ECF54C025E060A840B8E493A316
:1005D100FAE493A3F8E493A3C8C582C8CAC583CA41
:1005E100F0A3C8C582C8CAC583CADFE9DEE780BEF9
:01000A0000F5
:10044100BC000BBE0029EF8DF084FFADF022E4CC9F
:10045100F875F008EF2FFFEE33FEEC33FCEE9DEC68
:10046100984005FCEE9DFE0FD5F0E9E4CEFD22EDAE
:10047100F8F5F0EE8420D21CFEADF075F008EF2FF8
:10048100FFED33FD4007985006D5F0F222C398FDE9
:050491000FD5F0EA2286
:00000001FF
