:0300000002057581
:0C057500787FE4F6D8FD7581230205BCF8
:0D090C00007F087E017DF3DDFEDEFCDFFADA
:0109190022BB
:0407CC007F057E0027
:1007D000E4F51EF51F8E1E8F1FD3E51F9400E51E46
:1007E000940040117FFF7E001208A3E51F151F70C3
:0507F000E8151E80E485
:0107F50022E1
:1008A300E4FDFCC3ED9FEC9E5008000DBD00010C60
:0208B30080F1D2
:0108B5002220
:10069E00E4F580D2A77F05FE1207D07F381208EC52
:1006AE001207CC7F381208EC1207CC7F381208ECF8
:1006BE007F381208EC7F081208EC7F011208EC7FDD
:0906CE00061208EC7F0C0208EC96
:05093900C2A6C2A522C8
:05093E00D2A6C2A522B3
:05094300C2A6D2A522AE
:1008EC008F1E12091A40FB851E8012093902094815
:1008FC008F1D12091A40FB851D80120943020948FD
:05094800C2A7D2A722A6
:1008B6008F1DED6003431D40431D801207CCAF1D05
:0308C6000208EC39
:0A0927008B1C1208B6AF1C0208FC7E
:1006D7008F178D188B198A1A891BAB19AA1AA91B90
:1006E7001203D960231207CCAF170517AB19AA1A43
:1006F700A91B1203D9FBAD181209277401251BF595
:090707001BE4351AF51A80D22218
:0D091A007580FF12093E120948E580332266
:1007A0008F218D228B2312088DAF21120659200034
:1007B00002C322AF22120659200002C322AF231225
:0C07C0000659200002C3221208DBD322DD
:10083D008F178D1812088DAF17120659200002C39D
:10084D0022AF18120659200002C3221208DBD32250
:02081B008F1735
:10081D0012088DE51704FF1206592000037F0022F0
:0F082D001207738F18D2011208751208DBAF186B
:01083C002299
:1007F600202057656C636F6D6520205048202000CF
:10080600446574656374696F6E2073797374656D7E
:050816000050483D0008
:10085D0002100000040C0000000005120000000052
:07086D000004080000000078
:100710007D407F9012083D7F9012081B7510008F5E
:1007200011AC10AD11EC12031FE4FBFA79A0784074
:100730001200FBE4FBFA797F78431202048F0B8EE0
:060740000A8D098C08225D
:10048B007F4E7E627DBC7CC0AB0BAA0AA909A80873
:10049B001200FB7B7F7A6A79AD784112000A8F0FCD
:1004AB008E0E8D0D8C0CE4FFFEFDFCAB0FAA0EA97E
:1004BB000DA80C1202A160025009E4F50FF50EF520
:1004CB000DF50CE4FFFE7D607C41AB0FAA0EA90D70
:1004DB00A80C1202A1400BE4F50FF50E750D60751B
:1004EB000C41E4FFFE7DC87C42AB0FAA0EA90DA800
:1004FB000C1200FB120358AB07AA067C037DE81213
:10050B0003F2EF2430F5127C037DE8AF03AE021249
:10051B0003F27E007F64CFCDCFCECCCE1203F2EFB1
:10052B002430F51375142EE4FFFE7DC87C42AB0F0F
:10053B00AA0EA90DA80C1200FB120358AB07AA06B2
:10054B007C007D641203F27E007F0ACFCDCFCECC30
:10055B00CE1203F2EF2430F5157C007D0AAF03AE0B
:0A056B00021203F2ED2430F516220F
:10074600AB12E4FD7F03120927AB13E4FD7F04120D
:100756000927AB14E4FD7F05120927AB15E4FD7FDD
:0D07660006120927AB16E4FD7F07020927E4
:1008C900759850758920758DFD758BFDE4F587D276
:0208D9008E226D
:080931008F993099FDC2992253
:1006010012069E1208C97BFF7A0779F6E4FDFF12F4
:1006110006D77BFF7A0879067D01E4FF1206D7121F
:10062100090C7F011208EC7BFF7A087917E4FDFFC2
:100631001206D712071012048B120746E4FDFC7450
:10064100122DF8E6FF1209310DBD00010CED640514
:080651004C70EC12090C80DB77
:10088D00D29700D2960000000000C2970000000031
:06089D0000C296000022DB
:1008DB00C29700D2960000000000D29700000000E3
:0108EB0022EA
:10065900E4FEEEC39408748094805020A806EF0845
:100669008002C333D8FC30E704D2978002C29700D6
:10067900D2960000000000C2960E80D60000D297E4
:100689000000D296000000309704C2008002D20018
:04069900C296000005
:01069D00223A
:10077300E4FFD297FEEEC39408748094805019006E
:10078300C2960000000000D2960000EF25E0FF3083
:0C07930097010F00000E80DDC2960000F0
:01079F002237
:10087500200104C2978002D297000000D2960000A2
:08088500000000C296000022F1
:100003000203C4E86480F8E933E83360110460F064
:10001300ED33EC337009E8FCE9FDEAFEEBFF220463
:1000230060DED3EB9FEA9EE99DE8C2E78CF0C2F75E
:1000330095F0400CE8CCF8E9CDF9EACEFAEBCFFB2A
:1000430012038F85D0F05804700320D5B3E80470F1
:10005300075002B2D50203CE92D5EC0460F7E4CC8C
:10006300C0E0C398F8603B94186008400DD0E0FBF3
:100073000203A6E4FBFAC9FC8028E830E406E4C9DD
:10008300FBE4CAFCE830E305E4C9CACBFCE8540747
:100093006010F8C3E913F9EA13FAEB13FBEC13FC52
:1000A300D8F130F52FC3E49CFCEF9BFFEE9AFEEDF5
:1000B30099FDD0E0FBEF4E4D4C701222DB0302039F
:1000C300CBEC2CFCEF33FFEE33FEED33FDED30E7ED
:1000D300EB0203A6EF2BFFEE3AFEED39FDD0E0FB7A
:1000E30050130BBB00030203CEED13FDEE13FEEF23
:0800F30013FFEC13FC0203A64D
:1000FB00EC4D6011E8497017ED33EC3304600DE4FF
:10010B00FCFFFEFD22E933E8330470F80203C4124E
:10011B00038F58046009E4CC24815006285009024F
:10012B0003CE2840030203CBC0E0EB4A7044B980F6
:10013B0006D0E0FB0203BAEF4E701CBD8008EBFF4C
:10014B00EAFEE9FD80EBE98DF0A4FEE5F00201E4A7
:10015B00E9CDF9EAFEEBFFEF89F0A4FCE5F0CE89DF
:10016B00F0A42EFFE435F0CD89F0A42DFEE435F09C
:10017B008067EF4E7005BD80D780C3EF8BF0A4ACCA
:10018B00F0EE8BF0A42CFCE435F0F8EF8AF0A42C05
:10019B00E5F038FCE433CB8DF0A42CFCE5F03BF818
:1001AB00EE8AF0A42CFCE5F038F8E433CF89F0A408
:1001BB002CFCE5F038CF3400CE89F0A42FFFE5F00E
:1001CB003EFEE433C98DF0A42EFEE5F039CD8AF066
:1001DB00A42FFFE5F03EFEE43DFD33D0E0FB5007DE
:1001EB000BBB000F0203CEEC2CFCEF33FFEE33FE08
:0601FB00ED33FD0203A636
:100201000203CEEC5D046005E8590470030203C4E7
:1002110012038F580460F6EC4860F2EC7004FDFEA6
:10022100FF22C860DB2481C85009C39860025006D0
:100231000203CB9850CAF582E9294B4A7005AB827B
:100241000203BA75F0007C1A7880C3EF9BEE9AED39
:1002510099400DC3EF9BFFEE9AFEED99FDE842F048
:10026100DC23ACF0D0E0FFD0E0FED0E0FDAB82209B
:10027100E7101BEB60BAEC2CFCEF33FFEE33FEED25
:1002810033FD0203A6E803F830E705C0F075F0007E
:10029100EF2FFFEE33FEED33FD40B830E7C280AA09
:1002A10074F8CC6480CCC86480C8F58204604FC304
:1002B100EB9FF5F0EA9E42F0E99D42F0E89C45F0A3
:1002C100603C501DE5825FFFE582D313CB5BCBF42D
:1002D1002B5582FB50280ABA002409B90020088056
:1002E1001DE5825BFBE582D313CF5FCFF4C3132FF0
:1002F1005582FF50090EBE00050DBD00010CC3EB78
:100301009FF5F0EA9E42F0E99D42F0E89C45F060DD
:0903110007CC4820E701B3EC22FF
:10031A0075F020800E75F010800575F0087D007E5E
:10032A00007F003392D530D503120428EC334010F5
:10033A00EF33FFEE33FEED33FDEC33FCD5F0ED2267
:0E034A00E5F0247EA2D513CC92E7CDCEFF22A3
:10035800EDD2E7CD33EC3392D524814006E4FFFE9D
:10036800FDFC22FCE4CFCECDCC24E0501174FF80FC
:10037800EDC3CC13CCCD13CDCE13CECF13CF047099
:07038800F030D5DE0204286D
:10038F00E9D2E7C933E833F892D5EDD2E7CD33ECB4
:07039F0033FC5002B2D5222D
:1003A600EC30E7100FBF000C0EBE00080DBD0004B8
:1003B6000BEB6014A2D5EB13FCED92E7FD2274FF64
:1003C600FCFDFEFF22E480F8A2D574FF13FC7D80BD
:0303D600E480EFD1
:10058100020601E493A3F8E493A34003F68001F289
:1005910008DFF48029E493A3F85407240CC8C3337B
:1005A100C4540F4420C8834004F456800146F6DF4A
:1005B100E4800B010204081020408090085DE47E75
:1005C100019360BCA3FF543F30E509541FFEE4933F
:1005D100A360010ECF54C025E060A840B8E493A306
:1005E100FAE493A3F8E493A3C8C582C8CAC583CA31
:1005F100F0A3C8C582C8CAC583CADFE9DEE780BEE9
:010874000083
:1003D900BB010689828A83E0225002E722BBFE0222
:0903E900E32289828A83E4932255
:1003F200C2D5EC30E709B2D5E4C39DFDE49CFCEE26
:1004020030E715B2D5E4C39FFFE49EFE120436C363
:10041200E49DFDE49CFC800312043630D507C3E45E
:060422009FFFE49EFE2294
:0E042800C3E49FFFE49EFEE49DFDE49CFC22E5
:10043600BC000BBE0029EF8DF084FFADF022E4CCAA
:10044600F875F008EF2FFFEE33FEEC33FCEE9DEC73
:10045600984005FCEE9DFE0FD5F0E9E4CEFD22EDB9
:10046600F8F5F0EE8420D21CFEADF075F008EF2F03
:10047600FFED33FD4007985006D5F0F222C398FDF4
:050486000FD5F0EA2291
:00000001FF
