:020000040800F2
:10000000B005002001010008CD1B0008CF1B00082F
:10001000D31B0008D71B0008DB1B000800000000F2
:10002000000000000000000000000000DF1B0008CE
:10003000E11B000800000000E31B0008E51B0008AE
:100040001B0100081B0100081B0100081B01000820
:100050001B0100081B0100081B0100081B01000810
:100060001B0100081B0100081B0100081B01000800
:100070001B0100081B0100081B0100081B010008F0
:100080001B0100081B0100081B0100081B010008E0
:100090001B0100081B0100081B0100081B010008D0
:1000A0001B0100081B0100081B0100081B010008C0
:1000B0001B0100081B0100081B0100081B010008B0
:1000C0001B0100081B0100081B0100081B010008A0
:1000D0001B010008E71B0008071C00081B010008A3
:1000E0001B0100081B0100081B010008DFF80CD0F1
:1000F00002F04CFB00480047EB190008B005002057
:100100000648804706480047FEE7FEE7FEE7FEE7B1
:10011000FEE7FEE7FEE7FEE7FEE7FEE70302000874
:10012000ED0000080CB50020019000906C480068BC
:1001300040F480306A49086000BF6948006800F4F4
:10014000003000900198401C0190009818B9019867
:10015000B0F5A06FF1D16248006800F4003010B132
:100160000120009001E0002000900098012843D178
:100170005C48006840F010005A4908600846006872
:1001800020F0030008600846006840F002000860A4
:1001900053484068524948600846406848600846ED
:1001A000406840F4806048600846406820F47C1055
:1001B00048600846406840F4E81048600846006817
:1001C00040F08070086000BF4548006800F0007093
:1001D0000028F9D04248406820F0030040494860B8
:1001E0000846406840F00200486000BF3C48406854
:1001F00000F00C000828F9D10CBD10B5FFF792FFF4
:1002000010BD10B53648006840F001003449086060
:10021000084640683449084031494860084600684B
:10022000324908402E4908600846006820F48020C2
:1002300008600846406820F4FE0048604FF41F0044
:100240008860FFF7DAFF4FF000602949086010BDB1
:1002500010B5002100200022214B5B6803F00C0147
:1002600021B1042906D0082928D107E0214B224CCE
:10027000236027E01F4B204C236023E0184B5B6872
:1002800003F47010164B5B6803F48032022303EB17
:10029000904022B9194B4343174C23600DE0104B9B
:1002A0005B6803F4003323B1144B4343124C2360C7
:1002B00003E0104B4343104C236003E00D4B0E4C06
:1002C000236000BF00BF064B5B68C3F303130C4CF5
:1002D000E15C094B1B68CB40074C236010BD00005C
:1002E00000100240002002400000FFF8FFFFF6FE71
:1002F00008ED00E000127A000000002000093D0037
:100300000400002010B50446FA48844208D10121B7
:10031000401501F081F80021601501F07DF817E02B
:10032000F548844208D10121001501F075F800213B
:10033000201501F071F80BE0F048844208D101214A
:10034000C80301F069F800214FF4004001F064F89F
:1003500010BD30B50246002000235068E84C204014
:100360000D790C6844EA0524204350609068E54C00
:100370002040D1E902542C434D7944EA45042043FE
:100380009060D06A20F470000C7C641EE4B22343B9
:1003900040EA0350D06230BD00210160017141711B
:1003A0008160C16001210174704721B1826842F00F
:1003B0000102826003E0826822F0010282607047DD
:1003C00021B1826842F48072826003E0826822F484
:1003D00080728260704710B50023CBB21AB14468B6
:1003E0001C43446002E044689C43446010BD816843
:1003F00041F0080181607047014600208A6802F0E0
:1004000008020AB1012000E000207047816841F035
:10041000040181607047014600208A6802F00402EE
:100420000AB1012000E00020704721B1826842F447
:10043000A002826003E0826822F4A002826070471A
:10044000014600208A6802F480020AB1012000E01F
:100450000020704710B50A4600210023416821F4AE
:100460006041531E41EA4331416010BD21B14268F1
:1004700042F40062426003E0426822F4006242609B
:100480007047F0B504460D4600200021092D11DD0E
:10049000E068A5F10A0606EB4607072606FA07F10B
:1004A0008843A5F10A0606EB460603FA06F108435F
:1004B000E0600CE0206905EB4507072606FA07F126
:1004C000884305EB450603FA06F108432061072A35
:1004D0000FDA606B561E06EB86071F2606FA07F139
:1004E0008843561E06EB860605FA06F1084360634C
:1004F00022E00D2A0FDA206BD61F06EB86071F2697
:1005000006FA07F18843D61F06EB860605FA06F1C0
:100510000843206310E0E06AA2F10D0606EB8607AF
:100520001F2606FA07F18843A2F10D0606EB8606A0
:1005300005FA06F10843E062F0BD21B1826842F499
:100540008012826003E0826822F480128260704729
:100550000146C86C80B2704766484C3000687047EE
:1005600021B1426842F48062426003E0426822F4B2
:1005700080624260704721B1426842F4805242601A
:1005800003E0426822F48052426070470A4600212C
:10059000816821F4E04111438160704721B1826894
:1005A00042F40042826003E0826822F400428260EA
:1005B000704721B1826842F40212826003E08268CF
:1005C00022F4021282607047014600208A6802F419
:1005D00000120AB1012000E000207047F0B5044687
:1005E0001546002000220026092911DDE068A1F14E
:1005F0000A0707EB470C072707FA0CF29043A1F113
:100600000A0707EB470703FA07F21043E0600CE024
:10061000206901EB410C072707FA0CF2904301EB2C
:10062000410703FA07F210432061A06BC0F30156A3
:10063000EF1C06F1010CA7EB0C0707EB870C1F273B
:1006400007FA0CF29043EF1C06F1010CA7EB0C0724
:1006500007EB870701FA07F21043A063F0BD10B55E
:100660000A4600210023816B21F44011531E41EA08
:100670000351816310BD08B5002300930090009BD7
:100680000B440093009B1A6008BD08B50246002089
:100690000090009201F12800009B184400900098FF
:1006A000006880B208BD0A4600214168164B194017
:1006B0001143416070474162826270470A460021DF
:1006C000416821F01F0111434160704740B1094961
:1006D0000831096841F40001064A0832116007E058
:1006E00004490831096821F40001024A0832116006
:1006F000704700000024014000280140003C0140F8
:10070000FFFEF0FFFDF7F1FFFFFD3FFF0246002077
:1007100013680B400BB1012000E000207047CA4372
:100720000260704770B502460020002300240B12BF
:100730005568CEB205EA060415681D4015B10CB126
:10074000012000E0002070BD00220A12D3430360A4
:100750007047000001684FF6FE72114001600021F1
:10076000016041608160C1608D49884208D18C4937
:100770000839496841F00F01894A083A51608AE016
:1007800087491431884208D185490839496841F0C0
:10079000F001834A083A51607DE08149283188425E
:1007A00008D17F490839496841F470617C4A083AA8
:1007B000516070E07A493C31884208D17849083963
:1007C000496841F47041764A083A516063E07449DF
:1007D0005031884208D172490839496841F4702182
:1007E0006F4A083A516056E06D496431884208D139
:1007F0006B490839496841F47001694A083A516007
:1008000049E067497831884208D165490839496823
:1008100041F07061624A083A51603CE061498842A7
:1008200006D1011F096841F00F01021F116032E07B
:100830005C491431884208D15A49091F096841F0BE
:10084000F001584A121F116025E0564928318842AC
:1008500008D15449091F096841F47061514A121FB7
:10086000116018E04F493C31884208D14D49091FB9
:10087000096841F470414B4A121F11600BE049496D
:100880005031884207D14749091F096841F4702156
:10089000444A121F1160704710B50022026847F6E3
:1008A000F0739A430C6A8B6823430C6923434C69A9
:1008B00023438C692343CC6923434C6A23438C6ACA
:1008C00023431A430260CB6843600B6883604B6824
:1008D000C36010BD0021016041608160C1600161A1
:1008E00041618161C161016241628162704721B1F0
:1008F000026842F00102026004E002684FF6FE73F3
:100900001A40026070471AB103680B43036002E0AB
:1009100003688B4303607047416070470146486835
:1009200080B2704701460020002201F080531BB1C5
:100930001C4B083B1A6802E0194B083B1A6802EA94
:1009400001030BB1012000E00020704700F080514E
:1009500019B11449091F086002E0114908394860BB
:10096000704701460020002201F080531BB10D4B5F
:10097000083B1A6802E00A4B083B1A6802EA0103C6
:100980000BB1012000E00020704700F0805119B148
:100990000449091F086002E00149083948607047AE
:1009A000080002400804024010B50446CC488442C6
:1009B00008D10121042000F02FFD0021042000F0C7
:1009C0002BFD46E0C748844208D10121082000F0F1
:1009D00023FD0021082000F01FFD3AE0C2488442B8
:1009E00008D10121102000F017FD0021102000F097
:1009F00013FD2EE0BD48844208D10121202000F0E3
:100A00000BFD0021202000F007FD22E0B8488442C1
:100A100008D10121402000F0FFFC0021402000F01F
:100A2000FBFC16E0B348844208D10121802000F08D
:100A3000F3FC0021802000F0EFFC0AE0AE48844285
:100A400007D10121801500F0E7FC0021A01500F07E
:100A5000E3FC10BD10B50121084600F0DDFC0021CB
:100A6000012000F0D9FC10BD2DE9F041024600251F
:100A70000026002000230024002791F803C00CF07A
:100A80000F0591F803C00CF0100CBCF1000F03D05F
:100A900091F802C04CEA050591F800C0BCF1000FC6
:100AA00031D0146800202BE04FF0010C0CFA00F359
:100AB000B1F800C00CEA03069E4220D183004FF03B
:100AC0000F0C0CFA03F7BC4305FA03FC4CEA0404D0
:100AD00091F803C0BCF1280F06D14FF0010C0CFABD
:100AE00000FCC2F814C00AE091F803C0BCF1480F42
:100AF00005D14FF0010C0CFA00FCC2F810C0401CEC
:100B00000828D1D31460B1F800C0BCF1FF0F34DD68
:100B1000546800202EE000F1080C4FF0010808FA9C
:100B20000CF3B1F800C00CEA03069E4221D1830009
:100B30004FF00F0C0CFA03F7BC4305FA03FC4CEA28
:100B4000040491F803C0BCF1280F05D100F1080C92
:100B500008FA0CF8C2F8148091F803C0BCF1480FF1
:100B600007D100F1080C4FF0010808FA0CF8C2F8A0
:100B70001080401C0828CED35460BDE8F0814FF6A9
:100B8000FF710180022181700421C170704702460B
:100B9000002093680B400BB1012000E0002070475B
:100BA0000146886880B2704702460020D3680B4037
:100BB0000BB1012000E0002070470146C86880B2F8
:100BC000704701617047416170470AB1016100E0FF
:100BD00041617047C16070474FF480320A438261BF
:100BE0008161826182698269704702460020434BBD
:100BF00018684FF68073184040EA021008433F4BD4
:100C0000186070473E49C8617047F0B50A46002336
:100C100000240021002500F00046B6F1004F02D16B
:100C2000364EF16901E0354E7168C0F3034583B279
:100C300000F44016B6F5401F08D121F070612F4E28
:100C4000766826F070662D4F7E6012E000F4801604
:100C5000B6F5801F06D1032606FA05F4A14341F03C
:100C6000706106E0460D360103FA06F6B14341F025
:100C7000706122B1460D360103FA06F6314300F0E9
:100C80000046B6F1004F02D11C4EF16101E01B4E4F
:100C90007160F0BD30B500228B071C0F0F2303FAE3
:100CA00004F2164B08338C1053F824309343134C42
:100CB00008348D1044F8253023468C1053F8243026
:100CC0008C07240F00FA04F423430C4C08348D10D5
:100CD00044F8253030BD0A49DC3108607047000017
:100CE00000080140000C01400010014000140140C8
:100CF00000180140001C014000200140000001409C
:100D00000000204210B50446F748844209D1012171
:100D1000480500F08EFB00214FF4001000F089FB25
:100D200008E00121880500F084FB00214FF48000D9
:100D300000F07FFB10BD2DE9F04385B004460D4661
:100D40000026B1460427DFF8A483A6884FF6C070BA
:100D50000640684600F0D9FADDF80880E448B8FBA0
:100D6000F0F01FFA80F946EA0906A68020884FF6BF
:100D7000FE71084020800026DE49286888420CD891
:100D800028684000B8FBF0F087B2042F00DA04278F
:100D90003E4309F10100208427E0E8884BF6FF710B
:100DA000884206D1286800EB4000B8FBF0F087B21B
:100DB00009E0286800EBC00101EB0010B8FBF0F07F
:100DC00087B247F48047C7F30B0008B947F0010723
:100DD00047F4004006434FF4967009FB00F04FF4CF
:100DE0007A7190FBF1F0401C2084A683208840F0AB
:100DF0000100208026884FF6F5300640A8886989D2
:100E0000084306432680A88929890843208105B024
:100E1000BDE8F08341F288310160002181804BF60A
:100E2000FF71C1800021018141814FF480418181A6
:100E3000704721B1028842F00102028004E002887A
:100E40004FF6FE731A400280704721B1828842F447
:100E50000062828004E082884FF2FF731A40828031
:100E6000704721B1828842F48052828004E08288F7
:100E70004EF6FF731A408280704721B1028842F417
:100E80008072028004E002884FF6FF631A400280FD
:100E9000704721B1028842F40072028004E00288A7
:100EA0004FF6FF531A400280704721B1028842F486
:100EB0008062028004E002884FF6FF331A4002800D
:100EC00070470A46002181894FF60173194002F0EC
:100ED000FE0319438181704721B1828942F00102EA
:100EE000828104E082894FF6FE731A408281704746
:100EF00021B1028842F04002028004E002884FF6ED
:100F0000BF731A40028070471AB183880B438380F5
:100F100002E083888B4383807047018270470146DB
:100F2000088AC0B2704712B141F0010102E04FF6E9
:100F3000FE7319400182704708B5024600200090F8
:100F400000920098084400900098008808BD21B1E4
:100F5000028842F40042028003E00288C2F30E02DB
:100F600002807047B1F5006F04D1028842F400623C
:100F7000028004E002884FF2FF731A40028070473B
:100F8000B1F5005F04D1028842F40052028004E00F
:100F900002884DF6FF731A400280704721B1028823
:100FA00042F48052028004E002884EF6FF731A4039
:100FB00002807047B1F5006F04D1028842F40062EC
:100FC000028004E002884FF2FF731A4002807047EB
:100FD00021B1028842F02002028004E002884FF62C
:100FE000DF731A40028070470146088B0012704779
:100FF00021B1028842F01002028004E002884FF61C
:10100000EF731A400280704721B9028842F08002D3
:10101000028004E002884FF67F731A400280704716
:10102000B1F5804F05D0828B4BF6FF731A40828357
:1010300003E0828B42F480428283704770B502469F
:101040000024002500230020958A138B1B0445EA09
:10105000030626F07F4404EA01068E4201D10120F6
:1010600000E0002070BD10B50146002000230022E2
:101070008B8A0A8B120443EA020424F07F4010BDDD
:101080000CB50246002000230193009300920B0F41
:10109000019321F07F41019B1BB1009B143300930E
:1010A00003E0090C009B18330093009B1B680B4066
:1010B0000BB1012000E000200CBD002221F07F4296
:1010C000D3438382704730B50246002000239488C2
:1010D00001F0E06504EA154321F07F41948A0C4059
:1010E00054B14BB1012008E00054004000127A00D6
:1010F00040420F00A0860100002030BD002221F0F8
:101100007F42D34383827047DF48006840F001008C
:10111000DD49086008464068DC490840DA49486013
:1011200008460068DA490840D74908600846006860
:1011300020F4802008600846406820F4FE004860E3
:101140004FF41F0088607047CF49096821F480314F
:10115000CD4A11601146096821F480211160B0F573
:10116000803F03D0B0F5802F0ED106E0C649096854
:1011700041F48031C44A116007E0C349096841F471
:10118000A021C14A116000E000BF00BF704710B548
:1011900001460022002300204A11012A02D1BA4C44
:1011A000236806E0022A02D1B74C236A01E0B64C5C
:1011B000636A01F01F02012494401C400CB101201D
:1011C00000E0002010BD38B500200090002400256C
:1011D00000BF3120FFF7DBFF05460098401C009060
:1011E0000098B0F5A06F01D0002DF2D03120FFF7AC
:1011F000CEFF08B1012400E00024204638BD01469E
:101200000020A14A106820F0F80040EAC1001060F8
:101210007047A04908607047024600209A4B586802
:1012200020F47C1042EA01031843974B5860704742
:1012300098490866704701460020934A506820F09C
:1012400003000843506070478F48406800F00C006E
:101250007047014600208C4A506820F0F000084397
:101260005060704701460020874A506820F4E060D3
:1012700008435060704701460020834A506820F4BC
:10128000605040EAC1005060704729B17E4A527AEE
:1012900002437D4B5A7204E07B4A527A82437A4B76
:1012A0005A7270477B49D831086070470146002068
:1012B000754A506820F44040084350607047002150
:1012C000714A20321170704A82F82010012802D031
:1012D00004280AD104E001216B4A2032117005E094
:1012E0000521694A2032117000E000BF00BF70473D
:1012F0006949086070476449096A0143624A11629A
:101300007047654944390860704730B500210022B4
:10131000002400235C4D6D6805F00C0121B1042907
:1013200005D0082923D105E05C4D056022E05B4D26
:1013300005601FE0544D6D6805F47012524D6D68E4
:1013400005F48034022505EB92421CB9544D5543F7
:1013500005600BE04C4D6D6805F400351DB1504D36
:101360005543056002E04D4D5543056002E04B4D8D
:10137000056000BF00BF444D6D6805F0F00109092C
:10138000484D6B5C0568DD4045603F4D6D6805F478
:10139000E061090A434D6B5C4568DD4085603A4D6C
:1013A0006D6805F46051C90A3E4D6B5C4568DD40CF
:1013B000C560354D6D6805F44041890B3A4D6B5C55
:1013C000C568B5FBF3F5056130BD29B12E4A5269F8
:1013D00002432D4B5A6104E02B4A526982432A4B47
:1013E0005A61704729B1284A92690243264B9A6193
:1013F00004E0254A92698243234B9A61704729B1E0
:10140000214AD2690243204BDA6104E01E4AD269C4
:1014100082431D4BDA61704729B11B4AD2680243EF
:10142000194BDA6004E0184AD2688243164BDA603E
:10143000704729B1144A12690243134B1A6104E040
:10144000114A12698243104B1A61704712494039A0
:10145000086070470F49C86470470B49C8717047EE
:101460000948406A40F08070074948627047014669
:101470000020054A92680A400AB1012000E00020DD
:101480007047014988727047001002400000FFF861
:10149000FFFFF6FE000042428004424200127A0042
:1014A00000093D00140000202400002010B504466F
:1014B000FB48844209D101218803FFF7ADFF0021D9
:1014C0004FF48040FFF7A8FF32E0F648844209D18C
:1014D00001214804FFF7ADFF00214FF40030FFF772
:1014E000A8FF25E0F048844209D101218804FFF7D4
:1014F000A0FF00214FF48020FFF79BFF18E0EB488E
:10150000844209D10121C804FFF793FF00214FF461
:101510000020FFF78EFF0BE0E548844208D101214F
:101520000805FFF786FF00214FF48010FFF781FFC9
:1015300010BD2DE9F04786B005460E460024A246B0
:1015400000BFA1460027B08900B100BF2F462C8AFA
:101550004CF6FF700440F08804432C82AC894EF6B0
:10156000F3100440B088318908437189084304436B
:10157000AC81AC8A4FF6FF400440B0890443AC8292
:1015800001A8FFF7C2FEC648874202D1DDF810A0CD
:1015900001E0DDF80CA0A88900F4004040B10AEB9E
:1015A000CA0000EB0A1031684900B0FBF1F807E00F
:1015B0000AEBCA0000EB0A1031688900B0FBF1F8B1
:1015C0006420B8FBF0F004012009642101FB1089BC
:1015D000A88900F4004040B1322000EBC900B0FB04
:1015E000F1F000F00700044308E0322000EB09109E
:1015F0006421B0FBF1F000F00F0004432C8106B031
:10160000BDE8F0874FF41651016000218180C18050
:1016100001810C21418100218181704710B5024672
:101620000020108A4FF2FF0318400B884C88234398
:101630008C882343CC8823431843108210BD00219B
:10164000018041808180C180704721B1828942F44C
:101650000052828104E082894DF6FF731A40828134
:101660007047F0B50346002400260025002040F610
:101670006A17B94200D100BF1846C1F3421401F005
:101680001F06012707FA06F5012C01D10C3004E0F2
:10169000022C01D1103000E014301AB107682F433A
:1016A000076002E00768AF430760F0BD1AB1838AA4
:1016B0000B43838202E0838A8B4383827047028AD2
:1016C0004FF6F0731A400282028A0A430282704780
:1016D00082894FF2FF731A40828182890A43828194
:1016E000704721B1828942F00202828104E082893E
:1016F0004FF6FD731A4082817047028A4FF6DF73FE
:101700001A400282028A0A430282704721B1028A89
:1017100042F48042028204E0028A4BF6FF731A40D0
:1017200002827047C1F308028280704701468888B0
:10173000C0F308007047818941F001018181704741
:10174000028BD2B20283028B42EA012202837047EB
:10175000028B02F47F420283028B0A4302837047AA
:1017600021B1828A42F02002828204E0828A4FF60E
:10177000DF731A408282704721B1828A42F01002E0
:10178000828204E0828A4FF6EF731A4082827047A9
:1017900021B1828A42F00802828204E0828A4FF6F6
:1017A000F7731A408282704721B1828942F4004265
:1017B000828103E08289C2F30E028281704721B1E7
:1017C000828A42F40062828204E0828A4FF2FF73CE
:1017D0001A4082827047828A4FF6FB731A408282D7
:1017E000828A0A438282704721B1828A42F00202D1
:1017F000828204E0828A4FF6FD731A40828270472B
:1018000002460020B1F5007F00D100BF13880B40D5
:101810000BB1012000E00020704701F40072B2F526
:10182000007F00D100BFCA430280704770B50246F6
:10183000002400230025002040F66A16B14200D1A2
:1018400000BFC1F3421501F01F03012606FA03F39E
:10185000012D02D19689334006E0022D02D1168A6D
:10186000334001E0968A33400C12012606FA04F454
:101870001688344013B10CB1012000E0002070BD87
:1018800010B50022002340F66A14A14200D100BF27
:101890000A1201249440A3B2DC43048010BD00006E
:1018A000003801400044004000480040004C004027
:1018B0000050004010B501211D20FFF793FD0121CC
:1018C0008548FFF7A2F910BD2DE9F0478349086864
:1018D00000F047FE0646824A824B00F0B2FD044605
:1018E000814A824B00F006FD804600F07DFE804973
:1018F00008600846006800F034FE044600221346E3
:1019000000F042FE02D8002079490860784800685B
:1019100000F027FE04460022764B00F04DFE02D870
:1019200075487349086075497148006800F072FC99
:10193000044600F0FDFD4FF47A7190FBF1F0303079
:101940006F4908706D496A48006800F063FC0446FE
:1019500000F0EEFD4FF47A7190FBF1F201FB120002
:10196000642190FBF1F03030654948702E2088707A
:1019700062495F48006800F04DFC044600F0D8FD65
:10198000642190FBF1F201FB12000A2190FBF1F0BF
:1019900030305B49C87059495548006800F03AFC3E
:1019A000044600F0C5FD0A2190FBF1F201FB120094
:1019B0003030534908710846007852494870504801
:1019C000407888704E488078C8704D48C07808715B
:1019D0004B4800794871BDE8F08710B50223484AAA
:1019E0000021202000F06BFB10BDFFF763FF00F02B
:1019F00093F800F0D5F900F039FA00F0BBFA00F0E6
:101A0000C1F923203F49087000F03EFB0022114637
:101A1000102000F0C6FB01220021202000F0C1FBB5
:101A200002220021302000F0BCFB032200214020D4
:101A300000F0B7FB04220221002000F0B2FB0522D7
:101A40000221102000F0ADFB06220221202000F030
:101A5000A8FB07220221302000F0A3FB082202216C
:101A6000402000F09EFB09220221502000F099FB4B
:101A70004FF4FA6000F0DCF800F006FB022322A22B
:101A80000021084600F01BFB24E000241F490888C1
:101A900000F049FD82464FF08B4100F0EDFB81469E
:101AA00000F05FFD07464FF06632194B00F0C9FCAD
:101AB000054600F099FD094941F82400FFF704FFAD
:101AC000FFF78BFFC82000F0B3F80E4911A000F01B
:101AD000ABFE00BFD9E7000000023000A0010020EB
:101AE00087A757CA320417C08195438B6CA7304033
:101AF0003800002000002C40000060410000C84277
:101B0000420000204800002050483A004E000020CB
:101B100066660A402573000000B585B0012144F2D5
:101B20000400FFF75FFC4FF40070ADF810001820C0
:101B30008DF8130003208DF8120004A92148FEF748
:101B400093FF4FF48060ADF8100004208DF813006F
:101B500004A91C48FEF788FF4FF41650009000209F
:101B6000ADF80400ADF80600ADF80800ADF80C00C3
:101B70000C20ADF80A0069461348FFF7DAFC012192
:101B80001148FFF762FD05B000BD70B504460D4673
:101B9000E1B20D48FFF7C6FD00BF40210A48FFF73C
:101BA0002FFE0028F9D0204670BD10B5044600BFB6
:101BB00020210548FFF724FE0028F9D00248FFF74E
:101BC000B5FD10BD0008014000380140704700BF5E
:101BD000FEE700BFFEE700BFFEE700BFFEE770477D
:101BE00070477047704710B540F225510748FFF71E
:101BF0001DFE38B10548FFF799FDC4B2214604A087
:101C000000F012FE10BD7047704700000038014020
:101C10002563000000BF062100E000BF0A00A1F11B
:101C2000010399B2F9D1421E92B21000F3D170476C
:101C300010B5044600BFFA20FFF7ECFFFA20FFF7CB
:101C4000E9FFFA20FFF7E6FFFA20FFF7E3FF601E47
:101C500080B20400EFD110BD08B501210420FFF7C8
:101C6000C1FB0F20ADF8000000208DF8030069468D
:101C70004748FEF7F9FE08BD00B591B001210846BE
:101C8000FFF7A3FB01214802FFF7ACFB4148FEF739
:101C900061FD4148069041480790002008900420CB
:101CA000099000200A9080200B9040000C9080004A
:101CB0000D9020200E9000020F900020109006A999
:101CC0003448FEF7E9FD01213248FEF710FE0020FE
:101CD000019001208DF808008DF809004FF4602074
:101CE00003900020049004208DF8140001A92A48D4
:101CF0004C38FEF72EFB4FF44040FFF7D7FA052390
:101D00000122002124484C38FEF7BBFB05230222A8
:101D1000012121484C38FEF7B4FB052303220221A0
:101D20001D484C38FEF7ADFB0523042203211A4859
:101D30004C38FEF7A6FB012117484C38FEF740FB54
:101D4000012115484C38FEF730FB13484C38FEF79C
:101D50004EFB00BF10484C38FEF74EFB0028F9D16F
:101D60000D484C38FEF752FB00BF0B484C38FEF7CD
:101D700052FB0028F9D1012107484C38FEF755FBEA
:101D800011B000BD10B5FFF767FFFFF775FF10BD7D
:101D900000080140080002404C2401404E00002091
:101DA00030B52D4800682D4AB0FBF2F1B1F1807FCB
:101DB00001D301201DE021F07F40401E4FF0E022C2
:101DC000506150170F22002807DA13071D0E244B0D
:101DD00000F00F04241F1D5503E013071C0E214BB8
:101DE0001C5400BF00204FF0E022906107201061DA
:101DF000002008B100BFFEE74FF0E020006920F0AE
:101E000001004FF0E021086130BD01B5164900988E
:101E100008604FF0E020006940F001004FF0E02141
:101E2000086100BF104800680028FBD108BD01B55B
:101E300003E04FF47A70FFF7E8FF0098411E00912D
:101E40000028F6D108BD0848006820B1064800689F
:101E5000401E0549086070470000002040420F0006
:101E600018ED00E000E400E05800002000B585B067
:101E700001214805FFF7C3FA01210820FFF7B2FA54
:101E8000C020ADF8000003208DF802001C208DF862
:101E900003006946D748FEF7E7FDD748FEF732FF53
:101EA0000020ADF808004BF6FF70ADF80A003020B6
:101EB000ADF80C004FF48060ADF80E000001ADF8F5
:101EC0001000CE4801900121CB48FEF7B2FF01A9D6
:101ED000C948FEF730FF05B000BD70B504460D4699
:101EE00000BF4FF40031C448FFF7CAF80028F8D10A
:101EF0000121C148FEF7C1FF00BFC149BE48FFF73D
:101F00009DF80028F9D000227821BB48FFF70BF894
:101F100000BFBC49B848FFF791F80028F9D0214626
:101F2000B548FEF7FAFF00BFB649891CB248FFF773
:101F300085F80028F8D02946AF48FEF7EEFF00BF2D
:101F4000B049891CAC48FFF779F80028F8D0012186
:101F5000A948FEF79EFF70BD10B50446214600203B
:101F6000FFF7BBFF10BD10B5044621464020FFF728
:101F7000B4FF10BD10B56420FFF75AFEAE20FFF786
:101F8000EBFF2020FFF7E8FF1020FFF7E5FFB02070
:101F9000FFF7E2FFC820FFF7DFFF0020FFF7DCFFBD
:101FA0001020FFF7D9FF4020FFF7D6FF8120FFF771
:101FB000D3FFFF20FFF7D0FFA120FFF7CDFFA62022
:101FC000FFF7CAFFA820FFF7C7FF3F20FFF7C4FFB6
:101FD000A420FFF7C1FFD320FFF7BEFF0020FFF7CB
:101FE000BBFFD520FFF7B8FFF020FFF7B5FFD920E2
:101FF000FFF7B2FF2220FFF7AFFFDA20FFF7ACFFB9
:102000001220FFF7A9FFDB20FFF7A6FF2020FFF734
:10201000A3FF8D20FFF7A0FF1420FFF79DFFAF2047
:10202000FFF79AFF10BD70B504460D4605F1B001EB
:10203000C8B2FFF791FF102141EA1410FFF78CFF9F
:1020400004F00F0141F00100FFF786FF70BD70B58D
:102050000646002415E004F1B001C8B2FFF77CFF8A
:102060000020FFF779FF1020FFF776FF002504E03E
:102070003046FFF778FF681CC5B2802DF8DB601C86
:10208000C4B2082CE7DB70BD10B50020FFF7DFFFFE
:1020900010BD10B58D20FFF75FFF1420FFF75CFF28
:1020A000AF20FFF759FF10BD10B58D20FFF754FF8B
:1020B0001020FFF751FFAE20FFF74EFF10BD2DE9B6
:1020C000F0470646894617469A464FF00008002416
:1020D0000025BAF1010F03D0BAF1020F5ED125E05D
:1020E00020E0785D203800F0FF087E2E04DD002619
:1020F00009F1010000F0FF0949463046FFF793FF60
:10210000002409E008EB48013F4A02EB4101085D69
:10211000FFF729FF601CC4B2062CF3DBB01DC6B26A
:10212000681CC5B2785D0028DBD137E032E0785D0D
:10213000203800F0FF08782E04DD002609F10100A8
:1021400000F0FF0949463046FFF76DFF002407E025
:1021500004EB08112D4A505CFFF705FF601CC4B268
:10216000082CF5DB09F10100C1B23046FFF75BFF37
:10217000002408E004EB08110831244A505CFFF702
:10218000F2FE601CC4B2082CF4DB06F10800C6B2F3
:10219000681CC5B2785D0028C9D100BF00BFBDE88A
:1021A000F0872DE9F04180460E46174600247D0158
:1021B00031464046FFF737FF00BF06E01449485D4F
:1021C000FFF7D1FE6D1C601CC4B2102CF6DB701C36
:1021D000C1B24046FFF727FF002406E00C49485DE6
:1021E000FFF7C1FE6D1C601CC4B2102CF6DBBDE80D
:1021F000F0810000000C014000540040801A0600ED
:1022000001000300820007003C290008642B00083D
:102210005C00002080EA010210B502F0004340009B
:1022200022D04A001FD0010E01EB1261C0F356000C
:10223000C2F3560240F4000042F40002A0FB022068
:1022400000047F39140400D0401C50EA124001D42D
:102250004000491EC2B20C0604EBD010401C4008DE
:10226000802A02D003E0002010BD20F001000029E8
:1022700000DA0020184310BD30B480EA010202F0F9
:10228000004530F0004221F0004013D090B1C30D62
:10229000D40DC2F31601C0F31600E41A41F4000194
:1022A00040F400027D34914201D3641C00E04900F7
:1022B000002C02DA30BC002070474FF400000023ED
:1022C000914201D3891A034340084FEA4101F7D1F3
:1022D00051B1914202D14FF0004105E002D24FF0DE
:1022E000010101E06FF0010103EBC450284430BC50
:1022F00000F0B7B92DE9FE4F804681EA0300C00F18
:102300000C46009021F0004123F00045B8EB02009C
:10231000A94105D24046214690461C460B4602463E
:1023200023F00040104347D0270DC7F30A00C3F342
:102330000A510290401A019040286BDAC3F313004F
:1023400040F4801B0098924620B10023D2EB030A90
:1023500063EB0B0B01985946C0F14002504600F068
:102360005FF906460D4650465946019A00F067F956
:1023700010EB08006141002487EA115284EAE773F8
:102380001A4340D0009A62B3019A012A4FEA0752D9
:1023900015DC001B61EB02014FF0004202EA07521C
:1023A000CDE90042001C41F5801132462B4600F079
:1023B0009EF903B0BDE8F08F40462146F9E7001BC7
:1023C00061EB0201001C41F5801300185B412018ED
:1023D000A2F5001747EB030140EAD570B6196D412D
:1023E00011E06D084FEA360645EAC0754FEA07521C
:1023F000001B61EB0201001C41F5801149084FEA06
:1024000030000019514132462B4603B0BDE8F04F71
:1024100000F05EB90098012240000023D0EB0202D8
:1024200063EBE073009821464FEAE074B8EB0000DC
:1024300061EB0401E9E783F000435BE781F00041D1
:1024400058E72DE9FE4F81EA030404F0004421F02F
:10245000004100944FF0000B23F0004350EA0104C8
:102460005ED052EA03045BD0C3F30A54C1F30A55A9
:102470002C44A4F2F3340194A0FB0254C1F31301E1
:1024800041F48011C3F3130343F4801301FB0244AE
:1024900000FB034E840A970A44EA815447EA8357B3
:1024A000A4FB076802958D0A05FB07854FEA932C6C
:1024B00004FB0C542705029D4FEA065847EA1637DD
:1024C000B5EB08056EEB070C870E920E47EA8117F5
:1024D00042EA8312A7FB0201B6EB0B0164EB000496
:1024E0002B0D43EA0C335E1844EB1C50DA46514680
:1024F000E7FB0201C5F313044FEA0B3343EA14531D
:102500004FEA0432019C43EA0603A4F10C0402944E
:10251000009CCDE900B400F0EAF803B0BDE8F08F0C
:1025200000200146F9E796230022114600F0A2B8E8
:1025300000F0004220F00040C10DC0F3160040F44E
:1025400000007F2901DA00207047962903DCC1F1E1
:102550009601C84001E096398840002AF4D04042F4
:10256000704700F0004230F000400AD0C10D01F584
:102570006071C0F3160042EA0151C20840071143DE
:10258000704700200146704730B5041E71F1000409
:1025900004DB4FF00044404264EB0101141E73F170
:1025A000000405DB1C464FF00043524263EB04037A
:1025B0008B4208BF824230BD30B5041E71F1000469
:1025C00004DB4FF00044404264EB0101141E73F140
:1025D000000405DB1C464FF00043524263EB04034A
:1025E000994208BF904230BD01F0004330B421F061
:1025F000004150EA010206D00A0DA2F56072C1F353
:102600001301002A02DC30BC00207047440F44EA6A
:10261000C104C100E01830BC00EBC25000F021B88A
:10262000202A04DB203A00FA02F100207047914092
:10263000C2F1200320FA03F3194390407047202A87
:1026400006DBCB17203A41FA02F043EAE07306E0DA
:1026500041FA02F3D040C2F12002914008431946EA
:1026600070470029A8BF7047401C490008BF20F0F0
:102670000100704710B4B0FA80FC00FA0CF050EA88
:10268000010404BF10BC704749B1CCF1200421FA09
:1026900004F411FA0CF118BF012121430843A3EB04
:1026A0000C01CB1D4FEA00614FEA102042BF002011
:1026B00010BC704700EBC35010440029A4BF10BCED
:1026C0007047401C490008BF20F0010010BC704753
:1026D00010B5141E73F1000408DA401C41F100012A
:1026E00092185B411A4301D120F0010010BD2DE981
:1026F000F04D92469B4611B1B1FA81F202E0B0FA78
:1027000080F220329046FFF78BFF04460F4640EAE6
:102710000A0041EA0B0153465A46084313D01146BA
:1027200053EA010019D0C8F14002504600F040F8C9
:1027300005460E46504659464246FFF771FF08438C
:1027400005D0012004E020463946BDE8F08D002088
:10275000054346EAE0762C4337430A986305E40ACA
:10276000A0EB08000022FD0A44EA47540A3002D5D3
:1027700000200146E9E7010510196941DDE9084536
:1027800000196941BDE8F04DA2E70000064C074D75
:1027900006E0E06840F0010394E807009847103431
:1027A000AC42F6D3FDF7A6FC5431000874310008A2
:1027B000202A04DB203A21FA02F00021704721FA96
:1027C00002F3D040C2F120029140084319467047FD
:1027D00070B58C1810F8015B15F0070301D110F8E3
:1027E000013B2A1106D110F8012B03E010F8016B10
:1027F00001F8016B5B1EF9D12B0705D40023521E93
:102800000DD401F8013BFAE710F8013BCB1A921CFA
:1028100003E013F8015B01F8015B521EF9D5A142F8
:10282000D8D3002070BD00000FB4054B10B503A92C
:10283000044A029800F017F810BC5DF814FB000081
:102840008B1B00089C01002002E008C8121F08C171
:10285000002AFAD170477047002001E001C1121F21
:10286000002AFBD170472DE9F84F994692468846D9
:102870000546002706E025280AD051464A469047DB
:102880006D1C7F1C28780028F5D13846BDE8F88FEC
:10289000002315F8011F18462E2915D115F8011F20
:1028A00004232A290DD06FF02F022978A1F13004DA
:1028B000092C09D800EB800002EB400008446D1C95
:1028C000F3E758F8040B6D1C2A78002ADDD0632A40
:1028D00007D0732A0FD0104651464A4690477F1CB6
:1028E0002AE018F8042B8DF8002000218DF8011043
:1028F0006E46012103E058F8046B4FF0FF315A0790
:102900004FF0000401D409E0641C84420BDA8C42CD
:10291000FADB325D002AF7D105E0641C8C42FCDB57
:10292000305D0028F9D1274404E016F8010B514628
:102930004A469047641EF8D26D1CA3E700000000D1
:1029400000000000002F0000000007000700001436
:102950007F147F1400242A7F2A1200626408132344
:1029600000364955225000000503000000001C22DB
:102970004100000041221C000014083E0814000819
:10298000083E0808000000A06000000808080808C9
:10299000000060600000002010080402003E514961
:1029A000453E0000427F40000042615149460021FF
:1029B00041454B31001814127F1000274545453919
:1029C000003C4A4949300001710905030036494974
:1029D000493600064949291E00003636000000002D
:1029E0005636000000081422410000141414141478
:1029F0000000412214080002015109060032495921
:102A0000513E007C1211127C007F49494936003E3C
:102A100041414122007F4141221C007F49494941F7
:102A2000007F09090901003E4149497A007F0808F1
:102A3000087F0000417F4100002040413F01007FAE
:102A400008142241007F40404040007F020C027F7A
:102A5000007F0408107F003E4141413E007F09098C
:102A60000906003E4151215E007F091929460046B2
:102A7000494949310001017F0101003F4040403F89
:102A8000001F2040201F003F4038403F00631408D3
:102A900014630007087008070061514945430000AE
:102AA0007F41410000552A552A55000041417F00D1
:102AB00000040201020400404040404000000102C6
:102AC0000400002054545478007F484444380038AF
:102AD0004444442000384444487F00385454541837
:102AE00000087E0901020018A4A4A47C007F080449
:102AF00004780000447D4000004080847D00007F19
:102B0000102844000000417F4000007C0418047835
:102B1000007C0804047800384444443800FC242431
:102B200024180018242418FC007C08040408004819
:102B30005454542000043F444020003C4040207C3A
:102B4000001C2040201C003C4030403C0044281029
:102B50002844001CA0A0A07C004464544C441414DD
:102B60001414141400000000000000000000000015
:102B700000000000000000F800000000000000332A
:102B80003000000000100C06100C060000000000D1
:102B90000000000040C07840C0784000043F0404BA
:102BA0003F040400007088FC08300000001820FF7B
:102BB000211E0000F008F000E018000000211C03B6
:102BC0001E211E0000F00888700000001E21232432
:102BD0001927211010160E00000000000000000050
:102BE00000000000000000E01804020000000007E0
:102BF0001820400000020418E000000000402018E7
:102C000007000000404080F0804040000202010FB9
:102C100001020200000000F0000000000101011F9D
:102C200001010100000000000000000080B0700001
:102C30000000000000000000000000000001010191
:102C40000101010100000000000000000030300020
:102C500000000000000000008060180400601806FA
:102C60000100000000E010080810E000000F102034
:102C700020100F00001010F8000000000020203F7E
:102C80002020000000700808088870000030282408
:102C900022213000003008888848300000182020A9
:102CA00020110E000000C02010F8000000070424CE
:102CB000243F240000F80888880808000019212013
:102CC00020110E0000E0108888180000000F11206D
:102CD00020110E0000380808C83808000000003F26
:102CE000000000000070880808887000001C222185
:102CF00021221C0000E010080810E0000000312232
:102D000022110F00000000C0C000000000000030D1
:102D10003000000000000080000000000000806023
:102D200000000000000080402010080000010204A4
:102D3000081020004040404040404000040404048B
:102D40000404040000081020408000000020100847
:102D500004020100007048080808F000000000307C
:102D600036010000C030C828E810E000071827240A
:102D700023140B000000C038E0000000203C2302B8
:102D80000227382008F8888888700000203F20201B
:102D900020110E00C030080808083800071820204D
:102DA0002010080008F808080810E000203F202044
:102DB00020100F0008F88888E8081000203F202025
:102DC0002320180008F88888E8081000203F200019
:102DD00003000000C0300808083800000718202051
:102DE000221E020008F808000008F808203F210110
:102DF00001213F20000808F8080800000020203FBB
:102E00002020000000000808F8080800C08080802A
:102E10007F00000008F888C028180800203F200123
:102E20002638200008F8080000000000203F20207D
:102E30002020300008F8F800F8F80800203F003F94
:102E4000003F200008F830C00008F808203F2000AC
:102E500007183F00E01008080810E0000F102020BD
:102E600020100F0008F808080808F000203F210192
:102E700001010000E01008080810E0000F182424E9
:102E800038504F0008F8888888887000203F20005C
:102E9000030C302000708808080838000038202112
:102EA00021221C00180808F8080818000000203F1C
:102EB0002000000008F808000008F808001F202083
:102EC00020201F000878880000C838080000073854
:102ED0000E010000F80800F80008F800033C0700A5
:102EE000073C0300081868808068180820302C030D
:102EF000032C30200838C800C83808000000203FE4
:102F00002000000010080808C838080020382621D2
:102F100020201800000000FE020202000000007FD6
:102F200040404000000C30C00000000000000001E4
:102F30000638C00000020202FE00000000404040CF
:102F40007F000000000004020202040000000000F4
:102F50000000000000000000000000008080808071
:102F60008080808000020204000000000000000059
:102F700000000000000080808080000000192422F2
:102F800022223F2008F8008080000000003F11202E
:102F900020110E000000008080800000000E112033
:102FA00020201100000000808088F800000E112011
:102FB00020103F200000808080800000001F22221F
:102FC00022221300008080F0888888180020203F8B
:102FD000202000000000808080808000006B94949E
:102FE0009493600008F8008080800000203F21005A
:102FF00000203F2000809898000000000020203F23
:1030000020200000000000809898000000C0808010
:10301000807F000008F8000080808000203F2402AC
:103020002D302000000808F8000000000020203F9C
:10303000202000008080808080808000203F200051
:103040003F20003F8080008080800000203F2100E2
:1030500000203F200000808080800000001F202092
:1030600020201F00808000808000000080FFA120C1
:1030700020110E000000008080808000000E1120D2
:1030800020A0FF80808080008080800020203F2161
:103090002000010000008080808080000033242414
:1030A00024241900008080E0808000000000001FC0
:1030B000202000008080000000808000001F202071
:1030C00020103F20808080000080808000010E3032
:1030D0000806010080800080008080800F300C0393
:1030E0000C300F0000808000808080000020312E96
:1030F0000E312000808080000080808080818E7072
:103100001806010000808080808080000021302C23
:103110002221300000000000807C0202000000003C
:10312000003F404000000000FF00000000000000E1
:10313000FF0000000002027C800000000040403FD1
:10314000000000000006010102020404000000006B
:10315000000000007431000800000020A001000001
:10316000D0270008B0320008A001002010040000A1
:10317000582800081184A24A0468090102030406C1
:103180000708090C6910053402040608200F0424FE
:103190004484649C40300FC8080828181010100898
:1031A0000601824C20180601061820408025404068
:1031B00042CC1CFC0402043304FC100F40201F20EE
:1031C000404F4442407F42444340180B8060F80720
:1031D00004E4242424FF042AE4A712FF300C808195
:1031E0004529112F41418181801BFE220149053172
:1031F0001D80601F0201477F020242827F1620204D
:1032000020A0601EFF608040207F112A20811C408A
:10321000807FDD2D04081010401C121292011BFF4C
:1032200091012A1040100D80805F4020100E101078
:10323000205F8010101010D0FF905020504C434C55
:10324000502040401B0403811809414458414E60FE
:10325000584710151060028C16FE02F202FE1AF892
:103260001A11100B04047E018047300F10271A47F3
:103270006631400C22322AA6A2622111098101186E
:103280000E4222130B42827E02020A12234690153E
:1032900030AC6330100A88C8A8998E88A8C88820E6
:1032A0000A22672212128040300F553F40407100C1
:04000005080000ED02
:00000001FF
