:100C550054656D706572757475726520476574208D
:070C650069733A25660A00DD
:0A0C7F00E4F592F591F5B2F5B1220B
:100C1B00D2907F0C7E00120C6CC2907F587E021219
:100C2B000C6CD2907F0F7E00120C6C7FC87E000282
:020C3B000C6C3F
:100B6300E4F52EF52F752E08D3E52E9400748094AA
:100B7300804029C2907F057E00120C6CE52FC313C1
:100B8300F52FD2907F057E00120C6C309003432F1B
:0E0B9300807F327E00120C6C152E80CCAF2FAE
:010BA1002231
:020B1B008F2E1B
:100B1D00E4F52FC3E52F9408748094805037AF2FE0
:100B2D00A807E52E088002C313D8FCF53053300119
:100B3D00C2907F057E00120C6CE53064017002D20C
:100B4D00907F377E00120C6CD2907F057E00120CC8
:050B5D006C052F80BEB5
:010B62002270
:100A9700120C1B7FCC120B1B7F44120B1B7FC87ED3
:100AA70000120003120C1B7FCC120B1B7FBE120B14
:100AB7001B120B638F2C120B638F2DEF752700F51D
:100AC70026E52C422753260FE52630E324640FFE44
:100AD700E527F4FFEE540FF5268F27E5272401FFBE
:100AE700E43526FE7CFF7DFF120546AC06AD078088
:100AF70004AC26AD27EC120131E4FBFA7980783D8E
:100B07001200268F2B8E2A8D298C28AF2BAE2AAD6B
:030B170029AC28DE
:010B1A0022B8
:100BCF00E4F5A2120C7F120C3D120A978F258E248A
:100BDF008D238C227BFF7A0C79558F2C8E2B8D2AAF
:070BEF008C291205FE80E2D3
:10000300D3EF9400EE940040147D3D7C03ED1D700E
:0D001300011CED4C70F7EF1F70E61E80E33E
:0100200022BD
:100C6C00E4FDFCC3ED9FEC9E5008000DBD00010C93
:020C7C0080F105
:010C7E002253
:030C960001080052
:100C3D0075985075D7E075D6FE758E15E4F50AF5E5
:080C4D0009C209D2ACD2AF22AA
:100BF6008B1B8A1C891DAB1BAA1CA91D1204EE6047
:100C060013051DE51D7002051C14F91204EEFF12F2
:050C16000C8980E222C0
:080C89002009FDD2098F992218
:050C9100AE07020C8912
:03002300020BA22B
:100BA200C0E0C0D075D000C000C007309904C2991F
:100BB200C20930980FC298AF0A050A740B2FF8A623
:0D0BC20099530A0FD007D000D0D0D0E032F8
:10002600EC4D6011E8497017ED33EC3304600DE4D4
:10003600FCFFFEFD22E933E8330470F802019F124B
:10004600016A58046009E4CC24815006285009024C
:1000560001A92840030201A6C0E0EB4A7044B9801A
:1000660006D0E0FB020195EF4E701CBD8008EBFF49
:10007600EAFEE9FD80EBE98DF0A4FEE5F002010F52
:10008600E9CDF9EAFEEBFFEF89F0A4FCE5F0CE89B5
:10009600F0A42EFFE435F0CD89F0A42DFEE435F072
:1000A6008067EF4E7005BD80D780C3EF8BF0A4ACA0
:1000B600F0EE8BF0A42CFCE435F0F8EF8AF0A42CDB
:1000C600E5F038FCE433CB8DF0A42CFCE5F03BF8EE
:1000D600EE8AF0A42CFCE5F038F8E433CF89F0A4DE
:1000E6002CFCE5F038CF3400CE89F0A42FFFE5F0E4
:1000F6003EFEE433C98DF0A42EFEE5F039CD8AF03C
:10010600A42FFFE5F03EFEE43DFD33D0E0FB5007B3
:100116000BBB000F0201A9EC2CFCEF33FFEE33FE04
:06012600ED33FD02018132
:10012C0075F020800E75F010800575F0087D007E4E
:10013C00007F003392D530D503120558EC334010B4
:10014C00EF33FFEE33FEED33FDEC33FCD5F0ED2257
:0E015C00E5F0247EA2D513CC92E7CDCEFF2293
:10059C00E53D2429F8E6053D227826300702782926
:1005AC00E475F0011205660204EE2000EB7F2ED2FA
:1005BC00008018EF540F2490D43440D4FF30040B37
:1005CC00EF24BFB41A0050032461FFE53E6002150E
:1005DC003E0541E5417002054030070D7826E47573
:1005EC00F001120566EF020534020C917403D20778
:1005FC008003E4C207F53D8B268A278928E4F53E63
:10060C00F540F541E53E60077F201205D780F57572
:10061C003FFFC201C200C202C203C205C206C20829
:10062C001205A5FF700D3007057F001205E8AF41DC
:10063C00AE4022B4255FC2D5C2041205A5FF24D05A
:10064C00B40A00501A75F00A783E30D50508B6FF8A
:10065C000106C6A426F620D5047002D20380D92444
:10066C00CFB41A00EF5004C2E5D2040208D5D2016F
:10067C0080C6D20080C0D20280BCD2D580BAD2054E
:10068C0080B47F201205D72002077401B53E0040CC
:10069C00F112059CFF1205D7020610D208D2068073
:1006AC009512059CFB12059CFA12059CF94A4B709D
:1006BC000679CC7A097BFF20022EE53E602A7E006B
:1006CC008E8275830012050760060EEE653F70F092
:1006DC00C2D5EBC0E0EAC0E0E9C0E0EE120935D0CB
:1006EC00E0F9D0E0FAD0E0FB1204EEFF60AAEBC018
:1006FC00E0EAC0E0E9C0E01205D7D0E02401F9D06F
:10070C00E03400FAD0E0FBE53F0460DCD53FD98053
:10071C0087D20280A212091860F7E53F700104121B
:10072C0001B4A93F600DE53F600914F53F1209BF04
:10073C00EF60F3EA30E702F404C3995077EAF4254A
:10074C003F0430E701E404F53F800D12091860C145
:10075C00EA053F253F1201B4EA783CF630E701E4A4
:10076C00253F04D53F0420050114120935E4C0E0EF
:10077C001209BF783CE6601320E70714F61205BF98
:10078C00802204F6D0E014C0E07F001205BFE53FE4
:10079C0060071205B6153F800B3005031205B6D065
:1007AC00E0020610D0E00480C512091860A0E53FF5
:1007BC00041201B4783CEAF6E53F2005026001041E
:0507CC002404120935B0
:1007D10074FF04C0E01209BF1205BFE53F20050206
:1007E10060031205B6D0E0B53FE87F451205C97830
:1007F1003CE67F2B30E7047F2DF404C0E01205D7DF
:10080100D0E075F00A84C0F01205C0D0E01205C036
:10081100020610791080027908C206C2088008D247
:10082100D5790A8004790AC2D5E53F047002F53F03
:10083100E4FAFDFEFF12059CFC7B08200113120562
:100841009CFD7B1030000A12059CFE12059CFF7B6B
:1008510020EC3382D592D55013C3E43000069FFFBC
:10086100E49EFEE42001039DFDE49CFCE4CBF8C280
:1008710001EC700CCFCECDCCE824F8F870F38017E2
:10088100C3EF33FFEE33FEED33FDEC33FCEB33FB13
:10089100994002FB0FD8E9EB300105F8D0E0C448DC
:1008A100B201C0E00AEC4D4E4F78207B0070C2EAE5
:1008B100B53F0040BCC0E0120937D0F0D0E02001C4
:1008C10004C4C0E0C4B201C0F01205C0D0F0D5F03C
:1008D100EB02061012057606AD53081458067E4C3D
:1008E100067A4208184F0820440820490693430815
:1008F100265507574607B54507214709EC5006829B
:100901002D06862E06A92B068A2306A72009D52A9D
:10091100064248000006A1E53FB4FF03753F0612F9
:10092100059CFC12059CFD12059CFE12059CFF789E
:10093100350201E3790AA2D5200314300509B91063
:10094100020404B9080104A2D520060250010420C2
:1009510002689202B53E005034C0E07F2030031996
:100961007F30A20272067205500F12098EC202C2B6
:1009710006C205C2087F30800F300503E9C0E012CE
:1009810005D7300503D0E0F9D0E0B53ECC300517EE
:100991007F30B9100C1205D77F583004077F78805B
:1009A10003B908031205D73002057F2D0205D77F51
:1009B100202008F87F2B2006F322920280CF7F00AF
:1009C100B4070050052435F8E6FF22286E756C6CDB
:1009D1002900D20112059C3001F8C201783E30D5C0
:1009E1000108F60206422D5043495812059C240382
:1009F100B405004001E49009E7931205C8743A1266
:0A0A010005C8D203753E0402081474
:10016A00E9D2E7C933E833F892D5EDD2E7CD33ECDB
:07017A0033FC5002B2D52254
:10018100EC30E7100FBF000C0EBE00080DBD0004DF
:100191000BEB6014A2D5EB13FCED92E7FD2274FF8B
:1001A100FCFDFEFF22E480F8A2D574FF13FC7D80E4
:0301B100E480EFF8
:1001B400F920E72824F950037907E4F42402FB1812
:1001C400DBFDE624FB5014E9600DE4F618E604F6C2
:0F01D400B40A08E4F6D9F57401F60A22C2D5225E
:1001E300ED33EC3392D5FA602AB4FF33EDC2E77BEB
:1001F300FF60067A027908E4227A02791120D50495
:100203007A02790C224E614E002B494E46002D494D
:100213004E4600E47A08F608DAFC7B00740722E80D
:10022300C0E0ECC0E0EDC0E0EEC0E0EFC0E0EA7596
:10023300F010A4CAABF075F04DA42BFBE435F0FC31
:10024300EA2410FAEB34C5FBEC34D9FCEDC2E7FF2A
:1002530075F056A4F42411C5F0F434C58FF0A42A24
:10026300E5F03BE43CF620E7141204AED0E0FFD007
:10027300E0FED0E0FDD0E0FC1203E18014F40412B0
:1002830004AED0E0FFD0E0FED0E0FDD0E0FC1200F1
:1002930026D0E0F8E6FAEDD2E7CD33EC332482FB47
:1002A300E4C3CF33CFCE33CECD33CD33DBF37B07B4
:1002B30075F00A846004F6081B0AE5F0F6088FF06F
:1002C300740AA4FFACF08EF0740AA42CFEACF050B8
:1002D300010C8DF0740AA42CFDE435F0F608DBDE86
:0302E3007407227B
:1002E60002019FE86480F8E933E83360110460F0A6
:1002F600ED33EC337009E8FCE9FDEAFEEBFF22047E
:1003060060DED3EB9FEA9EE99DE8C2E78CF0C2F778
:1003160095F0400CE8CCF8E9CDF9EACEFAEBCFFB44
:1003260012016A85D0F05804700320D5B3E8047032
:10033600075002B2D50201A992D5EC0460F7E4CCCD
:10034600C0E0C398F8603B94186008400DD0E0FB0D
:10035600020181E4FBFAC9FC8028E830E406E4C91E
:10036600FBE4CAFCE830E305E4C9CACBFCE8540761
:100376006010F8C3E913F9EA13FAEB13FBEC13FC6C
:10038600D8F130F52FC3E49CFCEF9BFFEE9AFEED0F
:1003960099FDD0E0FBEF4E4D4C701222DB030201BB
:1003A600A6EC2CFCEF33FFEE33FEED33FDED30E72C
:1003B600EB020181EF2BFFEE3AFEED39FDD0E0FBBB
:1003C60050130BBB00030201A9ED13FDEE13FEEF64
:0803D60013FFEC13FC0201818E
:1003DE000201A9EC5D046005E85904700302019F57
:1003EE0012016A580460F6EC4860F2EC7004FDFEEF
:1003FE00FF22C860DB2481C85009C39860025006F2
:10040E000201A69850CAF582E9294B4A7005AB82C3
:10041E0002019575F0007C1A7880C3EF9BEE9AED81
:10042E0099400DC3EF9BFFEE9AFEED99FDE842F069
:10043E00DC23ACF0D0E0FFD0E0FED0E0FDAB8220BC
:10044E00E7101BEB60BAEC2CFCEF33FFEE33FEED46
:10045E0033FD020181E803F830E705C0F075F000C6
:10046E00EF2FFFEE33FEED33FD40B830E7C280AA2A
:10047E003F8000004120000042C80000447A000086
:10048E00461C400047C35000497424004B18968008
:10049E004CBEBC205A0E1BCA6753C21C749DC5AEFF
:1004AE00FB60065407601C23231204DCEB543860F7
:1004BE00091204C81204D7120026ECF8EDF9EEFA70
:1004CE00EFCB22EB1204D780F1543803241C900496
:1004DE007EFE93FC0EEE93FD0EEE930ECE93FF2258
:03000000020A0BE6
:0C0A0B00787FE4F6D8FD758141020A52A4
:1004EE00BB010689828A83E0225002E722BBFE020C
:0904FE00E32289828A83E493223F
:10050700BB010CE58229F582E5833AF583E02250A9
:1005170006E92582F8E622BBFE06E92582F8E222F3
:0D052700E58229F582E5833AF583E493220D
:10053400BB010689828A83F0225002F722BBFE01A6
:02054400F322A0
:10054600EF8DF0A4A8F0CF8CF0A428CE8DF0A42EC9
:02055600FE2283
:0E055800C3E49FFFE49EFEE49DFDE49CFC22B4
:10056600FAE6FB0808E6F925F0F618E6CA3AF62296
:10057600D083D082F8E4937012740193700DA3A314
:1005860093F8740193F5828883E473740293686028
:06059600EFA3A3A380DF28
:100A1700020BCFE493A3F8E493A34003F68001F21B
:100A270008DFF48029E493A3F85407240CC8C333E0
:100A3700C4540F4420C8834004F456800146F6DFAF
:100A4700E4800B0102040810204080900C96E47E9D
:100A5700019360BCA3FF543F30E509541FFEE493A4
:100A6700A360010ECF54C025E060A840B8E493A36B
:100A7700FAE493A3F8E493A3C8C582C8CAC583CA96
:100A8700F0A3C8C582C8CAC583CADFE9DEE780BE4E
:010C9900005A
:00000001FF
