:03000000020FC329
:0C0FC300787FE4F6D8FD75813402100A36
:1013FF008F318D328B331214EFAF3112126E2000FA
:10140F0002C322AF3212126E200002C322AF331278
:0C141F00126E200002C322121517D32207
:10144D008F2B8D2C1214EFAF2B12126E200002C3B6
:10145D0022AF2C12126E200002C322121517D322B6
:02142B008F2B05
:10142D001214EFE52B04FF12126E2000037F002231
:0F143D001213D28F2CD2011214BF121517AF2C1D
:01144C00227D
:0415600050483A00B5
:1014A70002100000040C00000000051200000000FC
:0714B7000004080000000022
:0D154A00007F087E017DF3DDFEDEFCDFFA90
:011557002271
:10136F007D407F9012144D7F9012142B7510008FBB
:10137F0011AC10AD11EC120C97E4FBFA79A0784088
:10138F00120A73E4FBFA797F7843120B7C8F0B8E72
:06139F000A8D098C0822F2
:100E29007F4E7E627DBC7CC0AB0BAA0AA909A808CB
:100E3900120A737B7F7A6A79AD78411209828F0F22
:100E49008E0E8D0D8C0CE4FFFEFDFCAB0FAA0EA9D6
:100E59000DA80C120C1960025009E4F50FF50EF5F6
:100E69000DF50CE4FFFE7D607C41AB0FAA0EA90DC8
:100E7900A80C120C19400BE4F50FF50E750D6075F1
:100E89000C41E4FFFE7DC87C42AB0FAA0EA90DA858
:100E99000C120A73120CD0AB07AA067C037DE81268
:100EA9000DE5EF2430F5127C037DE8AF03AE0212A5
:100EB9000DE57E007F64CFCDCFCECCCE120DE5EF10
:100EC9002430F51375142EE4FFFE7DC87C42AB0F68
:100ED900AA0EA90DA80C120A73120CD0AB07AA0608
:100EE9007C007D64120DE57E007F0ACFCDCFCECC8C
:100EF900CE120DE5EF2430F5157C007D0AAF03AE67
:0A0F090002120DE5ED2430F516226A
:1013A500AB127D027F1812104FAB137D027F211205
:1013B500104FAB147D027F2A12104FAB157D027FB3
:0D13C5003312104FAB167D027F3C02104F1B
:10150500759850758920758DFD758BFDE4F587D22D
:021515008E2224
:081558008F993099FDC2992220
:1010CB00121505120F13121336E4FBFDFF12121942
:1010DB007B01E4FD7F121212197B02E4FD7F2412C7
:1010EB0012197B03E4FD7F361212197B04E4FD7F9A
:1010FB00481212197B05E4FD7F5A1212197B06E484
:10110B00FD7F6C1212197BFF7A1579607D02E4FF6B
:10111B001212F512136F120E291213A5E4FDFC74B3
:10112B00122DF8E6FF1215580DBD00010CED6405EC
:08113B004C70EC12154A80DB38
:1014EF00D29700D2960000000000C29700000000C3
:0614FF0000C2960000226D
:10151700C29700D2960000000000D297000000009A
:0115270022A1
:10126E00E4FEEEC39408748094805020A806EF0824
:10127E008002C333D8FC30E704D2978002C29700B5
:10128E00D2960000000000C2960E80D60000D297C3
:10129E000000D296000000309704C2008002D200F7
:0412AE00C2960000E4
:0112B2002219
:1013D200E4FFD297FEEEC394087480948050190003
:1013E200C2960000000000D2960000EF25E0FF3018
:0C13F20097010F00000E80DDC296000085
:0113FE0022CC
:1014BF00200104C2978002D297000000D29600004C
:0814CF00000000C2960000229B
:10000300003E5149453E0000427F4000004261519D
:100013004946002141454B31001814127F10002737
:1000230045454539003C4A494930000171090503FA
:1000330000364949493600064949291E000036362B
:10004300000000005636000000081422410000148E
:10005300141414140000412214080002015109066B
:1000630000324959513E007C1211127C007F4949EC
:100073004936003E41414122007F4141221C007F1D
:1000830049494941007F09090901003E4149497A2B
:10009300007F0808087F0000417F410000204041A5
:1000A3003F01007F08142241007F40404040007F11
:1000B300020C027F007F0408107F003E4141413E55
:1000C300007F09090906003E4151215E007F09199D
:1000D30029460046494949310001017F0101003F9A
:1000E3004040403F001F2040201F003F4038403F1A
:1000F300006314081463000708700807006151497E
:10010300454300007F41410000552A552A55000010
:1001130041417F000004020102040040404040408E
:10012300000001020400002054545478007F484426
:10013300443800384444442000384444487F00385D
:100143005454541800087E0901020018A4A4A47C86
:10015300007F080404780000447D40000040808450
:100163007D00007F102844000000417F4000007C98
:1001730004180478007C08040478003844444438A4
:1001830000FC242424180018242418FC007C0804F0
:10019300040800485454542000043F444020003CC9
:1001A3004040207C001C2040201C003C4030403C50
:1001B300004428102844001CA0A0A07C00446454E0
:1001C3004C44141414141414000000000000000024
:1001D3000000000000000000000000F80000000024
:1001E300000000333000000000100C06100C060065
:1001F300000000000000000040C07840C0784000CC
:10020300043F04043F040400007088FC083000002D
:10021300001820FF211E0000F008F000E018000085
:1002230000211C031E211E0000F00888700000003E
:100233001E2123241927211010160E000000000090
:100243000000000000000000000000E018040200AD
:10025300000000071820400000020418E00000001E
:100263000040201807000000404080F0804040001C
:100273000202010F01020200000000F00000000072
:100283000101011F01010100000000000000000046
:1002930080B07000000000000000000000000000BB
:1002A3000001010101010101000000000000000044
:1002B30000303000000000000000000080601804DF
:1002C300006018060100000000E010080810E000BC
:1002D300000F102020100F00001010F80000000085
:1002E3000020203F202000000070080808887000CC
:1002F300003028242221300000300888884830004C
:100303000018202020110E000000C02010F800006B
:1003130000070424243F240000F808888808080004
:100323000019212020110E0000E010888818000019
:10033300000F112020110E0000380808C8380800EB
:100343000000003F0000000000708808088870006B
:10035300001C222121221C0000E010080810E000EC
:100363000000312222110F00000000C0C000000075
:10037300000000303000000000000080000000009A
:100383000000806000000000000080402010080092
:10039300000102040810200040404040404040005B
:1003A3000404040404040400000810204080000036
:1003B3000020100804020100007048080808F0003B
:1003C3000000003036010000C030C828E810E0000B
:1003D3000718272423140B000000C038E000000096
:1003E300203C23020227382008F888888870000000
:1003F300203F202020110E00C030080808083800D4
:10040300071820202010080008F808080810E0004A
:10041300203F202020100F0008F88888E8081000EB
:10042300203F20202320180008F88888E8081000BF
:10043300203F200003000000C030080808380000F7
:1004430007182020221E020008F808000008F808F8
:10045300203F210101213F20000808F8080800007F
:100463000020203F2020000000000808F8080800B2
:10047300C08080807F00000008F888C0281808002A
:10048300203F20012638200008F808000000000063
:10049300203F20202020300008F8F800F8F808005A
:1004A300203F003F003F200008F830C00008F80854
:1004B300203F200007183F00E01008080810E00064
:1004C3000F10202020100F0008F808080808F0007B
:1004D300203F210101010000E01008080810E0009E
:1004E3000F18242438504F0008F888888888700033
:1004F300203F2000030C30200070880808083800D3
:100503000038202121221C00180808F808081800C8
:100513000000203F2000000008F808000008F80849
:10052300001F202020201F000878880000C83808FA
:10053300000007380E010000F80800F80008F80072
:10054300033C0700073C030008186880806818080C
:1005530020302C03032C30200838C800C83808008A
:100563000000203F2000000010080808C8380800D9
:100573002038262120201800000000FE020202007D
:100583000000007F40404000000C30C0000000002D
:10059300000000010638C00000020202FE00000055
:1005A300004040407F0000000000040202020400FB
:1005B3000000000000000000000000000000000038
:1005C3008080808080808080000202040000000020
:1005D3000000000000000000000080808080000018
:1005E3000019242222223F2008F800808000000006
:1005F300003F112020110E000000008080800000C9
:10060300000E112020201100000000808088F800D7
:10061300000E112020103F20000080808080000009
:10062300001F222222221300008080F0888888186D
:100633000020203F20200000000080808080800078
:10064300006B94949493600008F80080808000000D
:10065300203F210000203F200080989800000000E8
:100663000020203F20200000000000809898000018
:1006730000C08080807F000008F800008080800038
:10068300203F24022D302000000808F8000000005D
:100693000020203F20200000808080808080800018
:1006A300203F20003F20003F8080008080800000AA
:1006B300203F210000203F20000080808080000038
:1006C300001F202020201F00808000808000000069
:1006D30080FFA12020110E00000000808080800098
:1006E300000E112020A0FF80808080008080800089
:1006F30020203F21200001000000808080808000B6
:100703000033242424241900008080E0808000002A
:100713000000001F20200000808000000080800077
:10072300001F202020103F208080800000808080D8
:1007330000010E3008060100808000800080808068
:100743000F300C030C300F0000808000808080008D
:100753000020312E0E3120008080800000808080B8
:1007630080818E7018060100008080808080800068
:100773000021302C2221300000000000807C020286
:1007830000000000003F404000000000FF000000A8
:1007930000000000FF0000000002027C8000000057
:1007A3000040403F00000000000601010202040473
:1007B3000000000000000000F212FE12FE12F20020
:1007C3009058B4133058900000000000000000005F
:1007D3000000000000000000FF4A49484949FF00AB
:1007E300884629112947800000000000000000000E
:1007F300000000000000000084E45CC400F8084826
:10080300484808FF08098A000000000000000000B3
:100813000000000000000000003F10BF403F001E2A
:10082300925E20173846F10000000000000000002F
:1008330000000000000000000000FC242424FC252C
:100843002624FC24242404000000000000000000EF
:10085300000000000000000040308F80844C5525CC
:100863002525554C8080800000000000000000001A
:1008730000000000000000001010D0FF9050205036
:100883004C434C502040400000000000000000009A
:100893000000000000000000040300FF0041445872
:1008A300414E605847404000000000000000000037
:1008B30000000000000000001060028C00FE02F245
:1008C30002FE00F800FF000000000000000000002E
:1008D300000000000000000004047E018047300F88
:1008E30010270047807F0000000000000000000088
:1008F3000000000000000000000022322AA6A262CD
:100903002111098101000000000000000000000027
:100913000000000000000000004222130B42827E10
:1009230002020A122346000000000000000000003B
:1009330000000000000000002030AC63300088C8D5
:10094300A8998E88A8C88800000000000000000055
:1009530000000000000000002267221212804030D5
:100963000F00003F40407100000000000000000045
:0809730000000000000000007C
:10148D00EF4E60157D087C07ED1DAA0470011C4A06
:09149D0070F6EF1F70EA1E80E7F3
:0114A6002223
:1012B300F583E5822CF582E43583F583E493FF7DA2
:0112C3000129
:1012C400ED6004D2A38002C2A3C2A4E4FEEEC394E0
:1012D40008748094805015C2A0EF30E704D2A18036
:1012E40002C2A1D2A0EF25E0FF0E80E1D2A4D2A3D6
:0112F40022D7
:10146D00AC07ED24B0FFE4FD1212C4EC54F0C454EB
:10147D000F4410FF1212C4EC540F4401FF0212C4AA
:10152800E4FD7F8D1212C47F141212C47FAF021221
:01153800C4EE
:10153900E4FD7F8D1212C47F101212C47FAE021215
:01154900C4DD
:10133600E4FCECC3940874809480502CEC24B0FF39
:10134600E4FD1212C4E4FF1212C47F101212C4E4A8
:10135600FBEBC3948074809480500A7D01E4FF12F5
:0813660012C40B80EC0C80CADC
:01136E00225C
:06104F00AA07A905AF038A
:10105500E4FCEF24E0FBEAD3947F748094804004A1
:10106500E4FA0909AF02AD0112146DE4FCECC39476
:101075000874809480501D75F010EBA42CF582E463
:1010850035F0F583E58224CBF582E5833401121230
:10109500BD0C80D9AF02E904FD12146DE4FCECC36C
:1010A500940874809480501D75F010EBA42CF58283
:1010B500E435F0F583E58224D3F582E58334011226
:0510C50012BD0C80D9F2
:0110CA002203
:0414D7008F34A905A0
:1014DB007F017E00AD0119ED6009AD347C00120D6A
:0314EB007E80F10F
:0114EE0022DB
:081143008F178D188A198B1A11
:10114B00E4F51FF51DE51DC3951B505FC3E51B950E
:10115B001D14FD7F0A1214D7AC19AD1ACFCDCFCE0B
:10116B00CCCE120D907C007D0A120D908D1EE51FCA
:10117B007020E51B14FFE51DC39F5016E51E700F75
:10118B00E51CC313851DF0A42517FF7B2080137569
:10119B001F01E51CC313851DF0A42517FFE51E24B5
:0B11AB0030FBAD1812104F051D809A9C
:0111B6002216
:0A12F5008F2B8D2C8B2D8A2E892F54
:1012FF00E4F530AB2DAA2EA92F853082758300120D
:10130F000D51FB6021AD2CAF2B12104F7408252B04
:10131F00F52BD39478748094804007E4F52B052C3B
:06132F00052C053080CD05
:011335002295
:04121900AA07A90572
:10121D00E4F52B12146DE4FCECC3941074809480EF
:10122D00501575F040EBA424BBF582E5F0340712A0
:10123D0012B3052B0C80E1AF02E904FD12146DE42D
:10124D00FCECC3941074809480501575F040EBA4A1
:10125D0024DBF582E5F034071212B3052B0C80E187
:01126D00225E
:0411B7008F218B23D6
:1011BB00E4F528F529E5245407700BE524131313E4
:1011CB00541FF52A800AE524131313541F04F52A20
:1011DB008D2AE52AC395245034AD2AAF2112146D04
:1011EB00AC21ECC395235021AB25AA26A9270529B1
:1011FB00E529AE287002052814F5828E83120D5155
:0D120B00FF7D011212C40C80D9052A80C598
:0112180022B3
:100F1300D2A27F647E0012148DC2A27F647E00126F
:100F2300148DD2A2E4FD7FAE1212C4E4FF1212C4E8
:100F33007F101212C47F401212C47F811212C47F29
:100F4300CF1212C47FA11212C47FC81212C47FA68B
:100F53001212C47FA81212C47F3F1212C47FD3128D
:100F630012C4E4FF1212C47FD51212C47F8012127E
:100F7300C47FD91212C47FF11212C47FDA1212C4D1
:100F83007F121212C47FDB1212C47F401212C47F7D
:100F9300201212C47F021212C47F8D1212C47F1456
:100FA3001212C47FA41212C47FA61212C47FAF12FE
:100FB30012C47FAF1212C4121336E4FDFF02146D84
:10097B00020D3CE86480F8E933E83360110460F061
:10098B00ED33EC337009E8FCE9FDEAFEEBFF2204E2
:10099B0060DED3EB9FEA9EE99DE8C2E78CF0C2F7DD
:1009AB0095F0400CE8CCF8E9CDF9EACEFAEBCFFBA9
:1009BB00120D0785D0F05804700320D5B3E80470EE
:1009CB00075002B2D5020D4692D5EC0460F7E4CC89
:1009DB00C0E0C398F8603B94186008400DD0E0FB72
:1009EB00020D1EE4FBFAC9FC8028E830E406E4C9DA
:1009FB00FBE4CAFCE830E305E4C9CACBFCE85407C6
:100A0B006010F8C3E913F9EA13FAEB13FBEC13FCD0
:100A1B00D8F130F52FC3E49CFCEF9BFFEE9AFEED73
:100A2B0099FDD0E0FBEF4E4D4C701222DB03020D13
:100A3B0043EC2CFCEF33FFEE33FEED33FDED30E7F3
:100A4B00EB020D1EEF2BFFEE3AFEED39FDD0E0FB76
:100A5B0050130BBB0003020D46ED13FDEE13FEEF1F
:080A6B0013FFEC13FC020D1E49
:100A7300EC4D6011E8497017ED33EC3304600DE47D
:100A8300FCFFFEFD22E933E8330470F8020D3C124B
:100A93000D0758046009E4CC24815006285009024C
:100AA3000D46284003020D43C0E0EB4A7044B98071
:100AB30006D0E0FB020D32EF4E701CBD8008EBFF49
:100AC300EAFEE9FD80EBE98DF0A4FEE5F0020B5CA4
:100AD300E9CDF9EAFEEBFFEF89F0A4FCE5F0CE895E
:100AE300F0A42EFFE435F0CD89F0A42DFEE435F01B
:100AF3008067EF4E7005BD80D780C3EF8BF0A4AC49
:100B0300F0EE8BF0A42CFCE435F0F8EF8AF0A42C83
:100B1300E5F038FCE433CB8DF0A42CFCE5F03BF896
:100B2300EE8AF0A42CFCE5F038F8E433CF89F0A486
:100B33002CFCE5F038CF3400CE89F0A42FFFE5F08C
:100B43003EFEE433C98DF0A42EFEE5F039CD8AF0E4
:100B5300A42FFFE5F03EFEE43DFD33D0E0FB50075C
:100B63000BBB000F020D46EC2CFCEF33FFEE33FE04
:060B7300ED33FD020D1E32
:100B7900020D46EC5D046005E859047003020D3C62
:100B8900120D07580460F6EC4860F2EC7004FDFEA3
:100B9900FF22C860DB2481C85009C398600250064F
:100BA900020D439850CAF582E9294B4A7005AB8278
:100BB900020D3275F0007C1A7880C3EF9BEE9AED36
:100BC90099400DC3EF9BFFEE9AFEED99FDE842F0C7
:100BD900DC23ACF0D0E0FFD0E0FED0E0FDAB82201A
:100BE900E7101BEB60BAEC2CFCEF33FFEE33FEEDA4
:100BF90033FD020D1EE803F830E705C0F075F0007B
:100C0900EF2FFFEE33FEED33FD40B830E7C280AA87
:100C190074F8CC6480CCC86480C8F58204604FC382
:100C2900EB9FF5F0EA9E42F0E99D42F0E89C45F021
:100C3900603C501DE5825FFFE582D313CB5BCBF4AB
:100C49002B5582FB50280ABA002409B900200880D4
:100C59001DE5825BFBE582D313CF5FCFF4C3132F6E
:100C69005582FF50090EBE00050DBD00010CC3EBF6
:100C79009FF5F0EA9E42F0E99D42F0E89C45F0605C
:090C890007CC4820E701B3EC227E
:100C920075F020800E75F010800575F0087D007EDD
:100CA200007F003392D530D503120E1BEC33401077
:100CB200EF33FFEE33FEED33FDEC33FCD5F0ED22E6
:0E0CC200E5F0247EA2D513CC92E7CDCEFF2222
:100CD000EDD2E7CD33EC3392D524814006E4FFFE1C
:100CE000FDFC22FCE4CFCECDCC24E0501174FF807B
:100CF000EDC3CC13CCCD13CDCE13CECF13CF047018
:070D0000F030D5DE020E1BEE
:100D0700E9D2E7C933E833F892D5EDD2E7CD33EC32
:070D170033FC5002B2D522AB
:100D1E00EC30E7100FBF000C0EBE00080DBD000436
:100D2E000BEB6014A2D5EB13FCED92E7FD2274FFE2
:100D3E00FCFDFEFF22E480F8A2D574FF13FC7D803B
:030D4E00E480EF4F
:100FCF000210CBE493A3F8E493A34003F68001F25D
:100FDF0008DFF48029E493A3F85407240CC8C33323
:100FEF00C4540F4420C8834004F456800146F6DFF2
:100FFF00E4800B01020408102040809014A7E47EC7
:10100F00019360BCA3FF543F30E509541FFEE493E6
:10101F00A360010ECF54C025E060A840B8E493A3AD
:10102F00FAE493A3F8E493A3C8C582C8CAC583CAD8
:10103F00F0A3C8C582C8CAC583CADFE9DEE780BE90
:0114BE00002D
:100D5100BB010CE58229F582E5833AF583E0225057
:100D610006E92582F8E622BBFE06E92582F8E222A1
:0D0D7100E58229F582E5833AF583E49322BB
:100D7E00EF8DF0A4A8F0CF8CF0A428CE8DF0A42E89
:020D8E00FE2243
:100D9000BC000BBE0029EF8DF084FFADF022E4CC47
:100DA000F875F008EF2FFFEE33FEEC33FCEE9DEC10
:100DB000984005FCEE9DFE0FD5F0E9E4CEFD22ED56
:100DC000F8F5F0EE8420D21CFEADF075F008EF2FA0
:100DD000FFED33FD4007985006D5F0F222C398FD91
:050DE0000FD5F0EA222E
:100DE500C2D5EC30E709B2D5E4C39DFDE49CFCEE29
:100DF50030E715B2D5E4C39FFFE49EFE120D90C304
:100E0500E49DFDE49CFC8003120D9030D507C3E4FE
:060E15009FFFE49EFE2297
:0E0E1B00C3E49FFFE49EFEE49DFDE49CFC22E8
:00000001FF
